
ADC.elf:     file format elf32-littlearm

Sections:
Idx Name          Size      VMA       LMA       File off  Algn
  0 .text         00003073  00000000  00000000  00008000  2**2
                  CONTENTS, ALLOC, LOAD, READONLY, CODE
  1 .ctors        00000000  00003073  00003073  00010828  2**0
                  CONTENTS
  2 .dtors        00000000  00003073  00003073  00010828  2**0
                  CONTENTS
  3 .data         00000828  40000000  00003074  00010000  2**2
                  CONTENTS, ALLOC, LOAD, DATA
  4 .bss          00000044  40000828  40000828  00010828  2**2
                  ALLOC
  5 .stack        00000800  40000900  40000900  00010828  2**0
                  ALLOC
  6 .comment      000001f8  00000000  00000000  00010828  2**0
                  CONTENTS, READONLY
  7 .debug_aranges 000003e0  00000000  00000000  00010a20  2**3
                  CONTENTS, READONLY, DEBUGGING
  8 .debug_pubnames 000006d8  00000000  00000000  00010e00  2**0
                  CONTENTS, READONLY, DEBUGGING
  9 .debug_info   0000e1e9  00000000  00000000  000114d8  2**0
                  CONTENTS, READONLY, DEBUGGING
 10 .debug_abbrev 0000287f  00000000  00000000  0001f6c1  2**0
                  CONTENTS, READONLY, DEBUGGING
 11 .debug_line   0000273f  00000000  00000000  00021f40  2**0
                  CONTENTS, READONLY, DEBUGGING
 12 .debug_frame  00000884  00000000  00000000  00024680  2**2
                  CONTENTS, READONLY, DEBUGGING
 13 .debug_str    00001464  00000000  00000000  00024f04  2**0
                  CONTENTS, READONLY, DEBUGGING
 14 .debug_loc    00003f7b  00000000  00000000  00026368  2**0
                  CONTENTS, READONLY, DEBUGGING
 15 .debug_ranges 00000250  00000000  00000000  0002a2e3  2**0
                  CONTENTS, READONLY, DEBUGGING
Disassembly of section .text:

00000000 <_boot>:

// Runtime Interrupt Vectors
// -------------------------
Vectors:
        b     _start                    // reset - _start
       0:	ea000012 	b	50 <_mainCRTStartup>
        ldr   pc,_undf                  // undefined - _undf
       4:	e59ff014 	ldr	pc, [pc, #20]	; 20 <_undf>
        ldr   pc,_swi                   // SWI - _swi
       8:	e59ff014 	ldr	pc, [pc, #20]	; 24 <_swi>
        ldr   pc,_pabt                  // program abort - _pabt
       c:	e59ff014 	ldr	pc, [pc, #20]	; 28 <_pabt>
        ldr   pc,_dabt                  // data abort - _dabt
      10:	e59ff014 	ldr	pc, [pc, #20]	; 2c <_dabt>
        nop                             // reserved
      14:	e1a00000 	nop			(mov r0,r0)
        ldr   pc,[pc,#-0xFF0]           // IRQ - read the VIC
      18:	e51ffff0 	ldr	pc, [pc, #-4080]	; fffff030 <_end+0xbfffdf30>
        ldr   pc,_fiq                   // FIQ - _fiq
      1c:	e59ff010 	ldr	pc, [pc, #16]	; 34 <_fiq>

00000020 <_undf>:
      20:	00000038 	andeq	r0, r0, r8, lsr r0

00000024 <_swi>:
      24:	0000003c 	andeq	r0, r0, ip, lsr r0

00000028 <_pabt>:
      28:	00000040 	andeq	r0, r0, r0, asr #32

0000002c <_dabt>:
      2c:	00000044 	andeq	r0, r0, r4, asr #32

00000030 <_irq>:
      30:	00000048 	andeq	r0, r0, r8, asr #32

00000034 <_fiq>:
      34:	0000004c 	andeq	r0, r0, ip, asr #32

00000038 <__undf>:

#if 0
// Use this group for production
_undf:  .word _reset                    // undefined - _reset
_swi:   .word _reset                    // SWI - _reset
_pabt:  .word _reset                    // program abort - _reset
_dabt:  .word _reset                    // data abort - _reset
_irq:   .word _reset                    // IRQ - _reset
_fiq:   .word _reset                    // FIQ - _reset

#else
// Use this group for development
_undf:  .word __undf                    // undefined
_swi:   .word __swi                     // SWI
_pabt:  .word __pabt                    // program abort
_dabt:  .word __dabt                    // data abort
_irq:   .word __irq                     // IRQ
_fiq:   .word __fiq                     // FIQ

__undf: b     .                         // undefined
      38:	eafffffe 	b	38 <__undf>

0000003c <__swi>:
__swi:  b     .                         // SWI
      3c:	eafffffe 	b	3c <__swi>

00000040 <__pabt>:
__pabt: b     .                         // program abort
      40:	eafffffe 	b	40 <F_BIT>

00000044 <__dabt>:
__dabt: b     .                         // data abort
      44:	eafffffe 	b	44 <__dabt>

00000048 <__irq>:
__irq:  b     .                         // IRQ
      48:	eafffffe 	b	48 <__irq>

0000004c <__fiq>:
__fiq:  b     .                         // FIQ
      4c:	eafffffe 	b	4c <__fiq>

00000050 <_mainCRTStartup>:
#endif
        .size _boot, . - _boot
        .endfunc


// Setup the operating mode & stack.
// ---------------------------------
        .global _start, start, _mainCRTStartup
        .func   _start

_start:
start:
_mainCRTStartup:

// Initialize Interrupt System
// - Set stack location for each mode
// - Leave in System Mode with Interrupts Disabled
// -----------------------------------------------
        ldr   r0,=_stack
      50:	e59f00c0 	ldr	r0, [pc, #192]	; 118 <.text+0x118>
        msr   CPSR_c,#MODE_UND|I_BIT|F_BIT // Undefined Instruction Mode
      54:	e321f0db 	msr	CPSR_c, #219	; 0xdb
        mov   sp,r0
      58:	e1a0d000 	mov	sp, r0
        sub   r0,r0,#UND_STACK_SIZE
      5c:	e2400004 	sub	r0, r0, #4	; 0x4
        msr   CPSR_c,#MODE_ABT|I_BIT|F_BIT // Abort Mode
      60:	e321f0d7 	msr	CPSR_c, #215	; 0xd7
        mov   sp,r0
      64:	e1a0d000 	mov	sp, r0
        sub   r0,r0,#ABT_STACK_SIZE
      68:	e2400004 	sub	r0, r0, #4	; 0x4
        msr   CPSR_c,#MODE_FIQ|I_BIT|F_BIT // FIQ Mode
      6c:	e321f0d1 	msr	CPSR_c, #209	; 0xd1
        mov   sp,r0
      70:	e1a0d000 	mov	sp, r0
        sub   r0,r0,#FIQ_STACK_SIZE
      74:	e2400004 	sub	r0, r0, #4	; 0x4
        msr   CPSR_c,#MODE_IRQ|I_BIT|F_BIT // IRQ Mode
      78:	e321f0d2 	msr	CPSR_c, #210	; 0xd2
        mov   sp,r0
      7c:	e1a0d000 	mov	sp, r0
        sub   r0,r0,#IRQ_STACK_SIZE
      80:	e2400080 	sub	r0, r0, #128	; 0x80
        msr   CPSR_c,#MODE_SVC|I_BIT|F_BIT // Supervisor Mode
      84:	e321f0d3 	msr	CPSR_c, #211	; 0xd3
        mov   sp,r0
      88:	e1a0d000 	mov	sp, r0
        sub   r0,r0,#SVC_STACK_SIZE
      8c:	e2400004 	sub	r0, r0, #4	; 0x4
        msr   CPSR_c,#MODE_SYS|I_BIT|F_BIT // System Mode
      90:	e321f0df 	msr	CPSR_c, #223	; 0xdf
        mov   sp,r0
      94:	e1a0d000 	mov	sp, r0

// Clear .bss
// ----------
        mov   r0,#0                     // get a zero
      98:	e3a00000 	mov	r0, #0	; 0x0
        ldr   r1,=__bss_start           // -> bss start
      9c:	e59f1078 	ldr	r1, [pc, #120]	; 11c <.text+0x11c>
        ldr   r2,=__bss_end__           // -> bss end
      a0:	e59f2078 	ldr	r2, [pc, #120]	; 120 <.text+0x120>
2:      cmp   r1,r2                     // check if data to clear
      a4:	e1510002 	cmp	r1, r2
        strlo r0,[r1],#4                // clear 4 bytes
      a8:	34810004 	strcc	r0, [r1], #4
        blo   2b                        // loop until done
      ac:	3afffffc 	bcc	a4 <IRQ_STACK_SIZE+0x24>

// Copy initialized data to its execution address in RAM
// -----------------------------------------------------
#ifdef ROM_RUN
        ldr   r1,=_etext                // -> ROM data start
      b0:	e59f106c 	ldr	r1, [pc, #108]	; 124 <.text+0x124>
        ldr   r2,=_data                 // -> data start
      b4:	e59f206c 	ldr	r2, [pc, #108]	; 128 <.text+0x128>
        ldr   r3,=_edata                // -> end of data
      b8:	e59f306c 	ldr	r3, [pc, #108]	; 12c <.text+0x12c>
1:      cmp   r2,r3                     // check if data to move
      bc:	e1520003 	cmp	r2, r3
        ldrlo r0,[r1],#4                // copy it
      c0:	34910004 	ldrcc	r0, [r1], #4
        strlo r0,[r2],#4
      c4:	34820004 	strcc	r0, [r2], #4
        blo   1b                        // loop until done
      c8:	3afffffb 	bcc	bc <IRQ_STACK_SIZE+0x3c>
#endif
	
/*
   Call C++ constructors (for objects in "global scope")
   ctor loop added by Martin Thomas 4/2005 
   based on a Anglia Design example-application for ST ARM
*/

		LDR 	r0, =__ctors_start__
      cc:	e59f005c 	ldr	r0, [pc, #92]	; 130 <.text+0x130>
		LDR 	r1, =__ctors_end__
      d0:	e59f105c 	ldr	r1, [pc, #92]	; 134 <.text+0x134>

000000d4 <ctor_loop>:
ctor_loop:
		CMP 	r0, r1
      d4:	e1500001 	cmp	r0, r1
		BEQ 	ctor_end
      d8:	0a000005 	beq	f4 <ctor_end>
		LDR 	r2, [r0], #4
      dc:	e4902004 	ldr	r2, [r0], #4
		STMFD 	sp!, {r0-r1}
      e0:	e92d0003 	stmdb	sp!, {r0, r1}
		MOV 	lr, pc
      e4:	e1a0e00f 	mov	lr, pc
		MOV 	pc, r2
      e8:	e1a0f002 	mov	pc, r2
		LDMFD 	sp!, {r0-r1}
      ec:	e8bd0003 	ldmia	sp!, {r0, r1}
		B 		ctor_loop
      f0:	eafffff7 	b	d4 <ctor_loop>

000000f4 <ctor_end>:
ctor_end:

// Call main program: main(0)
// --------------------------
        mov   r0,#0                     // no arguments (argc = 0)
      f4:	e3a00000 	mov	r0, #0	; 0x0
        mov   r1,r0
      f8:	e1a01000 	mov	r1, r0
        mov   r2,r0
      fc:	e1a02000 	mov	r2, r0
        mov   fp,r0                     // null frame pointer
     100:	e1a0b000 	mov	fp, r0
        mov   r7,r0                     // null frame pointer for thumb
     104:	e1a07000 	mov	r7, r0
        ldr   r10,=main
     108:	e59fa028 	ldr	sl, [pc, #40]	; 138 <.text+0x138>
        mov   lr,pc
     10c:	e1a0e00f 	mov	lr, pc

/* Enter the C code, use BX instruction so as to never return */
/* use BLX (?) main if you want to use c++ destructors below */

        bx    r10                       // enter main()
     110:	e12fff1a 	bx	sl

00000114 <_reset>:

/* "global object"-dtors are never called and it should not be 
   needed since there is no OS to exit to. */
/* Call destructors */
#		LDR		r0, =__dtors_start__
#		LDR		r1, =__dtors_end__
dtor_loop:
#		CMP		r0, r1
#		BEQ		dtor_end
#		LDR		r2, [r0], #4
#		STMFD	sp!, {r0-r1}
#		MOV		lr, pc
#		MOV		pc, r2
#		LDMFD	sp!, {r0-r1}
#		B		dtor_loop
dtor_end:
   
        .size   _start, . - _start
        .endfunc

        .global _reset, reset, exit, abort
        .func   _reset
_reset:
reset:
exit:
abort:
#if 0
// Disable interrupts, then force a hardware reset by driving P23 low
// -------------------------------------------------------------------
        mrs   r0,cpsr                   // get PSR
        orr   r0,r0,#I_BIT|F_BIT        // disable IRQ and FIQ
        msr   cpsr,r0                   // set up status register

        ldr   r1,=(PS_BASE)             // PS Base Address
        ldr   r0,=(PS_PIO)              // PIO Module
        str   r0,[r1,#PS_PCER_OFF]      // enable its clock
        ldr   r1,=(PIO_BASE)            // PIO Base Address
        ldr   r0,=(1<<23)               // P23
        str   r0,[r1,#PIO_PER_OFF]      // make sure pin is contolled by PIO
        str   r0,[r1,#PIO_CODR_OFF]     // set the pin low
        str   r0,[r1,#PIO_OER_OFF]      // make it an output
#endif
        b     .                         // loop until reset
     114:	eafffffe 	b	114 <_reset>
     118:	40001100 	andmi	r1, r0, r0, lsl #2
     11c:	40000828 	andmi	r0, r0, r8, lsr #16
     120:	4000086c 	andmi	r0, r0, ip, ror #16
     124:	00003074 	andeq	r3, r0, r4, ror r0
     128:	40000000 	andmi	r0, r0, r0
     12c:	40000828 	andmi	r0, r0, r8, lsr #16
     130:	00003073 	andeq	r3, r0, r3, ror r0
     134:	00003073 	andeq	r3, r0, r3, ror r0
     138:	0000013d 	andeq	r0, r0, sp, lsr r1

0000013c <main>:
#define acende(pin) IOSET0=1<<luzes[i];
#define apaga(pin)  IOCLR0=1<<luzes[i];

int main(void) 
{
     13c:	b530      	push	{r4, r5, lr}
     13e:	b083      	sub	sp, #12
        char luzes[]={18,19, 4, 5,
                       6, 7, 8, 9,
                      10,16,12,13};
     140:	492b      	ldr	r1, [pc, #172]	(1f0 <.text+0x1f0>)
     142:	4668      	mov	r0, sp
     144:	220c      	mov	r2, #12
     146:	f96df000 	bl	424 <memcpy>
     14a:	466c      	mov	r4, sp
     14c:	2500      	mov	r5, #0
     14e:	e004      	b	15a <main+0x1e>
        int i;
        int dirMask = 0;
	
        for (i=0; i<sizeof(luzes); i++) {
                dirMask |= 1<<luzes[i];
     150:	7822      	ldrb	r2, [r4, #0]
     152:	2301      	mov	r3, #1
     154:	4093      	lsl	r3, r2
     156:	431d      	orr	r5, r3
     158:	3401      	add	r4, #1
     15a:	ab03      	add	r3, sp, #12
     15c:	429c      	cmp	r4, r3
     15e:	d1f7      	bne	150 <main+0x14>
     160:	4b24      	ldr	r3, [pc, #144]	(1f4 <.text+0x1f4>)
     162:	2224      	mov	r2, #36
     164:	701a      	strb	r2, [r3, #0]
     166:	2201      	mov	r2, #1
     168:	3b04      	sub	r3, #4
     16a:	701a      	strb	r2, [r3, #0]
     16c:	4a22      	ldr	r2, [pc, #136]	(1f8 <.text+0x1f8>)
     16e:	2356      	mov	r3, #86
     170:	425b      	neg	r3, r3
     172:	7013      	strb	r3, [r2, #0]
     174:	2355      	mov	r3, #85
     176:	7013      	strb	r3, [r2, #0]
     178:	4b20      	ldr	r3, [pc, #128]	(1fc <.text+0x1fc>)
     17a:	881a      	ldrh	r2, [r3, #0]
     17c:	2380      	mov	r3, #128
     17e:	00db      	lsl	r3, r3, #3
     180:	4213      	tst	r3, r2
     182:	d0f9      	beq	178 <main+0x3c>
     184:	4b1e      	ldr	r3, [pc, #120]	(200 <.text+0x200>)
     186:	2103      	mov	r1, #3
     188:	7019      	strb	r1, [r3, #0]
     18a:	4a1b      	ldr	r2, [pc, #108]	(1f8 <.text+0x1f8>)
     18c:	2356      	mov	r3, #86
     18e:	425b      	neg	r3, r3
     190:	7013      	strb	r3, [r2, #0]
     192:	2355      	mov	r3, #85
     194:	7013      	strb	r3, [r2, #0]
     196:	3a8c      	sub	r2, #140
     198:	2300      	mov	r3, #0
     19a:	7013      	strb	r3, [r2, #0]
     19c:	4b19      	ldr	r3, [pc, #100]	(204 <.text+0x204>)
     19e:	7019      	strb	r1, [r3, #0]
     1a0:	2302      	mov	r3, #2
     1a2:	7013      	strb	r3, [r2, #0]
     1a4:	4b18      	ldr	r3, [pc, #96]	(208 <.text+0x208>)
     1a6:	2201      	mov	r2, #1
     1a8:	701a      	strb	r2, [r3, #0]
     1aa:	3bc0      	sub	r3, #192
     1ac:	701a      	strb	r2, [r3, #0]
        }
        
	systemInit(); /* init PLL, MAM etc. */	
             
        uart0Init(UART_BAUD(BAUD), UART_8N1, UART_FIFO_8);        
     1ae:	2062      	mov	r0, #98
     1b0:	2103      	mov	r1, #3
     1b2:	2281      	mov	r2, #129
     1b4:	f886f000 	bl	2c4 <uart0Init>
        
        IODIR0 = dirMask;
     1b8:	4b14      	ldr	r3, [pc, #80]	(20c <.text+0x20c>)
     1ba:	601d      	str	r5, [r3, #0]
     1bc:	2500      	mov	r5, #0
     1be:	e012      	b	1e6 <main+0xaa>
        
	while(1) {
                for (i=0; i<sizeof(luzes); i++) {
                        iprintf("luzes[%i] = P0.%i\n", (int)i, (int)luzes[i]);
     1c0:	466b      	mov	r3, sp
     1c2:	5d5c      	ldrb	r4, [r3, r5]
     1c4:	4812      	ldr	r0, [pc, #72]	(210 <.text+0x210>)
     1c6:	1c22      	mov	r2, r4		(add r2, r4, #0)
     1c8:	1c29      	mov	r1, r5		(add r1, r5, #0)
     1ca:	f90bf000 	bl	3e4 <iprintf>
                        
                        
                        
                        acende(luzes[i]);
     1ce:	2301      	mov	r3, #1
     1d0:	1c1a      	mov	r2, r3		(add r2, r3, #0)
     1d2:	4b10      	ldr	r3, [pc, #64]	(214 <.text+0x214>)
     1d4:	40a2      	lsl	r2, r4
     1d6:	601a      	str	r2, [r3, #0]
     1d8:	4b0f      	ldr	r3, [pc, #60]	(218 <.text+0x218>)
     1da:	3b01      	sub	r3, #1
     1dc:	2b00      	cmp	r3, #0
     1de:	d1fc      	bne	1da <main+0x9e>
                        delay();         
                        apaga(luzes[i]);
     1e0:	4b0e      	ldr	r3, [pc, #56]	(21c <.text+0x21c>)
     1e2:	601a      	str	r2, [r3, #0]
     1e4:	3501      	add	r5, #1
     1e6:	2d0b      	cmp	r5, #11
     1e8:	d9ea      	bls	1c0 <main+0x84>
     1ea:	2500      	mov	r5, #0
     1ec:	e7e8      	b	1c0 <main+0x84>
     1ee:	0000      	lsl	r0, r0, #0
     1f0:	2e1c      	cmp	r6, #28
     1f2:	0000      	lsl	r0, r0, #0
     1f4:	c084      	stmia	r0!,{r2, r7}
     1f6:	e01f      	b	238 <_read_r+0x18>
     1f8:	c08c      	stmia	r0!,{r2, r3, r7}
     1fa:	e01f      	b	23c <_read_r+0x1c>
     1fc:	c088      	stmia	r0!,{r3, r7}
     1fe:	e01f      	b	240 <_read_r+0x20>
     200:	c080      	stmia	r0!,{r7}
     202:	e01f      	b	244 <_read_r+0x24>
     204:	c004      	stmia	r0!,{r2}
     206:	e01f      	b	248 <_read_r+0x28>
     208:	c100      	stmia	r1!,{}
     20a:	e01f      	b	24c <_read_r+0x2c>
     20c:	8008      	strh	r0, [r1, #0]
     20e:	e002      	b	216 <.text+0x216>
     210:	2fe0      	cmp	r7, #224
     212:	0000      	lsl	r0, r0, #0
     214:	8004      	strh	r4, [r0, #0]
     216:	e002      	b	21e <.text+0x21e>
     218:	4240      	neg	r0, r0
     21a:	000f      	lsl	r7, r1, #0
     21c:	800c      	strh	r4, [r1, #0]
     21e:	e002      	b	226 <_read_r+0x6>

00000220 <_read_r>:
#include "uart.h"

// new code for _read_r provided by Alexey Shusharin - Thanks
_ssize_t _read_r(struct _reent *r, int file, void *ptr, size_t len)
{
     220:	b5f0      	push	{r4, r5, r6, r7, lr}
     222:	1c1f      	mov	r7, r3		(add r7, r3, #0)
  char c;
  int  i;
  unsigned char *p;

  p = (unsigned char*)ptr;
     224:	1c15      	mov	r5, r2		(add r5, r2, #0)
     226:	2600      	mov	r6, #0
     228:	e015      	b	256 <_read_r+0x36>

  for (i = 0; i < len; i++)
  {
    c = uart0GetchW();
     22a:	f8cdf000 	bl	3c8 <uart0GetchW>
     22e:	0604      	lsl	r4, r0, #24
     230:	0e24      	lsr	r4, r4, #24

    *p++ = c;
     232:	702c      	strb	r4, [r5, #0]
    uart0Putch(c);
     234:	1c20      	mov	r0, r4		(add r0, r4, #0)
     236:	3501      	add	r5, #1
     238:	f874f000 	bl	324 <uart0Putch>

    if (c == 0x0D && i <= (len - 2))
     23c:	2c0d      	cmp	r4, #13
     23e:	d109      	bne	254 <_read_r+0x34>
     240:	1ebb      	sub	r3, r7, #2
     242:	429e      	cmp	r6, r3
     244:	d806      	bhi	254 <_read_r+0x34>
    {
      *p = 0x0A;
     246:	230a      	mov	r3, #10
     248:	702b      	strb	r3, [r5, #0]
      uart0Putch(0x0A);
     24a:	200a      	mov	r0, #10
     24c:	f86af000 	bl	324 <uart0Putch>
      return i + 2;
     250:	3602      	add	r6, #2
     252:	e002      	b	25a <_read_r+0x3a>
     254:	3601      	add	r6, #1
     256:	42be      	cmp	r6, r7
     258:	d3e7      	bcc	22a <_read_r+0xa>
    }
  }
  return i;
}
     25a:	1c30      	mov	r0, r6		(add r0, r6, #0)
     25c:	bcf0      	pop	{r4, r5, r6, r7}
     25e:	bc02      	pop	{r1}
     260:	4708      	bx	r1
	...

00000264 <_write_r>:


#if 0
// old version - no longer in use
_ssize_t _read_r(
    struct _reent *r, 
    int file, 
    void *ptr, 
    size_t len)
{
	char c;
	int  i;
	unsigned char *p;
	
	p = (unsigned char*)ptr;
	
	for (i = 0; i < len; i++) {
		// c = uart0Getch();
		c = uart0GetchW();
		if (c == 0x0D) {
			*p='\0';
			break;
		}
		*p++ = c;
		uart0Putch(c);
	}
	return len - i;
}
#endif

_ssize_t _write_r (
    struct _reent *r, 
    int file, 
    const void *ptr, 
    size_t len)
{
     264:	b570      	push	{r4, r5, r6, lr}
     266:	1c1e      	mov	r6, r3		(add r6, r3, #0)
	int i;
	const unsigned char *p;
	
	p = (const unsigned char*) ptr;
     268:	1c14      	mov	r4, r2		(add r4, r2, #0)
     26a:	2500      	mov	r5, #0
     26c:	e00a      	b	284 <_write_r+0x20>
	
	for (i = 0; i < len; i++) {
		if (*p == '\n' ) uart0Putch('\r');
     26e:	7823      	ldrb	r3, [r4, #0]
     270:	2b0a      	cmp	r3, #10
     272:	d102      	bne	27a <_write_r+0x16>
     274:	200d      	mov	r0, #13
     276:	f855f000 	bl	324 <uart0Putch>
		uart0Putch(*p++);
     27a:	7820      	ldrb	r0, [r4, #0]
     27c:	f852f000 	bl	324 <uart0Putch>
     280:	3401      	add	r4, #1
     282:	3501      	add	r5, #1
     284:	42b5      	cmp	r5, r6
     286:	d3f2      	bcc	26e <_write_r+0xa>
	}
	
	return len;
}
     288:	1c30      	mov	r0, r6		(add r0, r6, #0)
     28a:	bc70      	pop	{r4, r5, r6}
     28c:	bc02      	pop	{r1}
     28e:	4708      	bx	r1

00000290 <_close_r>:

int _close_r(
    struct _reent *r, 
    int file)
{
	return 0;
}
     290:	2000      	mov	r0, #0
     292:	4770      	bx	lr

00000294 <_lseek_r>:

_off_t _lseek_r(
    struct _reent *r, 
    int file, 
    _off_t ptr, 
    int dir)
{
	return (_off_t)0;	/*  Always indicate we are at file beginning.	*/
}
     294:	2000      	mov	r0, #0
     296:	4770      	bx	lr

00000298 <_fstat_r>:


int _fstat_r(
    struct _reent *r, 
    int file, 
    struct stat *st)
{
	/*  Always set as character device.				*/
	st->st_mode = S_IFCHR;	
     298:	2380      	mov	r3, #128
     29a:	019b      	lsl	r3, r3, #6
		/* assigned to strong type with implicit 	*/
		/* signed/unsigned conversion.  Required by 	*/
		/* newlib.					*/

	return 0;
}
     29c:	2000      	mov	r0, #0
     29e:	6053      	str	r3, [r2, #4]
     2a0:	4770      	bx	lr
	...

000002a4 <isatty>:

int isatty(int file); /* avoid warning */

int isatty(int file)
{
	return 1;
}
     2a4:	2001      	mov	r0, #1
     2a6:	4770      	bx	lr

000002a8 <_sbrk_r>:

#if 0
static void _exit (int n) {
label:  goto label; /* endless loop */
}
#endif 

/* "malloc clue function" */

	/**** Locally used variables. ****/
extern char end[];              /*  end is set in the linker command 	*/
				/* file and is the end of statically 	*/
				/* allocated data (thus start of heap).	*/

static char *heap_ptr;		/* Points to current end of the heap.	*/

/************************** _sbrk_r *************************************/
/*  Support function.  Adjusts end of heap to provide more memory to	*/
/* memory allocator. Simple and dumb with no sanity checks.		*/
/*  struct _reent *r	-- re-entrancy structure, used by newlib to 	*/
/*			support multiple threads of operation.		*/
/*  ptrdiff_t nbytes	-- number of bytes to add.			*/
/*  Returns pointer to start of new heap area.				*/
/*  Note:  This implementation is not thread safe (despite taking a	*/
/* _reent structure as a parameter).  					*/
/*  Since _s_r is not used in the current implementation, the following	*/
/* messages must be suppressed.						*/

void * _sbrk_r(
    struct _reent *_s_r, 
    ptrdiff_t nbytes)
{
	char  *base;		/*  errno should be set to  ENOMEM on error	*/

	if (!heap_ptr) {	/*  Initialize if first time through.		*/
     2a8:	4a04      	ldr	r2, [pc, #16]	(2bc <.text+0x2bc>)
     2aa:	6813      	ldr	r3, [r2, #0]
     2ac:	2b00      	cmp	r3, #0
     2ae:	d101      	bne	2b4 <_sbrk_r+0xc>
		heap_ptr = end;
     2b0:	4b03      	ldr	r3, [pc, #12]	(2c0 <.text+0x2c0>)
     2b2:	6013      	str	r3, [r2, #0]
	}
	base = heap_ptr;	/*  Point to end of heap.			*/
     2b4:	6810      	ldr	r0, [r2, #0]
	heap_ptr += nbytes;	/*  Increase heap.				*/
     2b6:	1843      	add	r3, r0, r1
     2b8:	6013      	str	r3, [r2, #0]
	
	return base;		/*  Return pointer to start of new heap area.	*/
}
     2ba:	4770      	bx	lr
     2bc:	0828      	lsr	r0, r5, #0
     2be:	4000      	and	r0, r0
     2c0:	1100      	asr	r0, r0, #4
     2c2:	4000      	and	r0, r0

000002c4 <uart0Init>:
 *    fmode - see typical fmodes (uart.h)
 *    NOTE: uart0Init(UART_BAUD(9600), UART_8N1, UART_FIFO_8); 
 */
void uart0Init(uint16_t baud, uint8_t mode, uint8_t fmode)
{
     2c4:	b570      	push	{r4, r5, r6, lr}
  // setup Pin Function Select Register (Pin Connect Block) 
  // make sure old values of Bits 0-4 are masked out and
  // set them according to UART0-Pin-Selection
  PINSEL0 = (PINSEL0 & ~UART0_PINMASK) | UART0_PINSEL;
     2c6:	4d12      	ldr	r5, [pc, #72]	(310 <.text+0x310>)
     2c8:	682b      	ldr	r3, [r5, #0]
     2ca:	240f      	mov	r4, #15
     2cc:	43a3      	bic	r3, r4
     2ce:	2405      	mov	r4, #5
     2d0:	4323      	orr	r3, r4
     2d2:	602b      	str	r3, [r5, #0]

  U0IER = 0x00;             // disable all interrupts
     2d4:	4e0f      	ldr	r6, [pc, #60]	(314 <.text+0x314>)
  U0IIR = 0x00;             // clear interrupt ID register
     2d6:	4b10      	ldr	r3, [pc, #64]	(318 <.text+0x318>)
     2d8:	2400      	mov	r4, #0
     2da:	7034      	strb	r4, [r6, #0]
     2dc:	469c      	mov	ip, r3
     2de:	701c      	strb	r4, [r3, #0]
  U0LSR = 0x00;             // clear line status register
     2e0:	330c      	add	r3, #12
     2e2:	701c      	strb	r4, [r3, #0]

  // set the baudrate - DLAB must be set to access DLL/DLM
  U0LCR = (1<<UART0_LCR_DLAB); // set divisor latches (DLAB)
     2e4:	4d0d      	ldr	r5, [pc, #52]	(31c <.text+0x31c>)
     2e6:	2380      	mov	r3, #128
     2e8:	425b      	neg	r3, r3
     2ea:	702b      	strb	r3, [r5, #0]
  U0DLL = (uint8_t)baud;         // set for baud low byte
     2ec:	4c0c      	ldr	r4, [pc, #48]	(320 <.text+0x320>)
     2ee:	0603      	lsl	r3, r0, #24
     2f0:	0e1b      	lsr	r3, r3, #24
     2f2:	7023      	strb	r3, [r4, #0]
     2f4:	0612      	lsl	r2, r2, #24
  U0DLM = (uint8_t)(baud >> 8);  // set for baud high byte
  
  // set the number of characters and other
  // user specified operating parameters
  // Databits, Parity, Stopbits - Settings in Line Control Register
  U0LCR = (mode & ~(1<<UART0_LCR_DLAB)); // clear DLAB "on-the-fly"
     2f6:	237f      	mov	r3, #127
     2f8:	0400      	lsl	r0, r0, #16
     2fa:	4019      	and	r1, r3
     2fc:	0e12      	lsr	r2, r2, #24
     2fe:	0e00      	lsr	r0, r0, #24
  // setup FIFO Control Register (fifo-enabled + xx trig) 
  U0FCR = fmode;
     300:	4663      	mov	r3, ip
     302:	7030      	strb	r0, [r6, #0]
     304:	7029      	strb	r1, [r5, #0]
     306:	701a      	strb	r2, [r3, #0]
}
     308:	bc70      	pop	{r4, r5, r6}
     30a:	bc01      	pop	{r0}
     30c:	4700      	bx	r0
     30e:	0000      	lsl	r0, r0, #0
     310:	c000      	stmia	r0!,{}
     312:	e002      	b	31a <.text+0x31a>
     314:	c004      	stmia	r0!,{r2}
     316:	e000      	b	31a <.text+0x31a>
     318:	c008      	stmia	r0!,{r3}
     31a:	e000      	b	31e <.text+0x31e>
     31c:	c00c      	stmia	r0!,{r2, r3}
     31e:	e000      	b	322 <.text+0x322>
     320:	c000      	stmia	r0!,{}
     322:	e000      	b	326 <uart0Putch+0x2>

00000324 <uart0Putch>:

int uart0Putch(int ch)
{
  while (!(U0LSR & ULSR_THRE))          // wait for TX buffer to empty
     324:	4b04      	ldr	r3, [pc, #16]	(338 <.text+0x338>)
     326:	781a      	ldrb	r2, [r3, #0]
     328:	2320      	mov	r3, #32
     32a:	4213      	tst	r3, r2
     32c:	d0fa      	beq	324 <uart0Putch>
    continue;                           // also either WDOG() or swap()

  U0THR = (uint8_t)ch;  // put char to Transmit Holding Register
     32e:	4b03      	ldr	r3, [pc, #12]	(33c <.text+0x33c>)
     330:	0600      	lsl	r0, r0, #24
     332:	0e00      	lsr	r0, r0, #24
     334:	7018      	strb	r0, [r3, #0]
  return (uint8_t)ch;      // return char ("stdio-compatible"?)
}
     336:	4770      	bx	lr
     338:	c014      	stmia	r0!,{r2, r4}
     33a:	e000      	b	33e <.text+0x33e>
     33c:	c000      	stmia	r0!,{}
     33e:	e000      	b	342 <uart0Puts+0x2>

00000340 <uart0Puts>:

const char *uart0Puts(const char *string)
{
     340:	b510      	push	{r4, lr}
	char ch;
        IOCLR0=(1<<16);
     342:	2380      	mov	r3, #128
     344:	4a0a      	ldr	r2, [pc, #40]	(370 <.text+0x370>)
     346:	025b      	lsl	r3, r3, #9
     348:	1c04      	mov	r4, r0		(add r4, r0, #0)
     34a:	6013      	str	r3, [r2, #0]
     34c:	e004      	b	358 <uart0Puts+0x18>
	
	while ((ch = *string)) {
		if (uart0Putch(ch)<0) break;
     34e:	ffe9f7ff 	bl	324 <uart0Putch>
     352:	2800      	cmp	r0, #0
     354:	db03      	blt	35e <uart0Puts+0x1e>
		string++;
     356:	3401      	add	r4, #1
     358:	7820      	ldrb	r0, [r4, #0]
     35a:	2800      	cmp	r0, #0
     35c:	d1f7      	bne	34e <uart0Puts+0xe>
	}
	
        IOCLR0=(1<<16);
     35e:	4a04      	ldr	r2, [pc, #16]	(370 <.text+0x370>)
     360:	2380      	mov	r3, #128
     362:	025b      	lsl	r3, r3, #9
	return string;
}
     364:	1c20      	mov	r0, r4		(add r0, r4, #0)
     366:	6013      	str	r3, [r2, #0]
     368:	bc10      	pop	{r4}
     36a:	bc02      	pop	{r1}
     36c:	4708      	bx	r1
     36e:	0000      	lsl	r0, r0, #0
     370:	800c      	strh	r4, [r1, #0]
     372:	e002      	b	37a <uart0TxEmpty+0x6>

00000374 <uart0TxEmpty>:

int uart0TxEmpty(void)
{
  return (U0LSR & (ULSR_THRE | ULSR_TEMT)) == (ULSR_THRE | ULSR_TEMT);
     374:	4b04      	ldr	r3, [pc, #16]	(388 <.text+0x388>)
     376:	781a      	ldrb	r2, [r3, #0]
     378:	2360      	mov	r3, #96
     37a:	4013      	and	r3, r2
     37c:	2000      	mov	r0, #0
     37e:	2b60      	cmp	r3, #96
     380:	d100      	bne	384 <uart0TxEmpty+0x10>
     382:	2001      	mov	r0, #1
}
     384:	4770      	bx	lr
     386:	0000      	lsl	r0, r0, #0
     388:	c014      	stmia	r0!,{r2, r4}
     38a:	e000      	b	38e <uart0TxFlush+0x2>

0000038c <uart0TxFlush>:

void uart0TxFlush(void)
{
  U0FCR |= UFCR_TX_FIFO_RESET;          // clear the TX fifo
     38c:	4b04      	ldr	r3, [pc, #16]	(3a0 <.text+0x3a0>)
     38e:	781a      	ldrb	r2, [r3, #0]
     390:	0612      	lsl	r2, r2, #24
     392:	2104      	mov	r1, #4
     394:	0e12      	lsr	r2, r2, #24
     396:	430a      	orr	r2, r1
     398:	0612      	lsl	r2, r2, #24
     39a:	0e12      	lsr	r2, r2, #24
     39c:	701a      	strb	r2, [r3, #0]
}
     39e:	4770      	bx	lr
     3a0:	c008      	stmia	r0!,{r3}
     3a2:	e000      	b	3a6 <uart0Getch+0x2>

000003a4 <uart0Getch>:


/* Returns: character on success, -1 if no character is available */
int uart0Getch(void)
{
	if (U0LSR & ULSR_RDR)                 // check if character is available
     3a4:	4b06      	ldr	r3, [pc, #24]	(3c0 <.text+0x3c0>)
     3a6:	781a      	ldrb	r2, [r3, #0]
     3a8:	2301      	mov	r3, #1
     3aa:	4213      	tst	r3, r2
     3ac:	d102      	bne	3b4 <uart0Getch+0x10>
     3ae:	2001      	mov	r0, #1
     3b0:	4240      	neg	r0, r0
     3b2:	e003      	b	3bc <uart0Getch+0x18>
		return U0RBR;                     // return character
     3b4:	4b03      	ldr	r3, [pc, #12]	(3c4 <.text+0x3c4>)
     3b6:	781b      	ldrb	r3, [r3, #0]
     3b8:	061b      	lsl	r3, r3, #24
     3ba:	0e18      	lsr	r0, r3, #24

	return -1;
}
     3bc:	4770      	bx	lr
     3be:	0000      	lsl	r0, r0, #0
     3c0:	c014      	stmia	r0!,{r2, r4}
     3c2:	e000      	b	3c6 <.text+0x3c6>
     3c4:	c000      	stmia	r0!,{}
     3c6:	e000      	b	3ca <uart0GetchW+0x2>

000003c8 <uart0GetchW>:

/* Returns: character on success, waits */
int uart0GetchW(void)
{
	while ( !(U0LSR & ULSR_RDR) ); // wait for character 
     3c8:	4b04      	ldr	r3, [pc, #16]	(3dc <.text+0x3dc>)
     3ca:	781a      	ldrb	r2, [r3, #0]
     3cc:	2301      	mov	r3, #1
     3ce:	4213      	tst	r3, r2
     3d0:	d0fa      	beq	3c8 <uart0GetchW>
	return U0RBR;                // return character
     3d2:	4b03      	ldr	r3, [pc, #12]	(3e0 <.text+0x3e0>)
     3d4:	7818      	ldrb	r0, [r3, #0]
     3d6:	0600      	lsl	r0, r0, #24
     3d8:	0e00      	lsr	r0, r0, #24
}
     3da:	4770      	bx	lr
     3dc:	c014      	stmia	r0!,{r2, r4}
     3de:	e000      	b	3e2 <.text+0x3e2>
     3e0:	c000      	stmia	r0!,{}
     3e2:	e000      	b	3e6 <iprintf+0x2>

000003e4 <iprintf>:
     3e4:	b40f      	push	{r0, r1, r2, r3}
     3e6:	b500      	push	{lr}
     3e8:	4b06      	ldr	r3, [pc, #24]	(404 <.text+0x404>)
     3ea:	b081      	sub	sp, #4
     3ec:	aa02      	add	r2, sp, #8
     3ee:	681b      	ldr	r3, [r3, #0]
     3f0:	ca02      	ldmia	r2!,{r1}
     3f2:	6898      	ldr	r0, [r3, #8]
     3f4:	9200      	str	r2, [sp, #0]
     3f6:	febdf000 	bl	1174 <vfiprintf>
     3fa:	b001      	add	sp, #4
     3fc:	bc08      	pop	{r3}
     3fe:	b004      	add	sp, #16
     400:	4718      	bx	r3
     402:	0000      	lsl	r0, r0, #0
     404:	0400      	lsl	r0, r0, #16
     406:	4000      	and	r0, r0

00000408 <_iprintf_r>:
     408:	b40e      	push	{r1, r2, r3}
     40a:	b500      	push	{lr}
     40c:	b081      	sub	sp, #4
     40e:	ab02      	add	r3, sp, #8
     410:	cb04      	ldmia	r3!,{r2}
     412:	6881      	ldr	r1, [r0, #8]
     414:	9300      	str	r3, [sp, #0]
     416:	f849f000 	bl	4ac <_vfiprintf_r>
     41a:	b001      	add	sp, #4
     41c:	bc08      	pop	{r3}
     41e:	b003      	add	sp, #12
     420:	4718      	bx	r3
     422:	46c0      	nop			(mov r8, r8)

00000424 <memcpy>:
     424:	b530      	push	{r4, r5, lr}
     426:	1c05      	mov	r5, r0		(add r5, r0, #0)
     428:	4684      	mov	ip, r0
     42a:	1c14      	mov	r4, r2		(add r4, r2, #0)
     42c:	1c10      	mov	r0, r2		(add r0, r2, #0)
     42e:	2a0f      	cmp	r2, #15
     430:	d904      	bls	43c <memcpy+0x18>
     432:	1c0a      	mov	r2, r1		(add r2, r1, #0)
     434:	432a      	orr	r2, r5
     436:	2303      	mov	r3, #3
     438:	421a      	tst	r2, r3
     43a:	d00e      	beq	45a <memcpy+0x36>
     43c:	1e63      	sub	r3, r4, #1
     43e:	d308      	bcc	452 <memcpy+0x2e>
     440:	4662      	mov	r2, ip
     442:	189b      	add	r3, r3, r2
     444:	1c58      	add	r0, r3, #1
     446:	780b      	ldrb	r3, [r1, #0]
     448:	7013      	strb	r3, [r2, #0]
     44a:	3201      	add	r2, #1
     44c:	3101      	add	r1, #1
     44e:	4282      	cmp	r2, r0
     450:	d1f9      	bne	446 <memcpy+0x22>
     452:	1c28      	mov	r0, r5		(add r0, r5, #0)
     454:	bc30      	pop	{r4, r5}
     456:	bc02      	pop	{r1}
     458:	4708      	bx	r1
     45a:	1c2a      	mov	r2, r5		(add r2, r5, #0)
     45c:	680b      	ldr	r3, [r1, #0]
     45e:	6013      	str	r3, [r2, #0]
     460:	684b      	ldr	r3, [r1, #4]
     462:	6053      	str	r3, [r2, #4]
     464:	688b      	ldr	r3, [r1, #8]
     466:	6093      	str	r3, [r2, #8]
     468:	68cb      	ldr	r3, [r1, #12]
     46a:	3810      	sub	r0, #16
     46c:	60d3      	str	r3, [r2, #12]
     46e:	3110      	add	r1, #16
     470:	3210      	add	r2, #16
     472:	280f      	cmp	r0, #15
     474:	d8f2      	bhi	45c <memcpy+0x38>
     476:	1c04      	mov	r4, r0		(add r4, r0, #0)
     478:	2803      	cmp	r0, #3
     47a:	d905      	bls	488 <memcpy+0x64>
     47c:	c908      	ldmia	r1!,{r3}
     47e:	3804      	sub	r0, #4
     480:	c208      	stmia	r2!,{r3}
     482:	2803      	cmp	r0, #3
     484:	d8fa      	bhi	47c <memcpy+0x58>
     486:	1c04      	mov	r4, r0		(add r4, r0, #0)
     488:	4694      	mov	ip, r2
     48a:	e7d7      	b	43c <memcpy+0x18>

0000048c <__sprint>:
     48c:	b510      	push	{r4, lr}
     48e:	688b      	ldr	r3, [r1, #8]
     490:	1c0c      	mov	r4, r1		(add r4, r1, #0)
     492:	2b00      	cmp	r3, #0
     494:	d104      	bne	4a0 <__sprint+0x14>
     496:	604b      	str	r3, [r1, #4]
     498:	2000      	mov	r0, #0
     49a:	bc10      	pop	{r4}
     49c:	bc02      	pop	{r1}
     49e:	4708      	bx	r1
     4a0:	fb22f001 	bl	1ae8 <__sfvwrite>
     4a4:	2300      	mov	r3, #0
     4a6:	60a3      	str	r3, [r4, #8]
     4a8:	6063      	str	r3, [r4, #4]
     4aa:	e7f6      	b	49a <__sprint+0xe>

000004ac <_vfiprintf_r>:
     4ac:	b5f0      	push	{r4, r5, r6, r7, lr}
     4ae:	465f      	mov	r7, fp
     4b0:	4656      	mov	r6, sl
     4b2:	464d      	mov	r5, r9
     4b4:	4644      	mov	r4, r8
     4b6:	b4f0      	push	{r4, r5, r6, r7}
     4b8:	4cd1      	ldr	r4, [pc, #836]	(800 <STACK_SIZE>)
     4ba:	44a5      	add	sp, r4
     4bc:	9003      	str	r0, [sp, #12]
     4be:	9102      	str	r1, [sp, #8]
     4c0:	1c14      	mov	r4, r2		(add r4, r2, #0)
     4c2:	9301      	str	r3, [sp, #4]
     4c4:	2800      	cmp	r0, #0
     4c6:	d003      	beq	4d0 <_vfiprintf_r+0x24>
     4c8:	6b83      	ldr	r3, [r0, #56]
     4ca:	2b00      	cmp	r3, #0
     4cc:	d100      	bne	4d0 <_vfiprintf_r+0x24>
     4ce:	e37e      	b	bce <.text+0xbce>
     4d0:	9802      	ldr	r0, [sp, #8]
     4d2:	8982      	ldrh	r2, [r0, #12]
     4d4:	2308      	mov	r3, #8
     4d6:	4213      	tst	r3, r2
     4d8:	d100      	bne	4dc <_vfiprintf_r+0x30>
     4da:	e37b      	b	bd4 <.text+0xbd4>
     4dc:	6903      	ldr	r3, [r0, #16]
     4de:	2b00      	cmp	r3, #0
     4e0:	d100      	bne	4e4 <_vfiprintf_r+0x38>
     4e2:	e377      	b	bd4 <.text+0xbd4>
     4e4:	0413      	lsl	r3, r2, #16
     4e6:	0c1a      	lsr	r2, r3, #16
     4e8:	231a      	mov	r3, #26
     4ea:	4013      	and	r3, r2
     4ec:	2b0a      	cmp	r3, #10
     4ee:	d100      	bne	4f2 <_vfiprintf_r+0x46>
     4f0:	e328      	b	b44 <.text+0xb44>
     4f2:	49c4      	ldr	r1, [pc, #784]	(804 <STACK_SIZE+0x4>)
     4f4:	4bc4      	ldr	r3, [pc, #784]	(808 <STACK_SIZE+0x8>)
     4f6:	48c5      	ldr	r0, [pc, #788]	(80c <STACK_SIZE+0xc>)
     4f8:	229f      	mov	r2, #159
     4fa:	4469      	add	r1, sp
     4fc:	2500      	mov	r5, #0
     4fe:	00d2      	lsl	r2, r2, #3
     500:	446b      	add	r3, sp
     502:	4468      	add	r0, sp
     504:	600d      	str	r5, [r1, #0]
     506:	446a      	add	r2, sp
     508:	2100      	mov	r1, #0
     50a:	6003      	str	r3, [r0, #0]
     50c:	6011      	str	r1, [r2, #0]
     50e:	910a      	str	r1, [sp, #40]
     510:	910b      	str	r1, [sp, #44]
     512:	9106      	str	r1, [sp, #24]
     514:	46a2      	mov	sl, r4
     516:	1c1f      	mov	r7, r3		(add r7, r3, #0)
     518:	4650      	mov	r0, sl
     51a:	7803      	ldrb	r3, [r0, #0]
     51c:	2b00      	cmp	r3, #0
     51e:	d120      	bne	562 <_vfiprintf_r+0xb6>
     520:	4654      	mov	r4, sl
     522:	7823      	ldrb	r3, [r4, #0]
     524:	2b00      	cmp	r3, #0
     526:	d101      	bne	52c <_vfiprintf_r+0x80>
     528:	fd74f000 	bl	1014 <.text+0x1014>
     52c:	49b8      	ldr	r1, [pc, #736]	(810 <STACK_SIZE+0x10>)
     52e:	2300      	mov	r3, #0
     530:	4469      	add	r1, sp
     532:	700b      	strb	r3, [r1, #0]
     534:	2301      	mov	r3, #1
     536:	2200      	mov	r2, #0
     538:	425b      	neg	r3, r3
     53a:	9205      	str	r2, [sp, #20]
     53c:	9207      	str	r2, [sp, #28]
     53e:	9308      	str	r3, [sp, #32]
     540:	1c60      	add	r0, r4, #1
     542:	9d01      	ldr	r5, [sp, #4]
     544:	7862      	ldrb	r2, [r4, #1]
     546:	4682      	mov	sl, r0
     548:	0613      	lsl	r3, r2, #24
     54a:	0e1b      	lsr	r3, r3, #24
     54c:	2101      	mov	r1, #1
     54e:	4699      	mov	r9, r3
     550:	448a      	add	sl, r1
     552:	464b      	mov	r3, r9
     554:	3b20      	sub	r3, #32
     556:	2b58      	cmp	r3, #88
     558:	d827      	bhi	5aa <_vfiprintf_r+0xfe>
     55a:	4aae      	ldr	r2, [pc, #696]	(814 <STACK_SIZE+0x14>)
     55c:	009b      	lsl	r3, r3, #2
     55e:	589b      	ldr	r3, [r3, r2]
     560:	469f      	mov	pc, r3
     562:	2b25      	cmp	r3, #37
     564:	d0dc      	beq	520 <_vfiprintf_r+0x74>
     566:	4654      	mov	r4, sl
     568:	3401      	add	r4, #1
     56a:	7823      	ldrb	r3, [r4, #0]
     56c:	2b00      	cmp	r3, #0
     56e:	d100      	bne	572 <_vfiprintf_r+0xc6>
     570:	e21b      	b	9aa <.text+0x9aa>
     572:	2b25      	cmp	r3, #37
     574:	d1f8      	bne	568 <_vfiprintf_r+0xbc>
     576:	4651      	mov	r1, sl
     578:	1a66      	sub	r6, r4, r1
     57a:	2e00      	cmp	r6, #0
     57c:	d0d1      	beq	522 <_vfiprintf_r+0x76>
     57e:	48a1      	ldr	r0, [pc, #644]	(804 <STACK_SIZE+0x4>)
     580:	229f      	mov	r2, #159
     582:	00d2      	lsl	r2, r2, #3
     584:	4468      	add	r0, sp
     586:	446a      	add	r2, sp
     588:	6805      	ldr	r5, [r0, #0]
     58a:	6811      	ldr	r1, [r2, #0]
     58c:	4653      	mov	r3, sl
     58e:	19ad      	add	r5, r5, r6
     590:	3101      	add	r1, #1
     592:	603b      	str	r3, [r7, #0]
     594:	607e      	str	r6, [r7, #4]
     596:	6005      	str	r5, [r0, #0]
     598:	3708      	add	r7, #8
     59a:	6011      	str	r1, [r2, #0]
     59c:	2907      	cmp	r1, #7
     59e:	dd00      	ble	5a2 <_vfiprintf_r+0xf6>
     5a0:	e2b6      	b	b10 <.text+0xb10>
     5a2:	9b06      	ldr	r3, [sp, #24]
     5a4:	199b      	add	r3, r3, r6
     5a6:	9306      	str	r3, [sp, #24]
     5a8:	e7bb      	b	522 <_vfiprintf_r+0x76>
     5aa:	464a      	mov	r2, r9
     5ac:	2a00      	cmp	r2, #0
     5ae:	d101      	bne	5b4 <_vfiprintf_r+0x108>
     5b0:	fd30f000 	bl	1014 <.text+0x1014>
     5b4:	4a98      	ldr	r2, [pc, #608]	(818 <STACK_SIZE+0x18>)
     5b6:	4896      	ldr	r0, [pc, #600]	(810 <STACK_SIZE+0x10>)
     5b8:	446a      	add	r2, sp
     5ba:	464b      	mov	r3, r9
     5bc:	7013      	strb	r3, [r2, #0]
     5be:	4468      	add	r0, sp
     5c0:	2300      	mov	r3, #0
     5c2:	2100      	mov	r1, #0
     5c4:	7003      	strb	r3, [r0, #0]
     5c6:	4693      	mov	fp, r2
     5c8:	9501      	str	r5, [sp, #4]
     5ca:	2201      	mov	r2, #1
     5cc:	9109      	str	r1, [sp, #36]
     5ce:	4690      	mov	r8, r2
     5d0:	2601      	mov	r6, #1
     5d2:	488f      	ldr	r0, [pc, #572]	(810 <STACK_SIZE+0x10>)
     5d4:	4468      	add	r0, sp
     5d6:	7803      	ldrb	r3, [r0, #0]
     5d8:	2b00      	cmp	r3, #0
     5da:	d100      	bne	5de <_vfiprintf_r+0x132>
     5dc:	e107      	b	7ee <_vfiprintf_r+0x342>
     5de:	3601      	add	r6, #1
     5e0:	9a05      	ldr	r2, [sp, #20]
     5e2:	2384      	mov	r3, #132
     5e4:	401a      	and	r2, r3
     5e6:	9204      	str	r2, [sp, #16]
     5e8:	d000      	beq	5ec <_vfiprintf_r+0x140>
     5ea:	e09c      	b	726 <_vfiprintf_r+0x27a>
     5ec:	9b07      	ldr	r3, [sp, #28]
     5ee:	1b9c      	sub	r4, r3, r6
     5f0:	2c00      	cmp	r4, #0
     5f2:	dc00      	bgt	5f6 <_vfiprintf_r+0x14a>
     5f4:	e217      	b	a26 <.text+0xa26>
     5f6:	2c10      	cmp	r4, #16
     5f8:	dd00      	ble	5fc <_vfiprintf_r+0x150>
     5fa:	e17b      	b	8f4 <.text+0x8f4>
     5fc:	4b81      	ldr	r3, [pc, #516]	(804 <STACK_SIZE+0x4>)
     5fe:	209f      	mov	r0, #159
     600:	00c0      	lsl	r0, r0, #3
     602:	4468      	add	r0, sp
     604:	446b      	add	r3, sp
     606:	6801      	ldr	r1, [r0, #0]
     608:	681d      	ldr	r5, [r3, #0]
     60a:	4884      	ldr	r0, [pc, #528]	(81c <STACK_SIZE+0x1c>)
     60c:	6038      	str	r0, [r7, #0]
     60e:	4b7d      	ldr	r3, [pc, #500]	(804 <STACK_SIZE+0x4>)
     610:	209f      	mov	r0, #159
     612:	00c0      	lsl	r0, r0, #3
     614:	192d      	add	r5, r5, r4
     616:	446b      	add	r3, sp
     618:	3101      	add	r1, #1
     61a:	4468      	add	r0, sp
     61c:	607c      	str	r4, [r7, #4]
     61e:	601d      	str	r5, [r3, #0]
     620:	3708      	add	r7, #8
     622:	6001      	str	r1, [r0, #0]
     624:	2907      	cmp	r1, #7
     626:	dd00      	ble	62a <_vfiprintf_r+0x17e>
     628:	e1eb      	b	a02 <.text+0xa02>
     62a:	4a79      	ldr	r2, [pc, #484]	(810 <STACK_SIZE+0x10>)
     62c:	446a      	add	r2, sp
     62e:	7813      	ldrb	r3, [r2, #0]
     630:	2b00      	cmp	r3, #0
     632:	d100      	bne	636 <_vfiprintf_r+0x18a>
     634:	e084      	b	740 <_vfiprintf_r+0x294>
     636:	2301      	mov	r3, #1
     638:	607b      	str	r3, [r7, #4]
     63a:	209f      	mov	r0, #159
     63c:	4b71      	ldr	r3, [pc, #452]	(804 <STACK_SIZE+0x4>)
     63e:	00c0      	lsl	r0, r0, #3
     640:	3501      	add	r5, #1
     642:	446b      	add	r3, sp
     644:	3101      	add	r1, #1
     646:	4468      	add	r0, sp
     648:	603a      	str	r2, [r7, #0]
     64a:	601d      	str	r5, [r3, #0]
     64c:	3708      	add	r7, #8
     64e:	6001      	str	r1, [r0, #0]
     650:	2907      	cmp	r1, #7
     652:	dd00      	ble	656 <_vfiprintf_r+0x1aa>
     654:	e08d      	b	772 <_vfiprintf_r+0x2c6>
     656:	9b04      	ldr	r3, [sp, #16]
     658:	2b80      	cmp	r3, #128
     65a:	d100      	bne	65e <_vfiprintf_r+0x1b2>
     65c:	e09e      	b	79c <_vfiprintf_r+0x2f0>
     65e:	9b09      	ldr	r3, [sp, #36]
     660:	4640      	mov	r0, r8
     662:	1a1c      	sub	r4, r3, r0
     664:	2c00      	cmp	r4, #0
     666:	dd12      	ble	68e <_vfiprintf_r+0x1e2>
     668:	2c10      	cmp	r4, #16
     66a:	dd00      	ble	66e <_vfiprintf_r+0x1c2>
     66c:	e0c5      	b	7fa <_vfiprintf_r+0x34e>
     66e:	4a6c      	ldr	r2, [pc, #432]	(820 <STACK_SIZE+0x20>)
     670:	4b64      	ldr	r3, [pc, #400]	(804 <STACK_SIZE+0x4>)
     672:	209f      	mov	r0, #159
     674:	00c0      	lsl	r0, r0, #3
     676:	192d      	add	r5, r5, r4
     678:	446b      	add	r3, sp
     67a:	3101      	add	r1, #1
     67c:	4468      	add	r0, sp
     67e:	603a      	str	r2, [r7, #0]
     680:	607c      	str	r4, [r7, #4]
     682:	601d      	str	r5, [r3, #0]
     684:	3708      	add	r7, #8
     686:	6001      	str	r1, [r0, #0]
     688:	2907      	cmp	r1, #7
     68a:	dd00      	ble	68e <_vfiprintf_r+0x1e2>
     68c:	e121      	b	8d2 <.text+0x8d2>
     68e:	465b      	mov	r3, fp
     690:	4a5c      	ldr	r2, [pc, #368]	(804 <STACK_SIZE+0x4>)
     692:	603b      	str	r3, [r7, #0]
     694:	239f      	mov	r3, #159
     696:	446a      	add	r2, sp
     698:	4445      	add	r5, r8
     69a:	00db      	lsl	r3, r3, #3
     69c:	4640      	mov	r0, r8
     69e:	6015      	str	r5, [r2, #0]
     6a0:	3101      	add	r1, #1
     6a2:	1c3a      	mov	r2, r7		(add r2, r7, #0)
     6a4:	446b      	add	r3, sp
     6a6:	6078      	str	r0, [r7, #4]
     6a8:	3208      	add	r2, #8
     6aa:	6019      	str	r1, [r3, #0]
     6ac:	2907      	cmp	r1, #7
     6ae:	dd00      	ble	6b2 <_vfiprintf_r+0x206>
     6b0:	e0e2      	b	878 <.text+0x878>
     6b2:	9905      	ldr	r1, [sp, #20]
     6b4:	0749      	lsl	r1, r1, #29
     6b6:	d519      	bpl	6ec <_vfiprintf_r+0x240>
     6b8:	9b07      	ldr	r3, [sp, #28]
     6ba:	1b9c      	sub	r4, r3, r6
     6bc:	2c00      	cmp	r4, #0
     6be:	dd15      	ble	6ec <_vfiprintf_r+0x240>
     6c0:	2c10      	cmp	r4, #16
     6c2:	dd00      	ble	6c6 <_vfiprintf_r+0x21a>
     6c4:	e144      	b	950 <.text+0x950>
     6c6:	239f      	mov	r3, #159
     6c8:	00db      	lsl	r3, r3, #3
     6ca:	446b      	add	r3, sp
     6cc:	6819      	ldr	r1, [r3, #0]
     6ce:	4853      	ldr	r0, [pc, #332]	(81c <STACK_SIZE+0x1c>)
     6d0:	6010      	str	r0, [r2, #0]
     6d2:	6054      	str	r4, [r2, #4]
     6d4:	484b      	ldr	r0, [pc, #300]	(804 <STACK_SIZE+0x4>)
     6d6:	229f      	mov	r2, #159
     6d8:	00d2      	lsl	r2, r2, #3
     6da:	192d      	add	r5, r5, r4
     6dc:	4468      	add	r0, sp
     6de:	3101      	add	r1, #1
     6e0:	446a      	add	r2, sp
     6e2:	6005      	str	r5, [r0, #0]
     6e4:	6011      	str	r1, [r2, #0]
     6e6:	2907      	cmp	r1, #7
     6e8:	dd00      	ble	6ec <_vfiprintf_r+0x240>
     6ea:	e1a4      	b	a36 <.text+0xa36>
     6ec:	9907      	ldr	r1, [sp, #28]
     6ee:	1c30      	mov	r0, r6		(add r0, r6, #0)
     6f0:	428e      	cmp	r6, r1
     6f2:	da00      	bge	6f6 <_vfiprintf_r+0x24a>
     6f4:	1c08      	mov	r0, r1		(add r0, r1, #0)
     6f6:	9a06      	ldr	r2, [sp, #24]
     6f8:	1812      	add	r2, r2, r0
     6fa:	9206      	str	r2, [sp, #24]
     6fc:	2d00      	cmp	r5, #0
     6fe:	d000      	beq	702 <_vfiprintf_r+0x256>
     700:	e0c7      	b	892 <.text+0x892>
     702:	239f      	mov	r3, #159
     704:	00db      	lsl	r3, r3, #3
     706:	980b      	ldr	r0, [sp, #44]
     708:	2100      	mov	r1, #0
     70a:	446b      	add	r3, sp
     70c:	6019      	str	r1, [r3, #0]
     70e:	2800      	cmp	r0, #0
     710:	d100      	bne	714 <_vfiprintf_r+0x268>
     712:	e0ae      	b	872 <.text+0x872>
     714:	990b      	ldr	r1, [sp, #44]
     716:	9803      	ldr	r0, [sp, #12]
     718:	f906f001 	bl	1928 <_free_r>
     71c:	4f3a      	ldr	r7, [pc, #232]	(808 <STACK_SIZE+0x8>)
     71e:	2100      	mov	r1, #0
     720:	446f      	add	r7, sp
     722:	910b      	str	r1, [sp, #44]
     724:	e6f8      	b	518 <_vfiprintf_r+0x6c>
     726:	4b37      	ldr	r3, [pc, #220]	(804 <STACK_SIZE+0x4>)
     728:	4a39      	ldr	r2, [pc, #228]	(810 <STACK_SIZE+0x10>)
     72a:	446b      	add	r3, sp
     72c:	209f      	mov	r0, #159
     72e:	446a      	add	r2, sp
     730:	681d      	ldr	r5, [r3, #0]
     732:	00c0      	lsl	r0, r0, #3
     734:	7813      	ldrb	r3, [r2, #0]
     736:	4468      	add	r0, sp
     738:	6801      	ldr	r1, [r0, #0]
     73a:	2b00      	cmp	r3, #0
     73c:	d000      	beq	740 <_vfiprintf_r+0x294>
     73e:	e77a      	b	636 <_vfiprintf_r+0x18a>
     740:	9b05      	ldr	r3, [sp, #20]
     742:	2002      	mov	r0, #2
     744:	4203      	tst	r3, r0
     746:	d086      	beq	656 <_vfiprintf_r+0x1aa>
     748:	4b36      	ldr	r3, [pc, #216]	(824 <STACK_SIZE+0x24>)
     74a:	2230      	mov	r2, #48
     74c:	446b      	add	r3, sp
     74e:	701a      	strb	r2, [r3, #0]
     750:	464a      	mov	r2, r9
     752:	705a      	strb	r2, [r3, #1]
     754:	603b      	str	r3, [r7, #0]
     756:	6078      	str	r0, [r7, #4]
     758:	4b2a      	ldr	r3, [pc, #168]	(804 <STACK_SIZE+0x4>)
     75a:	209f      	mov	r0, #159
     75c:	00c0      	lsl	r0, r0, #3
     75e:	3502      	add	r5, #2
     760:	446b      	add	r3, sp
     762:	3101      	add	r1, #1
     764:	4468      	add	r0, sp
     766:	601d      	str	r5, [r3, #0]
     768:	3708      	add	r7, #8
     76a:	6001      	str	r1, [r0, #0]
     76c:	2907      	cmp	r1, #7
     76e:	dc00      	bgt	772 <_vfiprintf_r+0x2c6>
     770:	e771      	b	656 <_vfiprintf_r+0x1aa>
     772:	4926      	ldr	r1, [pc, #152]	(80c <STACK_SIZE+0xc>)
     774:	9802      	ldr	r0, [sp, #8]
     776:	4469      	add	r1, sp
     778:	fe88f7ff 	bl	48c <__sprint>
     77c:	2800      	cmp	r0, #0
     77e:	d000      	beq	782 <_vfiprintf_r+0x2d6>
     780:	e08f      	b	8a2 <.text+0x8a2>
     782:	4920      	ldr	r1, [pc, #128]	(804 <STACK_SIZE+0x4>)
     784:	229f      	mov	r2, #159
     786:	4f20      	ldr	r7, [pc, #128]	(808 <STACK_SIZE+0x8>)
     788:	00d2      	lsl	r2, r2, #3
     78a:	9b04      	ldr	r3, [sp, #16]
     78c:	4469      	add	r1, sp
     78e:	446a      	add	r2, sp
     790:	680d      	ldr	r5, [r1, #0]
     792:	446f      	add	r7, sp
     794:	6811      	ldr	r1, [r2, #0]
     796:	2b80      	cmp	r3, #128
     798:	d000      	beq	79c <_vfiprintf_r+0x2f0>
     79a:	e760      	b	65e <_vfiprintf_r+0x1b2>
     79c:	9807      	ldr	r0, [sp, #28]
     79e:	1b84      	sub	r4, r0, r6
     7a0:	2c00      	cmp	r4, #0
     7a2:	dc00      	bgt	7a6 <_vfiprintf_r+0x2fa>
     7a4:	e75b      	b	65e <_vfiprintf_r+0x1b2>
     7a6:	2c10      	cmp	r4, #16
     7a8:	dd00      	ble	7ac <_vfiprintf_r+0x300>
     7aa:	e101      	b	9b0 <.text+0x9b0>
     7ac:	4a1c      	ldr	r2, [pc, #112]	(820 <STACK_SIZE+0x20>)
     7ae:	4b15      	ldr	r3, [pc, #84]	(804 <STACK_SIZE+0x4>)
     7b0:	209f      	mov	r0, #159
     7b2:	00c0      	lsl	r0, r0, #3
     7b4:	192d      	add	r5, r5, r4
     7b6:	446b      	add	r3, sp
     7b8:	3101      	add	r1, #1
     7ba:	4468      	add	r0, sp
     7bc:	603a      	str	r2, [r7, #0]
     7be:	607c      	str	r4, [r7, #4]
     7c0:	601d      	str	r5, [r3, #0]
     7c2:	3708      	add	r7, #8
     7c4:	6001      	str	r1, [r0, #0]
     7c6:	2907      	cmp	r1, #7
     7c8:	dc00      	bgt	7cc <_vfiprintf_r+0x320>
     7ca:	e748      	b	65e <_vfiprintf_r+0x1b2>
     7cc:	490f      	ldr	r1, [pc, #60]	(80c <STACK_SIZE+0xc>)
     7ce:	9802      	ldr	r0, [sp, #8]
     7d0:	4469      	add	r1, sp
     7d2:	fe5bf7ff 	bl	48c <__sprint>
     7d6:	2800      	cmp	r0, #0
     7d8:	d163      	bne	8a2 <.text+0x8a2>
     7da:	490a      	ldr	r1, [pc, #40]	(804 <STACK_SIZE+0x4>)
     7dc:	229f      	mov	r2, #159
     7de:	00d2      	lsl	r2, r2, #3
     7e0:	4469      	add	r1, sp
     7e2:	4f09      	ldr	r7, [pc, #36]	(808 <STACK_SIZE+0x8>)
     7e4:	446a      	add	r2, sp
     7e6:	680d      	ldr	r5, [r1, #0]
     7e8:	6811      	ldr	r1, [r2, #0]
     7ea:	446f      	add	r7, sp
     7ec:	e737      	b	65e <_vfiprintf_r+0x1b2>
     7ee:	9905      	ldr	r1, [sp, #20]
     7f0:	0789      	lsl	r1, r1, #30
     7f2:	d400      	bmi	7f6 <_vfiprintf_r+0x34a>
     7f4:	e6f4      	b	5e0 <_vfiprintf_r+0x134>
     7f6:	3602      	add	r6, #2
     7f8:	e6f2      	b	5e0 <_vfiprintf_r+0x134>
     7fa:	4a09      	ldr	r2, [pc, #36]	(820 <STACK_SIZE+0x20>)
     7fc:	4691      	mov	r9, r2
     7fe:	e017      	b	830 <.text+0x830>
     800:	faf8      	second half of BL instruction 0xfaf8
     802:	ffff      	second half of BL instruction 0xffff
     804:	04fc      	lsl	r4, r7, #19
     806:	0000      	lsl	r0, r0, #0
     808:	048c      	lsl	r4, r1, #18
     80a:	0000      	lsl	r0, r0, #0
     80c:	04f4      	lsl	r4, r6, #19
     80e:	0000      	lsl	r0, r0, #0
     810:	0507      	lsl	r7, r0, #20
     812:	0000      	lsl	r0, r0, #0
     814:	2e48      	cmp	r6, #72
     816:	0000      	lsl	r0, r0, #0
     818:	04cc      	lsl	r4, r1, #19
     81a:	0000      	lsl	r0, r0, #0
     81c:	2e38      	cmp	r6, #56
     81e:	0000      	lsl	r0, r0, #0
     820:	2e28      	cmp	r6, #40
     822:	0000      	lsl	r0, r0, #0
     824:	0505      	lsl	r5, r0, #20
     826:	0000      	lsl	r0, r0, #0
     828:	3c10      	sub	r4, #16
     82a:	2c10      	cmp	r4, #16
     82c:	dc00      	bgt	830 <.text+0x830>
     82e:	e71f      	b	670 <_vfiprintf_r+0x1c4>
     830:	2310      	mov	r3, #16
     832:	607b      	str	r3, [r7, #4]
     834:	209f      	mov	r0, #159
     836:	4bbc      	ldr	r3, [pc, #752]	(b28 <.text+0xb28>)
     838:	00c0      	lsl	r0, r0, #3
     83a:	3510      	add	r5, #16
     83c:	446b      	add	r3, sp
     83e:	3101      	add	r1, #1
     840:	4468      	add	r0, sp
     842:	603a      	str	r2, [r7, #0]
     844:	601d      	str	r5, [r3, #0]
     846:	3708      	add	r7, #8
     848:	6001      	str	r1, [r0, #0]
     84a:	2907      	cmp	r1, #7
     84c:	ddec      	ble	828 <.text+0x828>
     84e:	49b7      	ldr	r1, [pc, #732]	(b2c <.text+0xb2c>)
     850:	9802      	ldr	r0, [sp, #8]
     852:	4469      	add	r1, sp
     854:	fe1af7ff 	bl	48c <__sprint>
     858:	2800      	cmp	r0, #0
     85a:	d122      	bne	8a2 <.text+0x8a2>
     85c:	49b2      	ldr	r1, [pc, #712]	(b28 <.text+0xb28>)
     85e:	229f      	mov	r2, #159
     860:	00d2      	lsl	r2, r2, #3
     862:	4469      	add	r1, sp
     864:	446a      	add	r2, sp
     866:	4fb2      	ldr	r7, [pc, #712]	(b30 <.text+0xb30>)
     868:	680d      	ldr	r5, [r1, #0]
     86a:	6811      	ldr	r1, [r2, #0]
     86c:	446f      	add	r7, sp
     86e:	464a      	mov	r2, r9
     870:	e7da      	b	828 <.text+0x828>
     872:	4faf      	ldr	r7, [pc, #700]	(b30 <.text+0xb30>)
     874:	446f      	add	r7, sp
     876:	e64f      	b	518 <_vfiprintf_r+0x6c>
     878:	49ac      	ldr	r1, [pc, #688]	(b2c <.text+0xb2c>)
     87a:	9802      	ldr	r0, [sp, #8]
     87c:	4469      	add	r1, sp
     87e:	fe05f7ff 	bl	48c <__sprint>
     882:	2800      	cmp	r0, #0
     884:	d10d      	bne	8a2 <.text+0x8a2>
     886:	48a8      	ldr	r0, [pc, #672]	(b28 <.text+0xb28>)
     888:	4aa9      	ldr	r2, [pc, #676]	(b30 <.text+0xb30>)
     88a:	4468      	add	r0, sp
     88c:	6805      	ldr	r5, [r0, #0]
     88e:	446a      	add	r2, sp
     890:	e70f      	b	6b2 <_vfiprintf_r+0x206>
     892:	49a6      	ldr	r1, [pc, #664]	(b2c <.text+0xb2c>)
     894:	9802      	ldr	r0, [sp, #8]
     896:	4469      	add	r1, sp
     898:	fdf8f7ff 	bl	48c <__sprint>
     89c:	2800      	cmp	r0, #0
     89e:	d100      	bne	8a2 <.text+0x8a2>
     8a0:	e72f      	b	702 <_vfiprintf_r+0x256>
     8a2:	9b0b      	ldr	r3, [sp, #44]
     8a4:	2b00      	cmp	r3, #0
     8a6:	d003      	beq	8b0 <.text+0x8b0>
     8a8:	9803      	ldr	r0, [sp, #12]
     8aa:	990b      	ldr	r1, [sp, #44]
     8ac:	f83cf001 	bl	1928 <_free_r>
     8b0:	9802      	ldr	r0, [sp, #8]
     8b2:	8983      	ldrh	r3, [r0, #12]
     8b4:	0659      	lsl	r1, r3, #25
     8b6:	d500      	bpl	8ba <.text+0x8ba>
     8b8:	e2bf      	b	e3a <.text+0xe3a>
     8ba:	23a1      	mov	r3, #161
     8bc:	9806      	ldr	r0, [sp, #24]
     8be:	00db      	lsl	r3, r3, #3
     8c0:	449d      	add	sp, r3
     8c2:	bc3c      	pop	{r2, r3, r4, r5}
     8c4:	4690      	mov	r8, r2
     8c6:	4699      	mov	r9, r3
     8c8:	46a2      	mov	sl, r4
     8ca:	46ab      	mov	fp, r5
     8cc:	bcf0      	pop	{r4, r5, r6, r7}
     8ce:	bc02      	pop	{r1}
     8d0:	4708      	bx	r1
     8d2:	4996      	ldr	r1, [pc, #600]	(b2c <.text+0xb2c>)
     8d4:	9802      	ldr	r0, [sp, #8]
     8d6:	4469      	add	r1, sp
     8d8:	fdd8f7ff 	bl	48c <__sprint>
     8dc:	2800      	cmp	r0, #0
     8de:	d1e0      	bne	8a2 <.text+0x8a2>
     8e0:	4991      	ldr	r1, [pc, #580]	(b28 <.text+0xb28>)
     8e2:	229f      	mov	r2, #159
     8e4:	00d2      	lsl	r2, r2, #3
     8e6:	4469      	add	r1, sp
     8e8:	4f91      	ldr	r7, [pc, #580]	(b30 <.text+0xb30>)
     8ea:	446a      	add	r2, sp
     8ec:	680d      	ldr	r5, [r1, #0]
     8ee:	6811      	ldr	r1, [r2, #0]
     8f0:	446f      	add	r7, sp
     8f2:	e6cc      	b	68e <_vfiprintf_r+0x1e2>
     8f4:	4b8c      	ldr	r3, [pc, #560]	(b28 <.text+0xb28>)
     8f6:	209f      	mov	r0, #159
     8f8:	00c0      	lsl	r0, r0, #3
     8fa:	4468      	add	r0, sp
     8fc:	446b      	add	r3, sp
     8fe:	6801      	ldr	r1, [r0, #0]
     900:	681d      	ldr	r5, [r3, #0]
     902:	488c      	ldr	r0, [pc, #560]	(b34 <.text+0xb34>)
     904:	e003      	b	90e <.text+0x90e>
     906:	3c10      	sub	r4, #16
     908:	2c10      	cmp	r4, #16
     90a:	dc00      	bgt	90e <.text+0x90e>
     90c:	e67e      	b	60c <_vfiprintf_r+0x160>
     90e:	2310      	mov	r3, #16
     910:	607b      	str	r3, [r7, #4]
     912:	4a85      	ldr	r2, [pc, #532]	(b28 <.text+0xb28>)
     914:	239f      	mov	r3, #159
     916:	00db      	lsl	r3, r3, #3
     918:	3510      	add	r5, #16
     91a:	446a      	add	r2, sp
     91c:	3101      	add	r1, #1
     91e:	446b      	add	r3, sp
     920:	6038      	str	r0, [r7, #0]
     922:	6015      	str	r5, [r2, #0]
     924:	3708      	add	r7, #8
     926:	6019      	str	r1, [r3, #0]
     928:	2907      	cmp	r1, #7
     92a:	ddec      	ble	906 <.text+0x906>
     92c:	497f      	ldr	r1, [pc, #508]	(b2c <.text+0xb2c>)
     92e:	9802      	ldr	r0, [sp, #8]
     930:	4469      	add	r1, sp
     932:	fdabf7ff 	bl	48c <__sprint>
     936:	2800      	cmp	r0, #0
     938:	d1b3      	bne	8a2 <.text+0x8a2>
     93a:	487b      	ldr	r0, [pc, #492]	(b28 <.text+0xb28>)
     93c:	229f      	mov	r2, #159
     93e:	00d2      	lsl	r2, r2, #3
     940:	4468      	add	r0, sp
     942:	4f7b      	ldr	r7, [pc, #492]	(b30 <.text+0xb30>)
     944:	446a      	add	r2, sp
     946:	6805      	ldr	r5, [r0, #0]
     948:	6811      	ldr	r1, [r2, #0]
     94a:	487a      	ldr	r0, [pc, #488]	(b34 <.text+0xb34>)
     94c:	446f      	add	r7, sp
     94e:	e7da      	b	906 <.text+0x906>
     950:	209f      	mov	r0, #159
     952:	00c0      	lsl	r0, r0, #3
     954:	4468      	add	r0, sp
     956:	6801      	ldr	r1, [r0, #0]
     958:	4876      	ldr	r0, [pc, #472]	(b34 <.text+0xb34>)
     95a:	4680      	mov	r8, r0
     95c:	e003      	b	966 <.text+0x966>
     95e:	3c10      	sub	r4, #16
     960:	2c10      	cmp	r4, #16
     962:	dc00      	bgt	966 <.text+0x966>
     964:	e6b4      	b	6d0 <_vfiprintf_r+0x224>
     966:	2310      	mov	r3, #16
     968:	6053      	str	r3, [r2, #4]
     96a:	4b6f      	ldr	r3, [pc, #444]	(b28 <.text+0xb28>)
     96c:	3510      	add	r5, #16
     96e:	446b      	add	r3, sp
     970:	601d      	str	r5, [r3, #0]
     972:	239f      	mov	r3, #159
     974:	00db      	lsl	r3, r3, #3
     976:	3101      	add	r1, #1
     978:	446b      	add	r3, sp
     97a:	6010      	str	r0, [r2, #0]
     97c:	6019      	str	r1, [r3, #0]
     97e:	3208      	add	r2, #8
     980:	2907      	cmp	r1, #7
     982:	ddec      	ble	95e <.text+0x95e>
     984:	4969      	ldr	r1, [pc, #420]	(b2c <.text+0xb2c>)
     986:	9802      	ldr	r0, [sp, #8]
     988:	4469      	add	r1, sp
     98a:	fd7ff7ff 	bl	48c <__sprint>
     98e:	2800      	cmp	r0, #0
     990:	d000      	beq	994 <.text+0x994>
     992:	e786      	b	8a2 <.text+0x8a2>
     994:	4864      	ldr	r0, [pc, #400]	(b28 <.text+0xb28>)
     996:	239f      	mov	r3, #159
     998:	00db      	lsl	r3, r3, #3
     99a:	4468      	add	r0, sp
     99c:	4a64      	ldr	r2, [pc, #400]	(b30 <.text+0xb30>)
     99e:	446b      	add	r3, sp
     9a0:	6805      	ldr	r5, [r0, #0]
     9a2:	6819      	ldr	r1, [r3, #0]
     9a4:	446a      	add	r2, sp
     9a6:	4640      	mov	r0, r8
     9a8:	e7d9      	b	95e <.text+0x95e>
     9aa:	4652      	mov	r2, sl
     9ac:	1aa6      	sub	r6, r4, r2
     9ae:	e5e4      	b	57a <_vfiprintf_r+0xce>
     9b0:	4a61      	ldr	r2, [pc, #388]	(b38 <.text+0xb38>)
     9b2:	4691      	mov	r9, r2
     9b4:	e003      	b	9be <.text+0x9be>
     9b6:	3c10      	sub	r4, #16
     9b8:	2c10      	cmp	r4, #16
     9ba:	dc00      	bgt	9be <.text+0x9be>
     9bc:	e6f7      	b	7ae <_vfiprintf_r+0x302>
     9be:	2310      	mov	r3, #16
     9c0:	607b      	str	r3, [r7, #4]
     9c2:	209f      	mov	r0, #159
     9c4:	4b58      	ldr	r3, [pc, #352]	(b28 <.text+0xb28>)
     9c6:	00c0      	lsl	r0, r0, #3
     9c8:	3510      	add	r5, #16
     9ca:	446b      	add	r3, sp
     9cc:	3101      	add	r1, #1
     9ce:	4468      	add	r0, sp
     9d0:	603a      	str	r2, [r7, #0]
     9d2:	601d      	str	r5, [r3, #0]
     9d4:	3708      	add	r7, #8
     9d6:	6001      	str	r1, [r0, #0]
     9d8:	2907      	cmp	r1, #7
     9da:	ddec      	ble	9b6 <.text+0x9b6>
     9dc:	4953      	ldr	r1, [pc, #332]	(b2c <.text+0xb2c>)
     9de:	9802      	ldr	r0, [sp, #8]
     9e0:	4469      	add	r1, sp
     9e2:	fd53f7ff 	bl	48c <__sprint>
     9e6:	2800      	cmp	r0, #0
     9e8:	d000      	beq	9ec <.text+0x9ec>
     9ea:	e75a      	b	8a2 <.text+0x8a2>
     9ec:	494e      	ldr	r1, [pc, #312]	(b28 <.text+0xb28>)
     9ee:	229f      	mov	r2, #159
     9f0:	00d2      	lsl	r2, r2, #3
     9f2:	4469      	add	r1, sp
     9f4:	446a      	add	r2, sp
     9f6:	4f4e      	ldr	r7, [pc, #312]	(b30 <.text+0xb30>)
     9f8:	680d      	ldr	r5, [r1, #0]
     9fa:	6811      	ldr	r1, [r2, #0]
     9fc:	446f      	add	r7, sp
     9fe:	464a      	mov	r2, r9
     a00:	e7d9      	b	9b6 <.text+0x9b6>
     a02:	494a      	ldr	r1, [pc, #296]	(b2c <.text+0xb2c>)
     a04:	9802      	ldr	r0, [sp, #8]
     a06:	4469      	add	r1, sp
     a08:	fd40f7ff 	bl	48c <__sprint>
     a0c:	2800      	cmp	r0, #0
     a0e:	d000      	beq	a12 <.text+0xa12>
     a10:	e747      	b	8a2 <.text+0x8a2>
     a12:	4945      	ldr	r1, [pc, #276]	(b28 <.text+0xb28>)
     a14:	229f      	mov	r2, #159
     a16:	00d2      	lsl	r2, r2, #3
     a18:	4469      	add	r1, sp
     a1a:	4f45      	ldr	r7, [pc, #276]	(b30 <.text+0xb30>)
     a1c:	446a      	add	r2, sp
     a1e:	680d      	ldr	r5, [r1, #0]
     a20:	6811      	ldr	r1, [r2, #0]
     a22:	446f      	add	r7, sp
     a24:	e601      	b	62a <_vfiprintf_r+0x17e>
     a26:	4840      	ldr	r0, [pc, #256]	(b28 <.text+0xb28>)
     a28:	229f      	mov	r2, #159
     a2a:	00d2      	lsl	r2, r2, #3
     a2c:	4468      	add	r0, sp
     a2e:	446a      	add	r2, sp
     a30:	6805      	ldr	r5, [r0, #0]
     a32:	6811      	ldr	r1, [r2, #0]
     a34:	e5f9      	b	62a <_vfiprintf_r+0x17e>
     a36:	493d      	ldr	r1, [pc, #244]	(b2c <.text+0xb2c>)
     a38:	9802      	ldr	r0, [sp, #8]
     a3a:	4469      	add	r1, sp
     a3c:	fd26f7ff 	bl	48c <__sprint>
     a40:	2800      	cmp	r0, #0
     a42:	d000      	beq	a46 <.text+0xa46>
     a44:	e72d      	b	8a2 <.text+0x8a2>
     a46:	4b38      	ldr	r3, [pc, #224]	(b28 <.text+0xb28>)
     a48:	446b      	add	r3, sp
     a4a:	681d      	ldr	r5, [r3, #0]
     a4c:	e64e      	b	6ec <_vfiprintf_r+0x240>
     a4e:	9805      	ldr	r0, [sp, #20]
     a50:	2310      	mov	r3, #16
     a52:	4318      	orr	r0, r3
     a54:	9005      	str	r0, [sp, #20]
     a56:	9905      	ldr	r1, [sp, #20]
     a58:	06c9      	lsl	r1, r1, #27
     a5a:	d500      	bpl	a5e <.text+0xa5e>
     a5c:	e0d1      	b	c02 <.text+0xc02>
     a5e:	9b05      	ldr	r3, [sp, #20]
     a60:	065b      	lsl	r3, r3, #25
     a62:	d400      	bmi	a66 <.text+0xa66>
     a64:	e2a9      	b	fba <.text+0xfba>
     a66:	682b      	ldr	r3, [r5, #0]
     a68:	041b      	lsl	r3, r3, #16
     a6a:	1d28      	add	r0, r5, #4
     a6c:	141c      	asr	r4, r3, #16
     a6e:	9001      	str	r0, [sp, #4]
     a70:	e0ca      	b	c08 <.text+0xc08>
     a72:	9805      	ldr	r0, [sp, #20]
     a74:	2310      	mov	r3, #16
     a76:	4318      	orr	r0, r3
     a78:	9005      	str	r0, [sp, #20]
     a7a:	9905      	ldr	r1, [sp, #20]
     a7c:	06c9      	lsl	r1, r1, #27
     a7e:	d500      	bpl	a82 <.text+0xa82>
     a80:	e0ba      	b	bf8 <.text+0xbf8>
     a82:	9b05      	ldr	r3, [sp, #20]
     a84:	065b      	lsl	r3, r3, #25
     a86:	d400      	bmi	a8a <.text+0xa8a>
     a88:	e28b      	b	fa2 <.text+0xfa2>
     a8a:	882c      	ldrh	r4, [r5, #0]
     a8c:	1d28      	add	r0, r5, #4
     a8e:	2200      	mov	r2, #0
     a90:	9001      	str	r0, [sp, #4]
     a92:	e00b      	b	aac <.text+0xaac>
     a94:	9805      	ldr	r0, [sp, #20]
     a96:	2310      	mov	r3, #16
     a98:	4318      	orr	r0, r3
     a9a:	9005      	str	r0, [sp, #20]
     a9c:	9905      	ldr	r1, [sp, #20]
     a9e:	06c9      	lsl	r1, r1, #27
     aa0:	d400      	bmi	aa4 <.text+0xaa4>
     aa2:	e0a0      	b	be6 <.text+0xbe6>
     aa4:	1d2a      	add	r2, r5, #4
     aa6:	9201      	str	r2, [sp, #4]
     aa8:	682c      	ldr	r4, [r5, #0]
     aaa:	2201      	mov	r2, #1
     aac:	4823      	ldr	r0, [pc, #140]	(b3c <.text+0xb3c>)
     aae:	2300      	mov	r3, #0
     ab0:	4468      	add	r0, sp
     ab2:	7003      	strb	r3, [r0, #0]
     ab4:	9908      	ldr	r1, [sp, #32]
     ab6:	2900      	cmp	r1, #0
     ab8:	db03      	blt	ac2 <.text+0xac2>
     aba:	9805      	ldr	r0, [sp, #20]
     abc:	2380      	mov	r3, #128
     abe:	4398      	bic	r0, r3
     ac0:	9005      	str	r0, [sp, #20]
     ac2:	2c00      	cmp	r4, #0
     ac4:	d103      	bne	ace <.text+0xace>
     ac6:	9908      	ldr	r1, [sp, #32]
     ac8:	2900      	cmp	r1, #0
     aca:	d100      	bne	ace <.text+0xace>
     acc:	e1da      	b	e84 <.text+0xe84>
     ace:	2a01      	cmp	r2, #1
     ad0:	d100      	bne	ad4 <.text+0xad4>
     ad2:	e1df      	b	e94 <.text+0xe94>
     ad4:	2a01      	cmp	r2, #1
     ad6:	d200      	bcs	ada <.text+0xada>
     ad8:	e1b3      	b	e42 <.text+0xe42>
     ada:	2a02      	cmp	r2, #2
     adc:	d100      	bne	ae0 <.text+0xae0>
     ade:	e21e      	b	f1e <.text+0xf1e>
     ae0:	4c17      	ldr	r4, [pc, #92]	(b40 <.text+0xb40>)
     ae2:	1c20      	mov	r0, r4		(add r0, r4, #0)
     ae4:	f86cf002 	bl	2bc0 <strlen>
     ae8:	9a08      	ldr	r2, [sp, #32]
     aea:	1c06      	mov	r6, r0		(add r6, r0, #0)
     aec:	4680      	mov	r8, r0
     aee:	4290      	cmp	r0, r2
     af0:	da00      	bge	af4 <.text+0xaf4>
     af2:	1c16      	mov	r6, r2		(add r6, r2, #0)
     af4:	9b08      	ldr	r3, [sp, #32]
     af6:	46a3      	mov	fp, r4
     af8:	9309      	str	r3, [sp, #36]
     afa:	e56a      	b	5d2 <_vfiprintf_r+0x126>
     afc:	4268      	neg	r0, r5
     afe:	9007      	str	r0, [sp, #28]
     b00:	1c1d      	mov	r5, r3		(add r5, r3, #0)
     b02:	2304      	mov	r3, #4
     b04:	9905      	ldr	r1, [sp, #20]
     b06:	4319      	orr	r1, r3
     b08:	9105      	str	r1, [sp, #20]
     b0a:	4653      	mov	r3, sl
     b0c:	781a      	ldrb	r2, [r3, #0]
     b0e:	e51b      	b	548 <_vfiprintf_r+0x9c>
     b10:	4906      	ldr	r1, [pc, #24]	(b2c <.text+0xb2c>)
     b12:	9802      	ldr	r0, [sp, #8]
     b14:	4469      	add	r1, sp
     b16:	fcb9f7ff 	bl	48c <__sprint>
     b1a:	2800      	cmp	r0, #0
     b1c:	d000      	beq	b20 <.text+0xb20>
     b1e:	e6c7      	b	8b0 <.text+0x8b0>
     b20:	4f03      	ldr	r7, [pc, #12]	(b30 <.text+0xb30>)
     b22:	446f      	add	r7, sp
     b24:	e53d      	b	5a2 <_vfiprintf_r+0xf6>
     b26:	0000      	lsl	r0, r0, #0
     b28:	04fc      	lsl	r4, r7, #19
     b2a:	0000      	lsl	r0, r0, #0
     b2c:	04f4      	lsl	r4, r6, #19
     b2e:	0000      	lsl	r0, r0, #0
     b30:	048c      	lsl	r4, r1, #18
     b32:	0000      	lsl	r0, r0, #0
     b34:	2e38      	cmp	r6, #56
     b36:	0000      	lsl	r0, r0, #0
     b38:	2e28      	cmp	r6, #40
     b3a:	0000      	lsl	r0, r0, #0
     b3c:	0507      	lsl	r7, r0, #20
     b3e:	0000      	lsl	r0, r0, #0
     b40:	3024      	add	r0, #36
     b42:	0000      	lsl	r0, r0, #0
     b44:	9b02      	ldr	r3, [sp, #8]
     b46:	89d9      	ldrh	r1, [r3, #14]
     b48:	040b      	lsl	r3, r1, #16
     b4a:	2b00      	cmp	r3, #0
     b4c:	da00      	bge	b50 <.text+0xb50>
     b4e:	e4d0      	b	4f2 <_vfiprintf_r+0x46>
     b50:	2586      	mov	r5, #134
     b52:	00ed      	lsl	r5, r5, #3
     b54:	446d      	add	r5, sp
     b56:	9802      	ldr	r0, [sp, #8]
     b58:	2302      	mov	r3, #2
     b5a:	81e9      	strh	r1, [r5, #14]
     b5c:	49d5      	ldr	r1, [pc, #852]	(eb4 <.text+0xeb4>)
     b5e:	439a      	bic	r2, r3
     b60:	69c3      	ldr	r3, [r0, #28]
     b62:	81aa      	strh	r2, [r5, #12]
     b64:	4469      	add	r1, sp
     b66:	4ad4      	ldr	r2, [pc, #848]	(eb8 <.text+0xeb8>)
     b68:	600b      	str	r3, [r1, #0]
     b6a:	6a43      	ldr	r3, [r0, #36]
     b6c:	2188      	mov	r1, #136
     b6e:	446a      	add	r2, sp
     b70:	00c9      	lsl	r1, r1, #3
     b72:	6013      	str	r3, [r2, #0]
     b74:	4469      	add	r1, sp
     b76:	ab0c      	add	r3, sp, #48
     b78:	2287      	mov	r2, #135
     b7a:	48d0      	ldr	r0, [pc, #832]	(ebc <.text+0xebc>)
     b7c:	600b      	str	r3, [r1, #0]
     b7e:	602b      	str	r3, [r5, #0]
     b80:	00d2      	lsl	r2, r2, #3
     b82:	2380      	mov	r3, #128
     b84:	2189      	mov	r1, #137
     b86:	00db      	lsl	r3, r3, #3
     b88:	446a      	add	r2, sp
     b8a:	4468      	add	r0, sp
     b8c:	00c9      	lsl	r1, r1, #3
     b8e:	6013      	str	r3, [r2, #0]
     b90:	6003      	str	r3, [r0, #0]
     b92:	4469      	add	r1, sp
     b94:	2300      	mov	r3, #0
     b96:	600b      	str	r3, [r1, #0]
     b98:	9803      	ldr	r0, [sp, #12]
     b9a:	1c29      	mov	r1, r5		(add r1, r5, #0)
     b9c:	1c22      	mov	r2, r4		(add r2, r4, #0)
     b9e:	9b01      	ldr	r3, [sp, #4]
     ba0:	fc84f7ff 	bl	4ac <_vfiprintf_r>
     ba4:	9006      	str	r0, [sp, #24]
     ba6:	2800      	cmp	r0, #0
     ba8:	db07      	blt	bba <.text+0xbba>
     baa:	1c28      	mov	r0, r5		(add r0, r5, #0)
     bac:	fd44f000 	bl	1638 <fflush>
     bb0:	2800      	cmp	r0, #0
     bb2:	d002      	beq	bba <.text+0xbba>
     bb4:	2201      	mov	r2, #1
     bb6:	4252      	neg	r2, r2
     bb8:	9206      	str	r2, [sp, #24]
     bba:	89ab      	ldrh	r3, [r5, #12]
     bbc:	0658      	lsl	r0, r3, #25
     bbe:	d400      	bmi	bc2 <.text+0xbc2>
     bc0:	e67b      	b	8ba <.text+0x8ba>
     bc2:	9902      	ldr	r1, [sp, #8]
     bc4:	898b      	ldrh	r3, [r1, #12]
     bc6:	2240      	mov	r2, #64
     bc8:	4313      	orr	r3, r2
     bca:	818b      	strh	r3, [r1, #12]
     bcc:	e675      	b	8ba <.text+0x8ba>
     bce:	fdcbf000 	bl	1768 <__sinit>
     bd2:	e47d      	b	4d0 <_vfiprintf_r+0x24>
     bd4:	9802      	ldr	r0, [sp, #8]
     bd6:	fcdbf000 	bl	1590 <__swsetup>
     bda:	2800      	cmp	r0, #0
     bdc:	d000      	beq	be0 <.text+0xbe0>
     bde:	e12c      	b	e3a <.text+0xe3a>
     be0:	9902      	ldr	r1, [sp, #8]
     be2:	898a      	ldrh	r2, [r1, #12]
     be4:	e47e      	b	4e4 <_vfiprintf_r+0x38>
     be6:	9b05      	ldr	r3, [sp, #20]
     be8:	065b      	lsl	r3, r3, #25
     bea:	d400      	bmi	bee <.text+0xbee>
     bec:	e1d4      	b	f98 <.text+0xf98>
     bee:	882c      	ldrh	r4, [r5, #0]
     bf0:	1d28      	add	r0, r5, #4
     bf2:	2201      	mov	r2, #1
     bf4:	9001      	str	r0, [sp, #4]
     bf6:	e759      	b	aac <.text+0xaac>
     bf8:	1d2a      	add	r2, r5, #4
     bfa:	9201      	str	r2, [sp, #4]
     bfc:	682c      	ldr	r4, [r5, #0]
     bfe:	2200      	mov	r2, #0
     c00:	e754      	b	aac <.text+0xaac>
     c02:	1d2a      	add	r2, r5, #4
     c04:	9201      	str	r2, [sp, #4]
     c06:	682c      	ldr	r4, [r5, #0]
     c08:	2c00      	cmp	r4, #0
     c0a:	da00      	bge	c0e <.text+0xc0e>
     c0c:	e10e      	b	e2c <.text+0xe2c>
     c0e:	2201      	mov	r2, #1
     c10:	e750      	b	ab4 <.text+0xab4>
     c12:	2340      	mov	r3, #64
     c14:	9a05      	ldr	r2, [sp, #20]
     c16:	431a      	orr	r2, r3
     c18:	9205      	str	r2, [sp, #20]
     c1a:	4653      	mov	r3, sl
     c1c:	781a      	ldrb	r2, [r3, #0]
     c1e:	e493      	b	548 <_vfiprintf_r+0x9c>
     c20:	4648      	mov	r0, r9
     c22:	2843      	cmp	r0, #67
     c24:	d003      	beq	c2e <.text+0xc2e>
     c26:	9905      	ldr	r1, [sp, #20]
     c28:	06c9      	lsl	r1, r1, #27
     c2a:	d400      	bmi	c2e <.text+0xc2e>
     c2c:	e1cd      	b	fca <.text+0xfca>
     c2e:	2486      	mov	r4, #134
     c30:	00e4      	lsl	r4, r4, #3
     c32:	446c      	add	r4, sp
     c34:	2100      	mov	r1, #0
     c36:	2208      	mov	r2, #8
     c38:	1c20      	mov	r0, r4		(add r0, r4, #0)
     c3a:	fcfdf001 	bl	2638 <memset>
     c3e:	4ba0      	ldr	r3, [pc, #640]	(ec0 <.text+0xec0>)
     c40:	1d2a      	add	r2, r5, #4
     c42:	446b      	add	r3, sp
     c44:	9201      	str	r2, [sp, #4]
     c46:	1c19      	mov	r1, r3		(add r1, r3, #0)
     c48:	469b      	mov	fp, r3
     c4a:	682a      	ldr	r2, [r5, #0]
     c4c:	9803      	ldr	r0, [sp, #12]
     c4e:	1c23      	mov	r3, r4		(add r3, r4, #0)
     c50:	faa0f000 	bl	1194 <_wcrtomb_r>
     c54:	4680      	mov	r8, r0
     c56:	3001      	add	r0, #1
     c58:	d100      	bne	c5c <.text+0xc5c>
     c5a:	e25d      	b	1118 <.text+0x1118>
     c5c:	4a99      	ldr	r2, [pc, #612]	(ec4 <.text+0xec4>)
     c5e:	2300      	mov	r3, #0
     c60:	446a      	add	r2, sp
     c62:	4646      	mov	r6, r8
     c64:	7013      	strb	r3, [r2, #0]
     c66:	2e00      	cmp	r6, #0
     c68:	da00      	bge	c6c <.text+0xc6c>
     c6a:	e1f1      	b	1050 <.text+0x1050>
     c6c:	2300      	mov	r3, #0
     c6e:	9309      	str	r3, [sp, #36]
     c70:	e4af      	b	5d2 <_vfiprintf_r+0x126>
     c72:	4650      	mov	r0, sl
     c74:	7802      	ldrb	r2, [r0, #0]
     c76:	0613      	lsl	r3, r2, #24
     c78:	0e1b      	lsr	r3, r3, #24
     c7a:	2b6c      	cmp	r3, #108
     c7c:	d100      	bne	c80 <.text+0xc80>
     c7e:	e1d4      	b	102a <.text+0x102a>
     c80:	9905      	ldr	r1, [sp, #20]
     c82:	2310      	mov	r3, #16
     c84:	4319      	orr	r1, r3
     c86:	9105      	str	r1, [sp, #20]
     c88:	e45e      	b	548 <_vfiprintf_r+0x9c>
     c8a:	488e      	ldr	r0, [pc, #568]	(ec4 <.text+0xec4>)
     c8c:	232b      	mov	r3, #43
     c8e:	4468      	add	r0, sp
     c90:	7003      	strb	r3, [r0, #0]
     c92:	4651      	mov	r1, sl
     c94:	780a      	ldrb	r2, [r1, #0]
     c96:	e457      	b	548 <_vfiprintf_r+0x9c>
     c98:	2200      	mov	r2, #0
     c9a:	0093      	lsl	r3, r2, #2
     c9c:	189b      	add	r3, r3, r2
     c9e:	4650      	mov	r0, sl
     ca0:	7800      	ldrb	r0, [r0, #0]
     ca2:	005b      	lsl	r3, r3, #1
     ca4:	444b      	add	r3, r9
     ca6:	1c1a      	mov	r2, r3		(add r2, r3, #0)
     ca8:	1c03      	mov	r3, r0		(add r3, r0, #0)
     caa:	2101      	mov	r1, #1
     cac:	3b30      	sub	r3, #48
     cae:	3a30      	sub	r2, #48
     cb0:	4681      	mov	r9, r0
     cb2:	448a      	add	sl, r1
     cb4:	2b09      	cmp	r3, #9
     cb6:	d9f0      	bls	c9a <.text+0xc9a>
     cb8:	9207      	str	r2, [sp, #28]
     cba:	e44a      	b	552 <_vfiprintf_r+0xa6>
     cbc:	2380      	mov	r3, #128
     cbe:	e721      	b	b04 <.text+0xb04>
     cc0:	2310      	mov	r3, #16
     cc2:	e7a7      	b	c14 <.text+0xc14>
     cc4:	1d2a      	add	r2, r5, #4
     cc6:	9805      	ldr	r0, [sp, #20]
     cc8:	9201      	str	r2, [sp, #4]
     cca:	2302      	mov	r3, #2
     ccc:	2278      	mov	r2, #120
     cce:	497e      	ldr	r1, [pc, #504]	(ec8 <.text+0xec8>)
     cd0:	682c      	ldr	r4, [r5, #0]
     cd2:	4318      	orr	r0, r3
     cd4:	4691      	mov	r9, r2
     cd6:	2202      	mov	r2, #2
     cd8:	9005      	str	r0, [sp, #20]
     cda:	910a      	str	r1, [sp, #40]
     cdc:	e6e6      	b	aac <.text+0xaac>
     cde:	4652      	mov	r2, sl
     ce0:	7812      	ldrb	r2, [r2, #0]
     ce2:	2301      	mov	r3, #1
     ce4:	4691      	mov	r9, r2
     ce6:	449a      	add	sl, r3
     ce8:	2a2a      	cmp	r2, #42
     cea:	d100      	bne	cee <.text+0xcee>
     cec:	e21b      	b	1126 <.text+0x1126>
     cee:	1c13      	mov	r3, r2		(add r3, r2, #0)
     cf0:	3b30      	sub	r3, #48
     cf2:	2b09      	cmp	r3, #9
     cf4:	d800      	bhi	cf8 <.text+0xcf8>
     cf6:	e135      	b	f64 <.text+0xf64>
     cf8:	2000      	mov	r0, #0
     cfa:	9008      	str	r0, [sp, #32]
     cfc:	e429      	b	552 <_vfiprintf_r+0xa6>
     cfe:	4a72      	ldr	r2, [pc, #456]	(ec8 <.text+0xec8>)
     d00:	9b05      	ldr	r3, [sp, #20]
     d02:	920a      	str	r2, [sp, #40]
     d04:	06db      	lsl	r3, r3, #27
     d06:	d400      	bmi	d0a <.text+0xd0a>
     d08:	e088      	b	e1c <.text+0xe1c>
     d0a:	1d28      	add	r0, r5, #4
     d0c:	9001      	str	r0, [sp, #4]
     d0e:	682c      	ldr	r4, [r5, #0]
     d10:	9805      	ldr	r0, [sp, #20]
     d12:	07c0      	lsl	r0, r0, #31
     d14:	d400      	bmi	d18 <.text+0xd18>
     d16:	e0ca      	b	eae <.text+0xeae>
     d18:	2c00      	cmp	r4, #0
     d1a:	d100      	bne	d1e <.text+0xd1e>
     d1c:	e0c7      	b	eae <.text+0xeae>
     d1e:	9905      	ldr	r1, [sp, #20]
     d20:	2302      	mov	r3, #2
     d22:	4319      	orr	r1, r3
     d24:	2202      	mov	r2, #2
     d26:	9105      	str	r1, [sp, #20]
     d28:	e6c0      	b	aac <.text+0xaac>
     d2a:	2301      	mov	r3, #1
     d2c:	e772      	b	c14 <.text+0xc14>
     d2e:	4865      	ldr	r0, [pc, #404]	(ec4 <.text+0xec4>)
     d30:	4468      	add	r0, sp
     d32:	7803      	ldrb	r3, [r0, #0]
     d34:	2b00      	cmp	r3, #0
     d36:	d000      	beq	d3a <.text+0xd3a>
     d38:	e143      	b	fc2 <.text+0xfc2>
     d3a:	2320      	mov	r3, #32
     d3c:	7003      	strb	r3, [r0, #0]
     d3e:	4651      	mov	r1, sl
     d40:	780a      	ldrb	r2, [r1, #0]
     d42:	fc01f7ff 	bl	548 <_vfiprintf_r+0x9c>
     d46:	9b05      	ldr	r3, [sp, #20]
     d48:	06db      	lsl	r3, r3, #27
     d4a:	d500      	bpl	d4e <.text+0xd4e>
     d4c:	e12e      	b	fac <.text+0xfac>
     d4e:	9805      	ldr	r0, [sp, #20]
     d50:	0640      	lsl	r0, r0, #25
     d52:	d400      	bmi	d56 <.text+0xd56>
     d54:	e16d      	b	1032 <.text+0x1032>
     d56:	466a      	mov	r2, sp
     d58:	682b      	ldr	r3, [r5, #0]
     d5a:	8b12      	ldrh	r2, [r2, #24]
     d5c:	1d29      	add	r1, r5, #4
     d5e:	9101      	str	r1, [sp, #4]
     d60:	801a      	strh	r2, [r3, #0]
     d62:	fbd9f7ff 	bl	518 <_vfiprintf_r+0x6c>
     d66:	1d2b      	add	r3, r5, #4
     d68:	682d      	ldr	r5, [r5, #0]
     d6a:	9507      	str	r5, [sp, #28]
     d6c:	2d00      	cmp	r5, #0
     d6e:	da00      	bge	d72 <.text+0xd72>
     d70:	e6c4      	b	afc <.text+0xafc>
     d72:	4650      	mov	r0, sl
     d74:	7802      	ldrb	r2, [r0, #0]
     d76:	1c1d      	mov	r5, r3		(add r5, r3, #0)
     d78:	fbe6f7ff 	bl	548 <_vfiprintf_r+0x9c>
     d7c:	4851      	ldr	r0, [pc, #324]	(ec4 <.text+0xec4>)
     d7e:	2300      	mov	r3, #0
     d80:	4468      	add	r0, sp
     d82:	7003      	strb	r3, [r0, #0]
     d84:	1d29      	add	r1, r5, #4
     d86:	682d      	ldr	r5, [r5, #0]
     d88:	9101      	str	r1, [sp, #4]
     d8a:	46ab      	mov	fp, r5
     d8c:	2d00      	cmp	r5, #0
     d8e:	d100      	bne	d92 <.text+0xd92>
     d90:	e177      	b	1082 <.text+0x1082>
     d92:	4649      	mov	r1, r9
     d94:	2953      	cmp	r1, #83
     d96:	d003      	beq	da0 <.text+0xda0>
     d98:	9a05      	ldr	r2, [sp, #20]
     d9a:	06d2      	lsl	r2, r2, #27
     d9c:	d400      	bmi	da0 <.text+0xda0>
     d9e:	e123      	b	fe8 <.text+0xfe8>
     da0:	20a0      	mov	r0, #160
     da2:	2586      	mov	r5, #134
     da4:	00c0      	lsl	r0, r0, #3
     da6:	00ed      	lsl	r5, r5, #3
     da8:	465b      	mov	r3, fp
     daa:	4468      	add	r0, sp
     dac:	446d      	add	r5, sp
     dae:	6003      	str	r3, [r0, #0]
     db0:	2100      	mov	r1, #0
     db2:	1c28      	mov	r0, r5		(add r0, r5, #0)
     db4:	2208      	mov	r2, #8
     db6:	fc3ff001 	bl	2638 <memset>
     dba:	9908      	ldr	r1, [sp, #32]
     dbc:	2900      	cmp	r1, #0
     dbe:	da00      	bge	dc2 <.text+0xdc2>
     dc0:	e195      	b	10ee <.text+0x10ee>
     dc2:	2200      	mov	r2, #0
     dc4:	4690      	mov	r8, r2
     dc6:	2400      	mov	r4, #0
     dc8:	e000      	b	dcc <.text+0xdcc>
     dca:	4680      	mov	r8, r0
     dcc:	20a0      	mov	r0, #160
     dce:	00c0      	lsl	r0, r0, #3
     dd0:	4468      	add	r0, sp
     dd2:	6803      	ldr	r3, [r0, #0]
     dd4:	591a      	ldr	r2, [r3, r4]
     dd6:	2a00      	cmp	r2, #0
     dd8:	d011      	beq	dfe <.text+0xdfe>
     dda:	4939      	ldr	r1, [pc, #228]	(ec0 <.text+0xec0>)
     ddc:	9803      	ldr	r0, [sp, #12]
     dde:	4469      	add	r1, sp
     de0:	1c2b      	mov	r3, r5		(add r3, r5, #0)
     de2:	f9d7f000 	bl	1194 <_wcrtomb_r>
     de6:	1c41      	add	r1, r0, #1
     de8:	d100      	bne	dec <.text+0xdec>
     dea:	e178      	b	10de <.text+0x10de>
     dec:	9a08      	ldr	r2, [sp, #32]
     dee:	4440      	add	r0, r8
     df0:	4282      	cmp	r2, r0
     df2:	db04      	blt	dfe <.text+0xdfe>
     df4:	3404      	add	r4, #4
     df6:	4282      	cmp	r2, r0
     df8:	d1e7      	bne	dca <.text+0xdca>
     dfa:	9a08      	ldr	r2, [sp, #32]
     dfc:	4690      	mov	r8, r2
     dfe:	4641      	mov	r1, r8
     e00:	2900      	cmp	r1, #0
     e02:	d000      	beq	e06 <.text+0xe06>
     e04:	e146      	b	1094 <.text+0x1094>
     e06:	2200      	mov	r2, #0
     e08:	2600      	mov	r6, #0
     e0a:	9209      	str	r2, [sp, #36]
     e0c:	fbe1f7ff 	bl	5d2 <_vfiprintf_r+0x126>
     e10:	4a2e      	ldr	r2, [pc, #184]	(ecc <.text+0xecc>)
     e12:	9b05      	ldr	r3, [sp, #20]
     e14:	920a      	str	r2, [sp, #40]
     e16:	06db      	lsl	r3, r3, #27
     e18:	d500      	bpl	e1c <.text+0xe1c>
     e1a:	e776      	b	d0a <.text+0xd0a>
     e1c:	9905      	ldr	r1, [sp, #20]
     e1e:	0649      	lsl	r1, r1, #25
     e20:	d400      	bmi	e24 <.text+0xe24>
     e22:	e09b      	b	f5c <.text+0xf5c>
     e24:	882c      	ldrh	r4, [r5, #0]
     e26:	1d2a      	add	r2, r5, #4
     e28:	9201      	str	r2, [sp, #4]
     e2a:	e771      	b	d10 <.text+0xd10>
     e2c:	4a25      	ldr	r2, [pc, #148]	(ec4 <.text+0xec4>)
     e2e:	232d      	mov	r3, #45
     e30:	446a      	add	r2, sp
     e32:	7013      	strb	r3, [r2, #0]
     e34:	4264      	neg	r4, r4
     e36:	2201      	mov	r2, #1
     e38:	e63c      	b	ab4 <.text+0xab4>
     e3a:	2201      	mov	r2, #1
     e3c:	4252      	neg	r2, r2
     e3e:	9206      	str	r2, [sp, #24]
     e40:	e53b      	b	8ba <.text+0x8ba>
     e42:	4a23      	ldr	r2, [pc, #140]	(ed0 <.text+0xed0>)
     e44:	2107      	mov	r1, #7
     e46:	446a      	add	r2, sp
     e48:	e000      	b	e4c <.text+0xe4c>
     e4a:	465a      	mov	r2, fp
     e4c:	1e53      	sub	r3, r2, #1
     e4e:	469b      	mov	fp, r3
     e50:	1c23      	mov	r3, r4		(add r3, r4, #0)
     e52:	400b      	and	r3, r1
     e54:	3330      	add	r3, #48
     e56:	4658      	mov	r0, fp
     e58:	08e4      	lsr	r4, r4, #3
     e5a:	7003      	strb	r3, [r0, #0]
     e5c:	2c00      	cmp	r4, #0
     e5e:	d1f4      	bne	e4a <.text+0xe4a>
     e60:	9905      	ldr	r1, [sp, #20]
     e62:	07c9      	lsl	r1, r1, #31
     e64:	d436      	bmi	ed4 <.text+0xed4>
     e66:	4b16      	ldr	r3, [pc, #88]	(ec0 <.text+0xec0>)
     e68:	465a      	mov	r2, fp
     e6a:	446b      	add	r3, sp
     e6c:	1a98      	sub	r0, r3, r2
     e6e:	1c06      	mov	r6, r0		(add r6, r0, #0)
     e70:	9808      	ldr	r0, [sp, #32]
     e72:	3628      	add	r6, #40
     e74:	46b0      	mov	r8, r6
     e76:	4286      	cmp	r6, r0
     e78:	da00      	bge	e7c <.text+0xe7c>
     e7a:	1c06      	mov	r6, r0		(add r6, r0, #0)
     e7c:	9908      	ldr	r1, [sp, #32]
     e7e:	9109      	str	r1, [sp, #36]
     e80:	fba7f7ff 	bl	5d2 <_vfiprintf_r+0x126>
     e84:	2a00      	cmp	r2, #0
     e86:	d030      	beq	eea <.text+0xeea>
     e88:	4811      	ldr	r0, [pc, #68]	(ed0 <.text+0xed0>)
     e8a:	4468      	add	r0, sp
     e8c:	4683      	mov	fp, r0
     e8e:	2028      	mov	r0, #40
     e90:	4240      	neg	r0, r0
     e92:	e7ec      	b	e6e <.text+0xe6e>
     e94:	2c09      	cmp	r4, #9
     e96:	d831      	bhi	efc <.text+0xefc>
     e98:	4d0d      	ldr	r5, [pc, #52]	(ed0 <.text+0xed0>)
     e9a:	446d      	add	r5, sp
     e9c:	1c23      	mov	r3, r4		(add r3, r4, #0)
     e9e:	3d01      	sub	r5, #1
     ea0:	3330      	add	r3, #48
     ea2:	702b      	strb	r3, [r5, #0]
     ea4:	4b06      	ldr	r3, [pc, #24]	(ec0 <.text+0xec0>)
     ea6:	446b      	add	r3, sp
     ea8:	46ab      	mov	fp, r5
     eaa:	1b58      	sub	r0, r3, r5
     eac:	e7df      	b	e6e <.text+0xe6e>
     eae:	2202      	mov	r2, #2
     eb0:	e5fc      	b	aac <.text+0xaac>
     eb2:	0000      	lsl	r0, r0, #0
     eb4:	044c      	lsl	r4, r1, #17
     eb6:	0000      	lsl	r0, r0, #0
     eb8:	0454      	lsl	r4, r2, #17
     eba:	0000      	lsl	r0, r0, #0
     ebc:	0444      	lsl	r4, r0, #17
     ebe:	0000      	lsl	r0, r0, #0
     ec0:	04cc      	lsl	r4, r1, #19
     ec2:	0000      	lsl	r0, r0, #0
     ec4:	0507      	lsl	r7, r0, #20
     ec6:	0000      	lsl	r0, r0, #0
     ec8:	2ff4      	cmp	r7, #244
     eca:	0000      	lsl	r0, r0, #0
     ecc:	3010      	add	r0, #16
     ece:	0000      	lsl	r0, r0, #0
     ed0:	04f4      	lsl	r4, r6, #19
     ed2:	0000      	lsl	r0, r0, #0
     ed4:	2b30      	cmp	r3, #48
     ed6:	d100      	bne	eda <.text+0xeda>
     ed8:	e081      	b	fde <.text+0xfde>
     eda:	3a02      	sub	r2, #2
     edc:	2330      	mov	r3, #48
     ede:	7013      	strb	r3, [r2, #0]
     ee0:	4b9f      	ldr	r3, [pc, #636]	(1160 <.text+0x1160>)
     ee2:	446b      	add	r3, sp
     ee4:	4693      	mov	fp, r2
     ee6:	1a98      	sub	r0, r3, r2
     ee8:	e7c1      	b	e6e <.text+0xe6e>
     eea:	9905      	ldr	r1, [sp, #20]
     eec:	07c9      	lsl	r1, r1, #31
     eee:	d42a      	bmi	f46 <.text+0xf46>
     ef0:	4a9c      	ldr	r2, [pc, #624]	(1164 <.text+0x1164>)
     ef2:	2028      	mov	r0, #40
     ef4:	446a      	add	r2, sp
     ef6:	4693      	mov	fp, r2
     ef8:	4240      	neg	r0, r0
     efa:	e7b8      	b	e6e <.text+0xe6e>
     efc:	4d99      	ldr	r5, [pc, #612]	(1164 <.text+0x1164>)
     efe:	446d      	add	r5, sp
     f00:	1c20      	mov	r0, r4		(add r0, r4, #0)
     f02:	210a      	mov	r1, #10
     f04:	ff24f001 	bl	2d50 <__umodsi3>
     f08:	3d01      	sub	r5, #1
     f0a:	3030      	add	r0, #48
     f0c:	7028      	strb	r0, [r5, #0]
     f0e:	210a      	mov	r1, #10
     f10:	1c20      	mov	r0, r4		(add r0, r4, #0)
     f12:	fed7f001 	bl	2cc4 <__udivsi3>
     f16:	1c04      	mov	r4, r0		(add r4, r0, #0)
     f18:	2809      	cmp	r0, #9
     f1a:	d8f1      	bhi	f00 <.text+0xf00>
     f1c:	e7be      	b	e9c <.text+0xe9c>
     f1e:	4a91      	ldr	r2, [pc, #580]	(1164 <.text+0x1164>)
     f20:	446a      	add	r2, sp
     f22:	4693      	mov	fp, r2
     f24:	220f      	mov	r2, #15
     f26:	2301      	mov	r3, #1
     f28:	425b      	neg	r3, r3
     f2a:	449b      	add	fp, r3
     f2c:	980a      	ldr	r0, [sp, #40]
     f2e:	1c23      	mov	r3, r4		(add r3, r4, #0)
     f30:	4013      	and	r3, r2
     f32:	5cc3      	ldrb	r3, [r0, r3]
     f34:	4659      	mov	r1, fp
     f36:	0924      	lsr	r4, r4, #4
     f38:	700b      	strb	r3, [r1, #0]
     f3a:	2c00      	cmp	r4, #0
     f3c:	d1f3      	bne	f26 <.text+0xf26>
     f3e:	4b88      	ldr	r3, [pc, #544]	(1160 <.text+0x1160>)
     f40:	446b      	add	r3, sp
     f42:	1a58      	sub	r0, r3, r1
     f44:	e793      	b	e6e <.text+0xe6e>
     f46:	4a86      	ldr	r2, [pc, #536]	(1160 <.text+0x1160>)
     f48:	2327      	mov	r3, #39
     f4a:	2130      	mov	r1, #48
     f4c:	446a      	add	r2, sp
     f4e:	54d1      	strb	r1, [r2, r3]
     f50:	4b85      	ldr	r3, [pc, #532]	(1168 <.text+0x1168>)
     f52:	2027      	mov	r0, #39
     f54:	446b      	add	r3, sp
     f56:	469b      	mov	fp, r3
     f58:	4240      	neg	r0, r0
     f5a:	e788      	b	e6e <.text+0xe6e>
     f5c:	1d2b      	add	r3, r5, #4
     f5e:	9301      	str	r3, [sp, #4]
     f60:	682c      	ldr	r4, [r5, #0]
     f62:	e6d5      	b	d10 <.text+0xd10>
     f64:	2200      	mov	r2, #0
     f66:	0093      	lsl	r3, r2, #2
     f68:	189b      	add	r3, r3, r2
     f6a:	4651      	mov	r1, sl
     f6c:	005b      	lsl	r3, r3, #1
     f6e:	444b      	add	r3, r9
     f70:	7809      	ldrb	r1, [r1, #0]
     f72:	1c1a      	mov	r2, r3		(add r2, r3, #0)
     f74:	2301      	mov	r3, #1
     f76:	449a      	add	sl, r3
     f78:	1c0b      	mov	r3, r1		(add r3, r1, #0)
     f7a:	3b30      	sub	r3, #48
     f7c:	3a30      	sub	r2, #48
     f7e:	4689      	mov	r9, r1
     f80:	2b09      	cmp	r3, #9
     f82:	d9f0      	bls	f66 <.text+0xf66>
     f84:	9208      	str	r2, [sp, #32]
     f86:	3201      	add	r2, #1
     f88:	db01      	blt	f8e <.text+0xf8e>
     f8a:	fae2f7ff 	bl	552 <_vfiprintf_r+0xa6>
     f8e:	2001      	mov	r0, #1
     f90:	4240      	neg	r0, r0
     f92:	9008      	str	r0, [sp, #32]
     f94:	faddf7ff 	bl	552 <_vfiprintf_r+0xa6>
     f98:	1d29      	add	r1, r5, #4
     f9a:	9101      	str	r1, [sp, #4]
     f9c:	682c      	ldr	r4, [r5, #0]
     f9e:	2201      	mov	r2, #1
     fa0:	e584      	b	aac <.text+0xaac>
     fa2:	1d29      	add	r1, r5, #4
     fa4:	9101      	str	r1, [sp, #4]
     fa6:	682c      	ldr	r4, [r5, #0]
     fa8:	2200      	mov	r2, #0
     faa:	e57f      	b	aac <.text+0xaac>
     fac:	1d2b      	add	r3, r5, #4
     fae:	9301      	str	r3, [sp, #4]
     fb0:	9806      	ldr	r0, [sp, #24]
     fb2:	682b      	ldr	r3, [r5, #0]
     fb4:	6018      	str	r0, [r3, #0]
     fb6:	faaff7ff 	bl	518 <_vfiprintf_r+0x6c>
     fba:	1d29      	add	r1, r5, #4
     fbc:	9101      	str	r1, [sp, #4]
     fbe:	682c      	ldr	r4, [r5, #0]
     fc0:	e622      	b	c08 <.text+0xc08>
     fc2:	4650      	mov	r0, sl
     fc4:	7802      	ldrb	r2, [r0, #0]
     fc6:	fabff7ff 	bl	548 <_vfiprintf_r+0x9c>
     fca:	4865      	ldr	r0, [pc, #404]	(1160 <.text+0x1160>)
     fcc:	1d2b      	add	r3, r5, #4
     fce:	9301      	str	r3, [sp, #4]
     fd0:	4468      	add	r0, sp
     fd2:	682b      	ldr	r3, [r5, #0]
     fd4:	2101      	mov	r1, #1
     fd6:	4683      	mov	fp, r0
     fd8:	4688      	mov	r8, r1
     fda:	7003      	strb	r3, [r0, #0]
     fdc:	e63e      	b	c5c <.text+0xc5c>
     fde:	4b60      	ldr	r3, [pc, #384]	(1160 <.text+0x1160>)
     fe0:	4659      	mov	r1, fp
     fe2:	446b      	add	r3, sp
     fe4:	1a58      	sub	r0, r3, r1
     fe6:	e742      	b	e6e <.text+0xe6e>
     fe8:	9908      	ldr	r1, [sp, #32]
     fea:	2900      	cmp	r1, #0
     fec:	db28      	blt	1040 <.text+0x1040>
     fee:	1c28      	mov	r0, r5		(add r0, r5, #0)
     ff0:	2100      	mov	r1, #0
     ff2:	9a08      	ldr	r2, [sp, #32]
     ff4:	fa90f001 	bl	2518 <memchr>
     ff8:	2800      	cmp	r0, #0
     ffa:	d037      	beq	106c <.text+0x106c>
     ffc:	1b43      	sub	r3, r0, r5
     ffe:	9808      	ldr	r0, [sp, #32]
    1000:	4698      	mov	r8, r3
    1002:	4580      	cmp	r8, r0
    1004:	dc32      	bgt	106c <.text+0x106c>
    1006:	1c1e      	mov	r6, r3		(add r6, r3, #0)
    1008:	2e00      	cmp	r6, #0
    100a:	db35      	blt	1078 <.text+0x1078>
    100c:	2100      	mov	r1, #0
    100e:	9109      	str	r1, [sp, #36]
    1010:	fadff7ff 	bl	5d2 <_vfiprintf_r+0x126>
    1014:	4955      	ldr	r1, [pc, #340]	(116c <.text+0x116c>)
    1016:	4469      	add	r1, sp
    1018:	680b      	ldr	r3, [r1, #0]
    101a:	2b00      	cmp	r3, #0
    101c:	d11d      	bne	105a <.text+0x105a>
    101e:	229f      	mov	r2, #159
    1020:	00d2      	lsl	r2, r2, #3
    1022:	2100      	mov	r1, #0
    1024:	446a      	add	r2, sp
    1026:	6011      	str	r1, [r2, #0]
    1028:	e442      	b	8b0 <.text+0x8b0>
    102a:	2001      	mov	r0, #1
    102c:	4482      	add	sl, r0
    102e:	2310      	mov	r3, #16
    1030:	e568      	b	b04 <.text+0xb04>
    1032:	682b      	ldr	r3, [r5, #0]
    1034:	9a06      	ldr	r2, [sp, #24]
    1036:	1d29      	add	r1, r5, #4
    1038:	9101      	str	r1, [sp, #4]
    103a:	601a      	str	r2, [r3, #0]
    103c:	fa6cf7ff 	bl	518 <_vfiprintf_r+0x6c>
    1040:	1c28      	mov	r0, r5		(add r0, r5, #0)
    1042:	fdbdf001 	bl	2bc0 <strlen>
    1046:	1c06      	mov	r6, r0		(add r6, r0, #0)
    1048:	4680      	mov	r8, r0
    104a:	2800      	cmp	r0, #0
    104c:	db00      	blt	1050 <.text+0x1050>
    104e:	e60d      	b	c6c <.text+0xc6c>
    1050:	2300      	mov	r3, #0
    1052:	2600      	mov	r6, #0
    1054:	9309      	str	r3, [sp, #36]
    1056:	fabcf7ff 	bl	5d2 <_vfiprintf_r+0x126>
    105a:	4942      	ldr	r1, [pc, #264]	(1164 <.text+0x1164>)
    105c:	9802      	ldr	r0, [sp, #8]
    105e:	4469      	add	r1, sp
    1060:	fa14f7ff 	bl	48c <__sprint>
    1064:	2800      	cmp	r0, #0
    1066:	d000      	beq	106a <.text+0x106a>
    1068:	e422      	b	8b0 <.text+0x8b0>
    106a:	e7d8      	b	101e <.text+0x101e>
    106c:	9e08      	ldr	r6, [sp, #32]
    106e:	2200      	mov	r2, #0
    1070:	46b0      	mov	r8, r6
    1072:	9209      	str	r2, [sp, #36]
    1074:	faadf7ff 	bl	5d2 <_vfiprintf_r+0x126>
    1078:	2100      	mov	r1, #0
    107a:	2600      	mov	r6, #0
    107c:	9109      	str	r1, [sp, #36]
    107e:	faa8f7ff 	bl	5d2 <_vfiprintf_r+0x126>
    1082:	4a3b      	ldr	r2, [pc, #236]	(1170 <.text+0x1170>)
    1084:	2006      	mov	r0, #6
    1086:	2300      	mov	r3, #0
    1088:	4693      	mov	fp, r2
    108a:	4680      	mov	r8, r0
    108c:	2606      	mov	r6, #6
    108e:	9309      	str	r3, [sp, #36]
    1090:	fa9ff7ff 	bl	5d2 <_vfiprintf_r+0x126>
    1094:	4641      	mov	r1, r8
    1096:	3101      	add	r1, #1
    1098:	9803      	ldr	r0, [sp, #12]
    109a:	ff99f000 	bl	1fd0 <_malloc_r>
    109e:	900b      	str	r0, [sp, #44]
    10a0:	2800      	cmp	r0, #0
    10a2:	d056      	beq	1152 <.text+0x1152>
    10a4:	2100      	mov	r1, #0
    10a6:	2208      	mov	r2, #8
    10a8:	1c28      	mov	r0, r5		(add r0, r5, #0)
    10aa:	fac5f001 	bl	2638 <memset>
    10ae:	22a0      	mov	r2, #160
    10b0:	00d2      	lsl	r2, r2, #3
    10b2:	9803      	ldr	r0, [sp, #12]
    10b4:	990b      	ldr	r1, [sp, #44]
    10b6:	446a      	add	r2, sp
    10b8:	4643      	mov	r3, r8
    10ba:	9500      	str	r5, [sp, #0]
    10bc:	f894f000 	bl	11e8 <_wcsrtombs_r>
    10c0:	4580      	cmp	r8, r0
    10c2:	d13e      	bne	1142 <.text+0x1142>
    10c4:	9a0b      	ldr	r2, [sp, #44]
    10c6:	2300      	mov	r3, #0
    10c8:	4641      	mov	r1, r8
    10ca:	4646      	mov	r6, r8
    10cc:	548b      	strb	r3, [r1, r2]
    10ce:	2e00      	cmp	r6, #0
    10d0:	db20      	blt	1114 <.text+0x1114>
    10d2:	9b0b      	ldr	r3, [sp, #44]
    10d4:	2000      	mov	r0, #0
    10d6:	469b      	mov	fp, r3
    10d8:	9009      	str	r0, [sp, #36]
    10da:	fa7af7ff 	bl	5d2 <_vfiprintf_r+0x126>
    10de:	9a02      	ldr	r2, [sp, #8]
    10e0:	8993      	ldrh	r3, [r2, #12]
    10e2:	9802      	ldr	r0, [sp, #8]
    10e4:	2240      	mov	r2, #64
    10e6:	4313      	orr	r3, r2
    10e8:	8183      	strh	r3, [r0, #12]
    10ea:	fbe1f7ff 	bl	8b0 <.text+0x8b0>
    10ee:	22a0      	mov	r2, #160
    10f0:	00d2      	lsl	r2, r2, #3
    10f2:	2300      	mov	r3, #0
    10f4:	9803      	ldr	r0, [sp, #12]
    10f6:	2100      	mov	r1, #0
    10f8:	446a      	add	r2, sp
    10fa:	9500      	str	r5, [sp, #0]
    10fc:	f874f000 	bl	11e8 <_wcsrtombs_r>
    1100:	1c03      	mov	r3, r0		(add r3, r0, #0)
    1102:	4680      	mov	r8, r0
    1104:	3301      	add	r3, #1
    1106:	d024      	beq	1152 <.text+0x1152>
    1108:	20a0      	mov	r0, #160
    110a:	00c0      	lsl	r0, r0, #3
    110c:	465b      	mov	r3, fp
    110e:	4468      	add	r0, sp
    1110:	6003      	str	r3, [r0, #0]
    1112:	e674      	b	dfe <.text+0xdfe>
    1114:	2600      	mov	r6, #0
    1116:	e7dc      	b	10d2 <.text+0x10d2>
    1118:	9902      	ldr	r1, [sp, #8]
    111a:	898b      	ldrh	r3, [r1, #12]
    111c:	2240      	mov	r2, #64
    111e:	4313      	orr	r3, r2
    1120:	818b      	strh	r3, [r1, #12]
    1122:	fbc5f7ff 	bl	8b0 <.text+0x8b0>
    1126:	1d2b      	add	r3, r5, #4
    1128:	682d      	ldr	r5, [r5, #0]
    112a:	9508      	str	r5, [sp, #32]
    112c:	2d00      	cmp	r5, #0
    112e:	db00      	blt	1132 <.text+0x1132>
    1130:	e61f      	b	d72 <.text+0xd72>
    1132:	2101      	mov	r1, #1
    1134:	4249      	neg	r1, r1
    1136:	9108      	str	r1, [sp, #32]
    1138:	1c1d      	mov	r5, r3		(add r5, r3, #0)
    113a:	4653      	mov	r3, sl
    113c:	781a      	ldrb	r2, [r3, #0]
    113e:	fa03f7ff 	bl	548 <_vfiprintf_r+0x9c>
    1142:	9a02      	ldr	r2, [sp, #8]
    1144:	8993      	ldrh	r3, [r2, #12]
    1146:	9802      	ldr	r0, [sp, #8]
    1148:	2240      	mov	r2, #64
    114a:	4313      	orr	r3, r2
    114c:	8183      	strh	r3, [r0, #12]
    114e:	fbabf7ff 	bl	8a8 <.text+0x8a8>
    1152:	9802      	ldr	r0, [sp, #8]
    1154:	8983      	ldrh	r3, [r0, #12]
    1156:	2240      	mov	r2, #64
    1158:	4313      	orr	r3, r2
    115a:	8183      	strh	r3, [r0, #12]
    115c:	fba8f7ff 	bl	8b0 <.text+0x8b0>
    1160:	04cc      	lsl	r4, r1, #19
    1162:	0000      	lsl	r0, r0, #0
    1164:	04f4      	lsl	r4, r6, #19
    1166:	0000      	lsl	r0, r0, #0
    1168:	04f3      	lsl	r3, r6, #19
    116a:	0000      	lsl	r0, r0, #0
    116c:	04fc      	lsl	r4, r7, #19
    116e:	0000      	lsl	r0, r0, #0
    1170:	3008      	add	r0, #8
	...

00001174 <vfiprintf>:
    1174:	b530      	push	{r4, r5, lr}
    1176:	1c13      	mov	r3, r2		(add r3, r2, #0)
    1178:	4a05      	ldr	r2, [pc, #20]	(1190 <.text+0x1190>)
    117a:	1c0d      	mov	r5, r1		(add r5, r1, #0)
    117c:	1c04      	mov	r4, r0		(add r4, r0, #0)
    117e:	1c21      	mov	r1, r4		(add r1, r4, #0)
    1180:	6810      	ldr	r0, [r2, #0]
    1182:	1c2a      	mov	r2, r5		(add r2, r5, #0)
    1184:	f992f7ff 	bl	4ac <_vfiprintf_r>
    1188:	bc30      	pop	{r4, r5}
    118a:	bc02      	pop	{r1}
    118c:	4708      	bx	r1
    118e:	0000      	lsl	r0, r0, #0
    1190:	0400      	lsl	r0, r0, #16
    1192:	4000      	and	r0, r0

00001194 <_wcrtomb_r>:
    1194:	b530      	push	{r4, r5, lr}
    1196:	b083      	sub	sp, #12
    1198:	1c05      	mov	r5, r0		(add r5, r0, #0)
    119a:	1c1c      	mov	r4, r3		(add r4, r3, #0)
    119c:	2900      	cmp	r1, #0
    119e:	d00d      	beq	11bc <_wcrtomb_r+0x28>
    11a0:	f8a2f000 	bl	12e8 <_wctomb_r>
    11a4:	1c43      	add	r3, r0, #1
    11a6:	d105      	bne	11b4 <_wcrtomb_r+0x20>
    11a8:	2300      	mov	r3, #0
    11aa:	6023      	str	r3, [r4, #0]
    11ac:	238a      	mov	r3, #138
    11ae:	2001      	mov	r0, #1
    11b0:	602b      	str	r3, [r5, #0]
    11b2:	4240      	neg	r0, r0
    11b4:	b003      	add	sp, #12
    11b6:	bc30      	pop	{r4, r5}
    11b8:	bc02      	pop	{r1}
    11ba:	4708      	bx	r1
    11bc:	4669      	mov	r1, sp
    11be:	3102      	add	r1, #2
    11c0:	2200      	mov	r2, #0
    11c2:	f891f000 	bl	12e8 <_wctomb_r>
    11c6:	e7ed      	b	11a4 <_wcrtomb_r+0x10>

000011c8 <wcrtomb>:
    11c8:	b530      	push	{r4, r5, lr}
    11ca:	1c13      	mov	r3, r2		(add r3, r2, #0)
    11cc:	4a05      	ldr	r2, [pc, #20]	(11e4 <.text+0x11e4>)
    11ce:	1c0d      	mov	r5, r1		(add r5, r1, #0)
    11d0:	1c04      	mov	r4, r0		(add r4, r0, #0)
    11d2:	1c21      	mov	r1, r4		(add r1, r4, #0)
    11d4:	6810      	ldr	r0, [r2, #0]
    11d6:	1c2a      	mov	r2, r5		(add r2, r5, #0)
    11d8:	ffdcf7ff 	bl	1194 <_wcrtomb_r>
    11dc:	bc30      	pop	{r4, r5}
    11de:	bc02      	pop	{r1}
    11e0:	4708      	bx	r1
    11e2:	0000      	lsl	r0, r0, #0
    11e4:	0400      	lsl	r0, r0, #16
    11e6:	4000      	and	r0, r0

000011e8 <_wcsrtombs_r>:
    11e8:	b5f0      	push	{r4, r5, r6, r7, lr}
    11ea:	465f      	mov	r7, fp
    11ec:	4656      	mov	r6, sl
    11ee:	464d      	mov	r5, r9
    11f0:	4644      	mov	r4, r8
    11f2:	b4f0      	push	{r4, r5, r6, r7}
    11f4:	b086      	sub	sp, #24
    11f6:	9001      	str	r0, [sp, #4]
    11f8:	4689      	mov	r9, r1
    11fa:	4692      	mov	sl, r2
    11fc:	1c1d      	mov	r5, r3		(add r5, r3, #0)
    11fe:	9e0f      	ldr	r6, [sp, #60]
    1200:	2900      	cmp	r1, #0
    1202:	d042      	beq	128a <_wcsrtombs_r+0xa2>
    1204:	4651      	mov	r1, sl
    1206:	6809      	ldr	r1, [r1, #0]
    1208:	9100      	str	r1, [sp, #0]
    120a:	2d00      	cmp	r5, #0
    120c:	d10b      	bne	1226 <_wcsrtombs_r+0x3e>
    120e:	2200      	mov	r2, #0
    1210:	4690      	mov	r8, r2
    1212:	4640      	mov	r0, r8
    1214:	b006      	add	sp, #24
    1216:	bc3c      	pop	{r2, r3, r4, r5}
    1218:	4690      	mov	r8, r2
    121a:	4699      	mov	r9, r3
    121c:	46a2      	mov	sl, r4
    121e:	46ab      	mov	fp, r5
    1220:	bcf0      	pop	{r4, r5, r6, r7}
    1222:	bc02      	pop	{r1}
    1224:	4708      	bx	r1
    1226:	2300      	mov	r3, #0
    1228:	464c      	mov	r4, r9
    122a:	4698      	mov	r8, r3
    122c:	6837      	ldr	r7, [r6, #0]
    122e:	9702      	str	r7, [sp, #8]
    1230:	6871      	ldr	r1, [r6, #4]
    1232:	9b00      	ldr	r3, [sp, #0]
    1234:	468b      	mov	fp, r1
    1236:	210e      	mov	r1, #14
    1238:	681a      	ldr	r2, [r3, #0]
    123a:	9801      	ldr	r0, [sp, #4]
    123c:	4469      	add	r1, sp
    123e:	1c33      	mov	r3, r6		(add r3, r6, #0)
    1240:	ffa8f7ff 	bl	1194 <_wcrtomb_r>
    1244:	1c47      	add	r7, r0, #1
    1246:	d028      	beq	129a <_wcsrtombs_r+0xb2>
    1248:	1a2b      	sub	r3, r5, r0
    124a:	4543      	cmp	r3, r8
    124c:	d320      	bcc	1290 <_wcsrtombs_r+0xa8>
    124e:	4285      	cmp	r5, r0
    1250:	d91e      	bls	1290 <_wcsrtombs_r+0xa8>
    1252:	4649      	mov	r1, r9
    1254:	4480      	add	r8, r0
    1256:	2900      	cmp	r1, #0
    1258:	d00f      	beq	127a <_wcsrtombs_r+0x92>
    125a:	2800      	cmp	r0, #0
    125c:	dd09      	ble	1272 <_wcsrtombs_r+0x8a>
    125e:	2200      	mov	r2, #0
    1260:	270e      	mov	r7, #14
    1262:	18bf      	add	r7, r7, r2
    1264:	4669      	mov	r1, sp
    1266:	5c7b      	ldrb	r3, [r7, r1]
    1268:	3201      	add	r2, #1
    126a:	7023      	strb	r3, [r4, #0]
    126c:	3401      	add	r4, #1
    126e:	4290      	cmp	r0, r2
    1270:	d1f6      	bne	1260 <_wcsrtombs_r+0x78>
    1272:	4652      	mov	r2, sl
    1274:	6813      	ldr	r3, [r2, #0]
    1276:	3304      	add	r3, #4
    1278:	6013      	str	r3, [r2, #0]
    127a:	9f00      	ldr	r7, [sp, #0]
    127c:	cf08      	ldmia	r7!,{r3}
    127e:	9700      	str	r7, [sp, #0]
    1280:	2b00      	cmp	r3, #0
    1282:	d013      	beq	12ac <_wcsrtombs_r+0xc4>
    1284:	4545      	cmp	r5, r8
    1286:	d8d1      	bhi	122c <_wcsrtombs_r+0x44>
    1288:	e7c3      	b	1212 <_wcsrtombs_r+0x2a>
    128a:	2501      	mov	r5, #1
    128c:	426d      	neg	r5, r5
    128e:	e7b9      	b	1204 <_wcsrtombs_r+0x1c>
    1290:	9f02      	ldr	r7, [sp, #8]
    1292:	4659      	mov	r1, fp
    1294:	6037      	str	r7, [r6, #0]
    1296:	6071      	str	r1, [r6, #4]
    1298:	e7bb      	b	1212 <_wcsrtombs_r+0x2a>
    129a:	9f01      	ldr	r7, [sp, #4]
    129c:	2101      	mov	r1, #1
    129e:	238a      	mov	r3, #138
    12a0:	424a      	neg	r2, r1
    12a2:	603b      	str	r3, [r7, #0]
    12a4:	4690      	mov	r8, r2
    12a6:	2300      	mov	r3, #0
    12a8:	6033      	str	r3, [r6, #0]
    12aa:	e7b2      	b	1212 <_wcsrtombs_r+0x2a>
    12ac:	4649      	mov	r1, r9
    12ae:	2900      	cmp	r1, #0
    12b0:	d001      	beq	12b6 <_wcsrtombs_r+0xce>
    12b2:	4652      	mov	r2, sl
    12b4:	6013      	str	r3, [r2, #0]
    12b6:	6033      	str	r3, [r6, #0]
    12b8:	2301      	mov	r3, #1
    12ba:	425b      	neg	r3, r3
    12bc:	4498      	add	r8, r3
    12be:	e7a8      	b	1212 <_wcsrtombs_r+0x2a>

000012c0 <wcsrtombs>:
    12c0:	b570      	push	{r4, r5, r6, lr}
    12c2:	1c16      	mov	r6, r2		(add r6, r2, #0)
    12c4:	4a07      	ldr	r2, [pc, #28]	(12e4 <.text+0x12e4>)
    12c6:	1c0d      	mov	r5, r1		(add r5, r1, #0)
    12c8:	b081      	sub	sp, #4
    12ca:	1c04      	mov	r4, r0		(add r4, r0, #0)
    12cc:	1c21      	mov	r1, r4		(add r1, r4, #0)
    12ce:	6810      	ldr	r0, [r2, #0]
    12d0:	9300      	str	r3, [sp, #0]
    12d2:	1c2a      	mov	r2, r5		(add r2, r5, #0)
    12d4:	1c33      	mov	r3, r6		(add r3, r6, #0)
    12d6:	ff87f7ff 	bl	11e8 <_wcsrtombs_r>
    12da:	b001      	add	sp, #4
    12dc:	bc70      	pop	{r4, r5, r6}
    12de:	bc02      	pop	{r1}
    12e0:	4708      	bx	r1
    12e2:	0000      	lsl	r0, r0, #0
    12e4:	0400      	lsl	r0, r0, #16
    12e6:	4000      	and	r0, r0

000012e8 <_wctomb_r>:
    12e8:	b5f0      	push	{r4, r5, r6, r7, lr}
    12ea:	4c9a      	ldr	r4, [pc, #616]	(1554 <.text+0x1554>)
    12ec:	1c20      	mov	r0, r4		(add r0, r4, #0)
    12ee:	1c0e      	mov	r6, r1		(add r6, r1, #0)
    12f0:	1c15      	mov	r5, r2		(add r5, r2, #0)
    12f2:	1c1f      	mov	r7, r3		(add r7, r3, #0)
    12f4:	fc64f001 	bl	2bc0 <strlen>
    12f8:	2801      	cmp	r0, #1
    12fa:	d91c      	bls	1336 <_wctomb_r+0x4e>
    12fc:	4996      	ldr	r1, [pc, #600]	(1558 <.text+0x1558>)
    12fe:	1c20      	mov	r0, r4		(add r0, r4, #0)
    1300:	fc1af001 	bl	2b38 <strcmp>
    1304:	2800      	cmp	r0, #0
    1306:	d11d      	bne	1344 <_wctomb_r+0x5c>
    1308:	2e00      	cmp	r6, #0
    130a:	d03a      	beq	1382 <_wctomb_r+0x9a>
    130c:	2d7f      	cmp	r5, #127
    130e:	dd14      	ble	133a <_wctomb_r+0x52>
    1310:	1c2a      	mov	r2, r5		(add r2, r5, #0)
    1312:	4b92      	ldr	r3, [pc, #584]	(155c <.text+0x155c>)
    1314:	3a80      	sub	r2, #128
    1316:	429a      	cmp	r2, r3
    1318:	d869      	bhi	13ee <_wctomb_r+0x106>
    131a:	056b      	lsl	r3, r5, #21
    131c:	2240      	mov	r2, #64
    131e:	4252      	neg	r2, r2
    1320:	0edb      	lsr	r3, r3, #27
    1322:	4313      	orr	r3, r2
    1324:	7033      	strb	r3, [r6, #0]
    1326:	2280      	mov	r2, #128
    1328:	233f      	mov	r3, #63
    132a:	402b      	and	r3, r5
    132c:	4252      	neg	r2, r2
    132e:	4313      	orr	r3, r2
    1330:	2002      	mov	r0, #2
    1332:	7073      	strb	r3, [r6, #1]
    1334:	e003      	b	133e <_wctomb_r+0x56>
    1336:	2e00      	cmp	r6, #0
    1338:	d023      	beq	1382 <_wctomb_r+0x9a>
    133a:	7035      	strb	r5, [r6, #0]
    133c:	2001      	mov	r0, #1
    133e:	bcf0      	pop	{r4, r5, r6, r7}
    1340:	bc02      	pop	{r1}
    1342:	4708      	bx	r1
    1344:	4986      	ldr	r1, [pc, #536]	(1560 <.text+0x1560>)
    1346:	1c20      	mov	r0, r4		(add r0, r4, #0)
    1348:	fbf6f001 	bl	2b38 <strcmp>
    134c:	2800      	cmp	r0, #0
    134e:	d11a      	bne	1386 <_wctomb_r+0x9e>
    1350:	062b      	lsl	r3, r5, #24
    1352:	0e19      	lsr	r1, r3, #24
    1354:	042b      	lsl	r3, r5, #16
    1356:	0e1a      	lsr	r2, r3, #24
    1358:	2e00      	cmp	r6, #0
    135a:	d012      	beq	1382 <_wctomb_r+0x9a>
    135c:	2a00      	cmp	r2, #0
    135e:	d0ec      	beq	133a <_wctomb_r+0x52>
    1360:	1c13      	mov	r3, r2		(add r3, r2, #0)
    1362:	337f      	add	r3, #127
    1364:	061b      	lsl	r3, r3, #24
    1366:	0e1b      	lsr	r3, r3, #24
    1368:	2b1e      	cmp	r3, #30
    136a:	d86b      	bhi	1444 <_wctomb_r+0x15c>
    136c:	1c0b      	mov	r3, r1		(add r3, r1, #0)
    136e:	3b40      	sub	r3, #64
    1370:	061b      	lsl	r3, r3, #24
    1372:	0e1b      	lsr	r3, r3, #24
    1374:	2b3e      	cmp	r3, #62
    1376:	d900      	bls	137a <_wctomb_r+0x92>
    1378:	e0b7      	b	14ea <_wctomb_r+0x202>
    137a:	2002      	mov	r0, #2
    137c:	7032      	strb	r2, [r6, #0]
    137e:	7071      	strb	r1, [r6, #1]
    1380:	e7dd      	b	133e <_wctomb_r+0x56>
    1382:	2000      	mov	r0, #0
    1384:	e7db      	b	133e <_wctomb_r+0x56>
    1386:	4977      	ldr	r1, [pc, #476]	(1564 <.text+0x1564>)
    1388:	1c20      	mov	r0, r4		(add r0, r4, #0)
    138a:	fbd5f001 	bl	2b38 <strcmp>
    138e:	2800      	cmp	r0, #0
    1390:	d110      	bne	13b4 <_wctomb_r+0xcc>
    1392:	062b      	lsl	r3, r5, #24
    1394:	0e19      	lsr	r1, r3, #24
    1396:	042b      	lsl	r3, r5, #16
    1398:	0e1a      	lsr	r2, r3, #24
    139a:	2e00      	cmp	r6, #0
    139c:	d0f1      	beq	1382 <_wctomb_r+0x9a>
    139e:	2a00      	cmp	r2, #0
    13a0:	d0cb      	beq	133a <_wctomb_r+0x52>
    13a2:	1c13      	mov	r3, r2		(add r3, r2, #0)
    13a4:	335f      	add	r3, #95
    13a6:	061b      	lsl	r3, r3, #24
    13a8:	0e1b      	lsr	r3, r3, #24
    13aa:	2b5d      	cmp	r3, #93
    13ac:	d916      	bls	13dc <_wctomb_r+0xf4>
    13ae:	2001      	mov	r0, #1
    13b0:	4240      	neg	r0, r0
    13b2:	e7c4      	b	133e <_wctomb_r+0x56>
    13b4:	496c      	ldr	r1, [pc, #432]	(1568 <.text+0x1568>)
    13b6:	1c20      	mov	r0, r4		(add r0, r4, #0)
    13b8:	fbbef001 	bl	2b38 <strcmp>
    13bc:	2800      	cmp	r0, #0
    13be:	d1ba      	bne	1336 <_wctomb_r+0x4e>
    13c0:	062b      	lsl	r3, r5, #24
    13c2:	0e19      	lsr	r1, r3, #24
    13c4:	042b      	lsl	r3, r5, #16
    13c6:	0e1a      	lsr	r2, r3, #24
    13c8:	2e00      	cmp	r6, #0
    13ca:	d0b7      	beq	133c <_wctomb_r+0x54>
    13cc:	2a00      	cmp	r2, #0
    13ce:	d142      	bne	1456 <_wctomb_r+0x16e>
    13d0:	683b      	ldr	r3, [r7, #0]
    13d2:	2b00      	cmp	r3, #0
    13d4:	d12b      	bne	142e <_wctomb_r+0x146>
    13d6:	2001      	mov	r0, #1
    13d8:	7031      	strb	r1, [r6, #0]
    13da:	e7b0      	b	133e <_wctomb_r+0x56>
    13dc:	1c0b      	mov	r3, r1		(add r3, r1, #0)
    13de:	335f      	add	r3, #95
    13e0:	061b      	lsl	r3, r3, #24
    13e2:	0e1b      	lsr	r3, r3, #24
    13e4:	2b5d      	cmp	r3, #93
    13e6:	d9c8      	bls	137a <_wctomb_r+0x92>
    13e8:	2001      	mov	r0, #1
    13ea:	4240      	neg	r0, r0
    13ec:	e7a7      	b	133e <_wctomb_r+0x56>
    13ee:	4b5f      	ldr	r3, [pc, #380]	(156c <.text+0x156c>)
    13f0:	18ea      	add	r2, r5, r3
    13f2:	4b5f      	ldr	r3, [pc, #380]	(1570 <.text+0x1570>)
    13f4:	429a      	cmp	r2, r3
    13f6:	d960      	bls	14ba <_wctomb_r+0x1d2>
    13f8:	4b5e      	ldr	r3, [pc, #376]	(1574 <.text+0x1574>)
    13fa:	18ea      	add	r2, r5, r3
    13fc:	4b5e      	ldr	r3, [pc, #376]	(1578 <.text+0x1578>)
    13fe:	429a      	cmp	r2, r3
    1400:	d83c      	bhi	147c <_wctomb_r+0x194>
    1402:	02eb      	lsl	r3, r5, #11
    1404:	2210      	mov	r2, #16
    1406:	4252      	neg	r2, r2
    1408:	0f5b      	lsr	r3, r3, #29
    140a:	4313      	orr	r3, r2
    140c:	7033      	strb	r3, [r6, #0]
    140e:	2280      	mov	r2, #128
    1410:	03ab      	lsl	r3, r5, #14
    1412:	4252      	neg	r2, r2
    1414:	0e9b      	lsr	r3, r3, #26
    1416:	4313      	orr	r3, r2
    1418:	7073      	strb	r3, [r6, #1]
    141a:	052b      	lsl	r3, r5, #20
    141c:	0e9b      	lsr	r3, r3, #26
    141e:	4313      	orr	r3, r2
    1420:	70b3      	strb	r3, [r6, #2]
    1422:	233f      	mov	r3, #63
    1424:	402b      	and	r3, r5
    1426:	4313      	orr	r3, r2
    1428:	2004      	mov	r0, #4
    142a:	70f3      	strb	r3, [r6, #3]
    142c:	e787      	b	133e <_wctomb_r+0x56>
    142e:	231b      	mov	r3, #27
    1430:	603a      	str	r2, [r7, #0]
    1432:	7033      	strb	r3, [r6, #0]
    1434:	2328      	mov	r3, #40
    1436:	7073      	strb	r3, [r6, #1]
    1438:	2342      	mov	r3, #66
    143a:	70b3      	strb	r3, [r6, #2]
    143c:	2004      	mov	r0, #4
    143e:	3603      	add	r6, #3
    1440:	7031      	strb	r1, [r6, #0]
    1442:	e77c      	b	133e <_wctomb_r+0x56>
    1444:	1c13      	mov	r3, r2		(add r3, r2, #0)
    1446:	3320      	add	r3, #32
    1448:	061b      	lsl	r3, r3, #24
    144a:	0e1b      	lsr	r3, r3, #24
    144c:	2b0f      	cmp	r3, #15
    144e:	d98d      	bls	136c <_wctomb_r+0x84>
    1450:	2001      	mov	r0, #1
    1452:	4240      	neg	r0, r0
    1454:	e773      	b	133e <_wctomb_r+0x56>
    1456:	1c13      	mov	r3, r2		(add r3, r2, #0)
    1458:	3b21      	sub	r3, #33
    145a:	061b      	lsl	r3, r3, #24
    145c:	0e1b      	lsr	r3, r3, #24
    145e:	2b5d      	cmp	r3, #93
    1460:	d8a5      	bhi	13ae <_wctomb_r+0xc6>
    1462:	1c0b      	mov	r3, r1		(add r3, r1, #0)
    1464:	3b21      	sub	r3, #33
    1466:	061b      	lsl	r3, r3, #24
    1468:	0e1b      	lsr	r3, r3, #24
    146a:	2b5d      	cmp	r3, #93
    146c:	d89f      	bhi	13ae <_wctomb_r+0xc6>
    146e:	683b      	ldr	r3, [r7, #0]
    1470:	2b00      	cmp	r3, #0
    1472:	d042      	beq	14fa <_wctomb_r+0x212>
    1474:	2002      	mov	r0, #2
    1476:	7032      	strb	r2, [r6, #0]
    1478:	7071      	strb	r1, [r6, #1]
    147a:	e760      	b	133e <_wctomb_r+0x56>
    147c:	4b3f      	ldr	r3, [pc, #252]	(157c <.text+0x157c>)
    147e:	18ea      	add	r2, r5, r3
    1480:	4b3f      	ldr	r3, [pc, #252]	(1580 <.text+0x1580>)
    1482:	429a      	cmp	r2, r3
    1484:	d844      	bhi	1510 <_wctomb_r+0x228>
    1486:	01ab      	lsl	r3, r5, #6
    1488:	2208      	mov	r2, #8
    148a:	4252      	neg	r2, r2
    148c:	0f9b      	lsr	r3, r3, #30
    148e:	4313      	orr	r3, r2
    1490:	7033      	strb	r3, [r6, #0]
    1492:	2280      	mov	r2, #128
    1494:	022b      	lsl	r3, r5, #8
    1496:	4252      	neg	r2, r2
    1498:	0e9b      	lsr	r3, r3, #26
    149a:	4313      	orr	r3, r2
    149c:	7073      	strb	r3, [r6, #1]
    149e:	03ab      	lsl	r3, r5, #14
    14a0:	0e9b      	lsr	r3, r3, #26
    14a2:	4313      	orr	r3, r2
    14a4:	70b3      	strb	r3, [r6, #2]
    14a6:	052b      	lsl	r3, r5, #20
    14a8:	0e9b      	lsr	r3, r3, #26
    14aa:	4313      	orr	r3, r2
    14ac:	70f3      	strb	r3, [r6, #3]
    14ae:	233f      	mov	r3, #63
    14b0:	402b      	and	r3, r5
    14b2:	4313      	orr	r3, r2
    14b4:	2005      	mov	r0, #5
    14b6:	7133      	strb	r3, [r6, #4]
    14b8:	e741      	b	133e <_wctomb_r+0x56>
    14ba:	4b32      	ldr	r3, [pc, #200]	(1584 <.text+0x1584>)
    14bc:	18ea      	add	r2, r5, r3
    14be:	4b32      	ldr	r3, [pc, #200]	(1588 <.text+0x1588>)
    14c0:	429a      	cmp	r2, r3
    14c2:	d800      	bhi	14c6 <_wctomb_r+0x1de>
    14c4:	e773      	b	13ae <_wctomb_r+0xc6>
    14c6:	042b      	lsl	r3, r5, #16
    14c8:	2220      	mov	r2, #32
    14ca:	4252      	neg	r2, r2
    14cc:	0f1b      	lsr	r3, r3, #28
    14ce:	4313      	orr	r3, r2
    14d0:	7033      	strb	r3, [r6, #0]
    14d2:	2280      	mov	r2, #128
    14d4:	052b      	lsl	r3, r5, #20
    14d6:	4252      	neg	r2, r2
    14d8:	0e9b      	lsr	r3, r3, #26
    14da:	4313      	orr	r3, r2
    14dc:	7073      	strb	r3, [r6, #1]
    14de:	233f      	mov	r3, #63
    14e0:	402b      	and	r3, r5
    14e2:	4313      	orr	r3, r2
    14e4:	2003      	mov	r0, #3
    14e6:	70b3      	strb	r3, [r6, #2]
    14e8:	e729      	b	133e <_wctomb_r+0x56>
    14ea:	2380      	mov	r3, #128
    14ec:	404b      	eor	r3, r1
    14ee:	2b7c      	cmp	r3, #124
    14f0:	d800      	bhi	14f4 <_wctomb_r+0x20c>
    14f2:	e742      	b	137a <_wctomb_r+0x92>
    14f4:	2001      	mov	r0, #1
    14f6:	4240      	neg	r0, r0
    14f8:	e721      	b	133e <_wctomb_r+0x56>
    14fa:	2301      	mov	r3, #1
    14fc:	603b      	str	r3, [r7, #0]
    14fe:	231b      	mov	r3, #27
    1500:	7033      	strb	r3, [r6, #0]
    1502:	2324      	mov	r3, #36
    1504:	7073      	strb	r3, [r6, #1]
    1506:	2342      	mov	r3, #66
    1508:	70b3      	strb	r3, [r6, #2]
    150a:	2005      	mov	r0, #5
    150c:	3603      	add	r6, #3
    150e:	e7b2      	b	1476 <_wctomb_r+0x18e>
    1510:	4b1e      	ldr	r3, [pc, #120]	(158c <.text+0x158c>)
    1512:	429d      	cmp	r5, r3
    1514:	dc00      	bgt	1518 <_wctomb_r+0x230>
    1516:	e74a      	b	13ae <_wctomb_r+0xc6>
    1518:	006b      	lsl	r3, r5, #1
    151a:	2204      	mov	r2, #4
    151c:	4252      	neg	r2, r2
    151e:	0fdb      	lsr	r3, r3, #31
    1520:	4313      	orr	r3, r2
    1522:	7033      	strb	r3, [r6, #0]
    1524:	2280      	mov	r2, #128
    1526:	00ab      	lsl	r3, r5, #2
    1528:	4252      	neg	r2, r2
    152a:	0e9b      	lsr	r3, r3, #26
    152c:	4313      	orr	r3, r2
    152e:	7073      	strb	r3, [r6, #1]
    1530:	022b      	lsl	r3, r5, #8
    1532:	0e9b      	lsr	r3, r3, #26
    1534:	4313      	orr	r3, r2
    1536:	70b3      	strb	r3, [r6, #2]
    1538:	03ab      	lsl	r3, r5, #14
    153a:	0e9b      	lsr	r3, r3, #26
    153c:	4313      	orr	r3, r2
    153e:	70f3      	strb	r3, [r6, #3]
    1540:	052b      	lsl	r3, r5, #20
    1542:	0e9b      	lsr	r3, r3, #26
    1544:	4313      	orr	r3, r2
    1546:	7133      	strb	r3, [r6, #4]
    1548:	233f      	mov	r3, #63
    154a:	402b      	and	r3, r5
    154c:	4313      	orr	r3, r2
    154e:	2006      	mov	r0, #6
    1550:	7173      	strb	r3, [r6, #5]
    1552:	e6f4      	b	133e <_wctomb_r+0x56>
    1554:	0404      	lsl	r4, r0, #16
    1556:	4000      	and	r0, r0
    1558:	3040      	add	r0, #64
    155a:	0000      	lsl	r0, r0, #0
    155c:	077f      	lsl	r7, r7, #29
    155e:	0000      	lsl	r0, r0, #0
    1560:	3048      	add	r0, #72
    1562:	0000      	lsl	r0, r0, #0
    1564:	3050      	add	r0, #80
    1566:	0000      	lsl	r0, r0, #0
    1568:	3058      	add	r0, #88
    156a:	0000      	lsl	r0, r0, #0
    156c:	f800      	second half of BL instruction 0xf800
    156e:	ffff      	second half of BL instruction 0xffff
    1570:	0000f7ff 	blx	574 <_vfiprintf_r+0xc8>
    1574:	0000      	lsl	r0, r0, #0
    1576:	ffff      	second half of BL instruction 0xffff
    1578:	ffff      	second half of BL instruction 0xffff
    157a:	001e      	lsl	r6, r3, #0
    157c:	0000      	lsl	r0, r0, #0
    157e:	ffe0      	second half of BL instruction 0xffe0
    1580:	ffff      	second half of BL instruction 0xffff
    1582:	03df      	lsl	r7, r3, #15
    1584:	2800      	cmp	r0, #0
    1586:	ffff      	second half of BL instruction 0xffff
    1588:	07ff      	lsl	r7, r7, #31
    158a:	0000      	lsl	r0, r0, #0
    158c:	ffff      	second half of BL instruction 0xffff
    158e:	03ff      	lsl	r7, r7, #15

00001590 <__swsetup>:
    1590:	b530      	push	{r4, r5, lr}
    1592:	4b28      	ldr	r3, [pc, #160]	(1634 <.text+0x1634>)
    1594:	1c04      	mov	r4, r0		(add r4, r0, #0)
    1596:	6818      	ldr	r0, [r3, #0]
    1598:	2800      	cmp	r0, #0
    159a:	d002      	beq	15a2 <__swsetup+0x12>
    159c:	6b83      	ldr	r3, [r0, #56]
    159e:	2b00      	cmp	r3, #0
    15a0:	d01f      	beq	15e2 <__swsetup+0x52>
    15a2:	89a2      	ldrh	r2, [r4, #12]
    15a4:	0413      	lsl	r3, r2, #16
    15a6:	0c19      	lsr	r1, r3, #16
    15a8:	1c0d      	mov	r5, r1		(add r5, r1, #0)
    15aa:	2308      	mov	r3, #8
    15ac:	401d      	and	r5, r3
    15ae:	d01f      	beq	15f0 <__swsetup+0x60>
    15b0:	6921      	ldr	r1, [r4, #16]
    15b2:	2900      	cmp	r1, #0
    15b4:	d018      	beq	15e8 <__swsetup+0x58>
    15b6:	89a3      	ldrh	r3, [r4, #12]
    15b8:	07da      	lsl	r2, r3, #31
    15ba:	d405      	bmi	15c8 <__swsetup+0x38>
    15bc:	079a      	lsl	r2, r3, #30
    15be:	d50c      	bpl	15da <__swsetup+0x4a>
    15c0:	2300      	mov	r3, #0
    15c2:	2000      	mov	r0, #0
    15c4:	60a3      	str	r3, [r4, #8]
    15c6:	e005      	b	15d4 <__swsetup+0x44>
    15c8:	2300      	mov	r3, #0
    15ca:	60a3      	str	r3, [r4, #8]
    15cc:	6963      	ldr	r3, [r4, #20]
    15ce:	425b      	neg	r3, r3
    15d0:	61a3      	str	r3, [r4, #24]
    15d2:	2000      	mov	r0, #0
    15d4:	bc30      	pop	{r4, r5}
    15d6:	bc02      	pop	{r1}
    15d8:	4708      	bx	r1
    15da:	6963      	ldr	r3, [r4, #20]
    15dc:	2000      	mov	r0, #0
    15de:	60a3      	str	r3, [r4, #8]
    15e0:	e7f8      	b	15d4 <__swsetup+0x44>
    15e2:	f8c1f000 	bl	1768 <__sinit>
    15e6:	e7dc      	b	15a2 <__swsetup+0x12>
    15e8:	1c20      	mov	r0, r4		(add r0, r4, #0)
    15ea:	fc81f000 	bl	1ef0 <__smakebuf>
    15ee:	e7e2      	b	15b6 <__swsetup+0x26>
    15f0:	06cb      	lsl	r3, r1, #27
    15f2:	d51b      	bpl	162c <__swsetup+0x9c>
    15f4:	074b      	lsl	r3, r1, #29
    15f6:	d517      	bpl	1628 <__swsetup+0x98>
    15f8:	6b21      	ldr	r1, [r4, #48]
    15fa:	2900      	cmp	r1, #0
    15fc:	d009      	beq	1612 <__swsetup+0x82>
    15fe:	1c23      	mov	r3, r4		(add r3, r4, #0)
    1600:	3340      	add	r3, #64
    1602:	4299      	cmp	r1, r3
    1604:	d004      	beq	1610 <__swsetup+0x80>
    1606:	4b0b      	ldr	r3, [pc, #44]	(1634 <.text+0x1634>)
    1608:	6818      	ldr	r0, [r3, #0]
    160a:	f98df000 	bl	1928 <_free_r>
    160e:	89a2      	ldrh	r2, [r4, #12]
    1610:	6325      	str	r5, [r4, #48]
    1612:	2324      	mov	r3, #36
    1614:	6921      	ldr	r1, [r4, #16]
    1616:	439a      	bic	r2, r3
    1618:	2300      	mov	r3, #0
    161a:	81a2      	strh	r2, [r4, #12]
    161c:	6063      	str	r3, [r4, #4]
    161e:	6021      	str	r1, [r4, #0]
    1620:	2308      	mov	r3, #8
    1622:	4313      	orr	r3, r2
    1624:	81a3      	strh	r3, [r4, #12]
    1626:	e7c4      	b	15b2 <__swsetup+0x22>
    1628:	6921      	ldr	r1, [r4, #16]
    162a:	e7f9      	b	1620 <__swsetup+0x90>
    162c:	2001      	mov	r0, #1
    162e:	4240      	neg	r0, r0
    1630:	e7d0      	b	15d4 <__swsetup+0x44>
    1632:	0000      	lsl	r0, r0, #0
    1634:	0400      	lsl	r0, r0, #16
    1636:	4000      	and	r0, r0

00001638 <fflush>:
    1638:	b570      	push	{r4, r5, r6, lr}
    163a:	1c05      	mov	r5, r0		(add r5, r0, #0)
    163c:	2800      	cmp	r0, #0
    163e:	d034      	beq	16aa <fflush+0x72>
    1640:	4b1d      	ldr	r3, [pc, #116]	(16b8 <.text+0x16b8>)
    1642:	6818      	ldr	r0, [r3, #0]
    1644:	2800      	cmp	r0, #0
    1646:	d002      	beq	164e <fflush+0x16>
    1648:	6b83      	ldr	r3, [r0, #56]
    164a:	2b00      	cmp	r3, #0
    164c:	d023      	beq	1696 <fflush+0x5e>
    164e:	89ab      	ldrh	r3, [r5, #12]
    1650:	041b      	lsl	r3, r3, #16
    1652:	141a      	asr	r2, r3, #16
    1654:	0713      	lsl	r3, r2, #28
    1656:	d518      	bpl	168a <fflush+0x52>
    1658:	692e      	ldr	r6, [r5, #16]
    165a:	2e00      	cmp	r6, #0
    165c:	d015      	beq	168a <fflush+0x52>
    165e:	682b      	ldr	r3, [r5, #0]
    1660:	1b9c      	sub	r4, r3, r6
    1662:	2303      	mov	r3, #3
    1664:	602e      	str	r6, [r5, #0]
    1666:	421a      	tst	r2, r3
    1668:	d013      	beq	1692 <fflush+0x5a>
    166a:	2300      	mov	r3, #0
    166c:	60ab      	str	r3, [r5, #8]
    166e:	2c00      	cmp	r4, #0
    1670:	dd0b      	ble	168a <fflush+0x52>
    1672:	69e8      	ldr	r0, [r5, #28]
    1674:	6a6b      	ldr	r3, [r5, #36]
    1676:	1c31      	mov	r1, r6		(add r1, r6, #0)
    1678:	1c22      	mov	r2, r4		(add r2, r4, #0)
    167a:	f823f000 	bl	16c4 <.text+0x16c4>
    167e:	2800      	cmp	r0, #0
    1680:	dd0c      	ble	169c <fflush+0x64>
    1682:	1a24      	sub	r4, r4, r0
    1684:	1836      	add	r6, r6, r0
    1686:	2c00      	cmp	r4, #0
    1688:	dcf3      	bgt	1672 <fflush+0x3a>
    168a:	2000      	mov	r0, #0
    168c:	bc70      	pop	{r4, r5, r6}
    168e:	bc02      	pop	{r1}
    1690:	4708      	bx	r1
    1692:	696b      	ldr	r3, [r5, #20]
    1694:	e7ea      	b	166c <fflush+0x34>
    1696:	f867f000 	bl	1768 <__sinit>
    169a:	e7d8      	b	164e <fflush+0x16>
    169c:	89ab      	ldrh	r3, [r5, #12]
    169e:	2240      	mov	r2, #64
    16a0:	2001      	mov	r0, #1
    16a2:	4313      	orr	r3, r2
    16a4:	4240      	neg	r0, r0
    16a6:	81ab      	strh	r3, [r5, #12]
    16a8:	e7f0      	b	168c <fflush+0x54>
    16aa:	4b04      	ldr	r3, [pc, #16]	(16bc <.text+0x16bc>)
    16ac:	4904      	ldr	r1, [pc, #16]	(16c0 <.text+0x16c0>)
    16ae:	6818      	ldr	r0, [r3, #0]
    16b0:	fb6ef000 	bl	1d90 <_fwalk>
    16b4:	e7ea      	b	168c <fflush+0x54>
    16b6:	0000      	lsl	r0, r0, #0
    16b8:	0400      	lsl	r0, r0, #16
    16ba:	4000      	and	r0, r0
    16bc:	2fac      	cmp	r7, #172
    16be:	0000      	lsl	r0, r0, #0
    16c0:	1639      	asr	r1, r7, #24
    16c2:	0000      	lsl	r0, r0, #0
    16c4:	4718      	bx	r3
    16c6:	46c0      	nop			(mov r8, r8)

000016c8 <std>:
    16c8:	2300      	mov	r3, #0
    16ca:	6003      	str	r3, [r0, #0]
    16cc:	6043      	str	r3, [r0, #4]
    16ce:	6083      	str	r3, [r0, #8]
    16d0:	6103      	str	r3, [r0, #16]
    16d2:	6143      	str	r3, [r0, #20]
    16d4:	6183      	str	r3, [r0, #24]
    16d6:	4b06      	ldr	r3, [pc, #24]	(16f0 <.text+0x16f0>)
    16d8:	6203      	str	r3, [r0, #32]
    16da:	4b06      	ldr	r3, [pc, #24]	(16f4 <.text+0x16f4>)
    16dc:	6243      	str	r3, [r0, #36]
    16de:	4b06      	ldr	r3, [pc, #24]	(16f8 <.text+0x16f8>)
    16e0:	6283      	str	r3, [r0, #40]
    16e2:	4b06      	ldr	r3, [pc, #24]	(16fc <.text+0x16fc>)
    16e4:	8181      	strh	r1, [r0, #12]
    16e6:	81c2      	strh	r2, [r0, #14]
    16e8:	61c0      	str	r0, [r0, #28]
    16ea:	62c3      	str	r3, [r0, #44]
    16ec:	4770      	bx	lr
    16ee:	0000      	lsl	r0, r0, #0
    16f0:	2a55      	cmp	r2, #85
    16f2:	0000      	lsl	r0, r0, #0
    16f4:	2a91      	cmp	r2, #145
    16f6:	0000      	lsl	r0, r0, #0
    16f8:	2add      	cmp	r2, #221
    16fa:	0000      	lsl	r0, r0, #0
    16fc:	2b1d      	cmp	r3, #29
	...

00001700 <__sfmoreglue>:
    1700:	b570      	push	{r4, r5, r6, lr}
    1702:	235c      	mov	r3, #92
    1704:	1c0e      	mov	r6, r1		(add r6, r1, #0)
    1706:	435e      	mul	r6, r3
    1708:	1c0d      	mov	r5, r1		(add r5, r1, #0)
    170a:	1c31      	mov	r1, r6		(add r1, r6, #0)
    170c:	310c      	add	r1, #12
    170e:	fc5ff000 	bl	1fd0 <_malloc_r>
    1712:	1c04      	mov	r4, r0		(add r4, r0, #0)
    1714:	2800      	cmp	r0, #0
    1716:	d008      	beq	172a <__sfmoreglue+0x2a>
    1718:	300c      	add	r0, #12
    171a:	2300      	mov	r3, #0
    171c:	6023      	str	r3, [r4, #0]
    171e:	6065      	str	r5, [r4, #4]
    1720:	60a0      	str	r0, [r4, #8]
    1722:	2100      	mov	r1, #0
    1724:	1c32      	mov	r2, r6		(add r2, r6, #0)
    1726:	ff87f000 	bl	2638 <memset>
    172a:	1c20      	mov	r0, r4		(add r0, r4, #0)
    172c:	bc70      	pop	{r4, r5, r6}
    172e:	bc02      	pop	{r1}
    1730:	4708      	bx	r1
	...

00001734 <__sfp_lock_acquire>:
    1734:	4770      	bx	lr
	...

00001738 <__sfp_lock_release>:
    1738:	4770      	bx	lr
	...

0000173c <_cleanup_r>:
    173c:	b500      	push	{lr}
    173e:	4902      	ldr	r1, [pc, #8]	(1748 <.text+0x1748>)
    1740:	fb26f000 	bl	1d90 <_fwalk>
    1744:	bc01      	pop	{r0}
    1746:	4700      	bx	r0
    1748:	2cad      	cmp	r4, #173
	...

0000174c <_cleanup>:
    174c:	b500      	push	{lr}
    174e:	4b03      	ldr	r3, [pc, #12]	(175c <.text+0x175c>)
    1750:	6818      	ldr	r0, [r3, #0]
    1752:	fff3f7ff 	bl	173c <_cleanup_r>
    1756:	bc01      	pop	{r0}
    1758:	4700      	bx	r0
    175a:	0000      	lsl	r0, r0, #0
    175c:	2fac      	cmp	r7, #172
	...

00001760 <__sinit_lock_acquire>:
    1760:	4770      	bx	lr
	...

00001764 <__sinit_lock_release>:
    1764:	4770      	bx	lr
	...

00001768 <__sinit>:
    1768:	b510      	push	{r4, lr}
    176a:	6b82      	ldr	r2, [r0, #56]
    176c:	1c04      	mov	r4, r0		(add r4, r0, #0)
    176e:	2a00      	cmp	r2, #0
    1770:	d122      	bne	17b8 <__sinit+0x50>
    1772:	4b13      	ldr	r3, [pc, #76]	(17c0 <.text+0x17c0>)
    1774:	63c3      	str	r3, [r0, #60]
    1776:	2301      	mov	r3, #1
    1778:	6383      	str	r3, [r0, #56]
    177a:	23b8      	mov	r3, #184
    177c:	009b      	lsl	r3, r3, #2
    177e:	50c2      	str	r2, [r0, r3]
    1780:	23b9      	mov	r3, #185
    1782:	009b      	lsl	r3, r3, #2
    1784:	2203      	mov	r2, #3
    1786:	21bb      	mov	r1, #187
    1788:	50c2      	str	r2, [r0, r3]
    178a:	0089      	lsl	r1, r1, #2
    178c:	23ba      	mov	r3, #186
    178e:	1842      	add	r2, r0, r1
    1790:	009b      	lsl	r3, r3, #2
    1792:	50c2      	str	r2, [r0, r3]
    1794:	2104      	mov	r1, #4
    1796:	6840      	ldr	r0, [r0, #4]
    1798:	2200      	mov	r2, #0
    179a:	1c23      	mov	r3, r4		(add r3, r4, #0)
    179c:	ff94f7ff 	bl	16c8 <std>
    17a0:	68a0      	ldr	r0, [r4, #8]
    17a2:	2109      	mov	r1, #9
    17a4:	2201      	mov	r2, #1
    17a6:	1c23      	mov	r3, r4		(add r3, r4, #0)
    17a8:	ff8ef7ff 	bl	16c8 <std>
    17ac:	68e0      	ldr	r0, [r4, #12]
    17ae:	210a      	mov	r1, #10
    17b0:	2202      	mov	r2, #2
    17b2:	1c23      	mov	r3, r4		(add r3, r4, #0)
    17b4:	ff88f7ff 	bl	16c8 <std>
    17b8:	bc10      	pop	{r4}
    17ba:	bc01      	pop	{r0}
    17bc:	4700      	bx	r0
    17be:	0000      	lsl	r0, r0, #0
    17c0:	173d      	asr	r5, r7, #28
	...

000017c4 <__sfp>:
    17c4:	b5f0      	push	{r4, r5, r6, r7, lr}
    17c6:	4b21      	ldr	r3, [pc, #132]	(184c <.text+0x184c>)
    17c8:	681c      	ldr	r4, [r3, #0]
    17ca:	6ba3      	ldr	r3, [r4, #56]
    17cc:	1c07      	mov	r7, r0		(add r7, r0, #0)
    17ce:	2b00      	cmp	r3, #0
    17d0:	d02c      	beq	182c <__sfp+0x68>
    17d2:	23b8      	mov	r3, #184
    17d4:	009b      	lsl	r3, r3, #2
    17d6:	18e5      	add	r5, r4, r3
    17d8:	2600      	mov	r6, #0
    17da:	686b      	ldr	r3, [r5, #4]
    17dc:	68a8      	ldr	r0, [r5, #8]
    17de:	1e5c      	sub	r4, r3, #1
    17e0:	d41f      	bmi	1822 <__sfp+0x5e>
    17e2:	8983      	ldrh	r3, [r0, #12]
    17e4:	2b00      	cmp	r3, #0
    17e6:	d00a      	beq	17fe <__sfp+0x3a>
    17e8:	1c01      	mov	r1, r0		(add r1, r0, #0)
    17ea:	3168      	add	r1, #104
    17ec:	2200      	mov	r2, #0
    17ee:	305c      	add	r0, #92
    17f0:	42a2      	cmp	r2, r4
    17f2:	d016      	beq	1822 <__sfp+0x5e>
    17f4:	880b      	ldrh	r3, [r1, #0]
    17f6:	3201      	add	r2, #1
    17f8:	315c      	add	r1, #92
    17fa:	2b00      	cmp	r3, #0
    17fc:	d1f7      	bne	17ee <__sfp+0x2a>
    17fe:	2301      	mov	r3, #1
    1800:	425b      	neg	r3, r3
    1802:	81c3      	strh	r3, [r0, #14]
    1804:	2301      	mov	r3, #1
    1806:	8183      	strh	r3, [r0, #12]
    1808:	6006      	str	r6, [r0, #0]
    180a:	6086      	str	r6, [r0, #8]
    180c:	6046      	str	r6, [r0, #4]
    180e:	6106      	str	r6, [r0, #16]
    1810:	6146      	str	r6, [r0, #20]
    1812:	6186      	str	r6, [r0, #24]
    1814:	6306      	str	r6, [r0, #48]
    1816:	6346      	str	r6, [r0, #52]
    1818:	6446      	str	r6, [r0, #68]
    181a:	6486      	str	r6, [r0, #72]
    181c:	bcf0      	pop	{r4, r5, r6, r7}
    181e:	bc02      	pop	{r1}
    1820:	4708      	bx	r1
    1822:	6828      	ldr	r0, [r5, #0]
    1824:	2800      	cmp	r0, #0
    1826:	d005      	beq	1834 <__sfp+0x70>
    1828:	1c05      	mov	r5, r0		(add r5, r0, #0)
    182a:	e7d6      	b	17da <__sfp+0x16>
    182c:	1c20      	mov	r0, r4		(add r0, r4, #0)
    182e:	ff9bf7ff 	bl	1768 <__sinit>
    1832:	e7ce      	b	17d2 <__sfp+0xe>
    1834:	1c38      	mov	r0, r7		(add r0, r7, #0)
    1836:	2104      	mov	r1, #4
    1838:	ff62f7ff 	bl	1700 <__sfmoreglue>
    183c:	6028      	str	r0, [r5, #0]
    183e:	2800      	cmp	r0, #0
    1840:	d1f2      	bne	1828 <__sfp+0x64>
    1842:	230c      	mov	r3, #12
    1844:	2000      	mov	r0, #0
    1846:	603b      	str	r3, [r7, #0]
    1848:	e7e8      	b	181c <__sfp+0x58>
    184a:	0000      	lsl	r0, r0, #0
    184c:	2fac      	cmp	r7, #172
	...

00001850 <__fp_lock>:
    1850:	2000      	mov	r0, #0
    1852:	4770      	bx	lr

00001854 <__fp_unlock>:
    1854:	2000      	mov	r0, #0
    1856:	4770      	bx	lr

00001858 <__fp_lock_all>:
    1858:	b500      	push	{lr}
    185a:	4b03      	ldr	r3, [pc, #12]	(1868 <.text+0x1868>)
    185c:	4903      	ldr	r1, [pc, #12]	(186c <.text+0x186c>)
    185e:	6818      	ldr	r0, [r3, #0]
    1860:	fa96f000 	bl	1d90 <_fwalk>
    1864:	bc01      	pop	{r0}
    1866:	4700      	bx	r0
    1868:	0400      	lsl	r0, r0, #16
    186a:	4000      	and	r0, r0
    186c:	1851      	add	r1, r2, r1
	...

00001870 <__fp_unlock_all>:
    1870:	b500      	push	{lr}
    1872:	4b03      	ldr	r3, [pc, #12]	(1880 <.text+0x1880>)
    1874:	4903      	ldr	r1, [pc, #12]	(1884 <.text+0x1884>)
    1876:	6818      	ldr	r0, [r3, #0]
    1878:	fa8af000 	bl	1d90 <_fwalk>
    187c:	bc01      	pop	{r0}
    187e:	4700      	bx	r0
    1880:	0400      	lsl	r0, r0, #16
    1882:	4000      	and	r0, r0
    1884:	1855      	add	r5, r2, r1
	...

00001888 <_malloc_trim_r>:
    1888:	b5f0      	push	{r4, r5, r6, r7, lr}
    188a:	1c0c      	mov	r4, r1		(add r4, r1, #0)
    188c:	1c06      	mov	r6, r0		(add r6, r0, #0)
    188e:	ff07f000 	bl	26a0 <__malloc_lock>
    1892:	4f21      	ldr	r7, [pc, #132]	(1918 <.text+0x1918>)
    1894:	68bb      	ldr	r3, [r7, #8]
    1896:	685a      	ldr	r2, [r3, #4]
    1898:	2303      	mov	r3, #3
    189a:	1c15      	mov	r5, r2		(add r5, r2, #0)
    189c:	439d      	bic	r5, r3
    189e:	4b1f      	ldr	r3, [pc, #124]	(191c <.text+0x191c>)
    18a0:	1b2c      	sub	r4, r5, r4
    18a2:	18e4      	add	r4, r4, r3
    18a4:	0b24      	lsr	r4, r4, #12
    18a6:	3c01      	sub	r4, #1
    18a8:	0324      	lsl	r4, r4, #12
    18aa:	3310      	add	r3, #16
    18ac:	429c      	cmp	r4, r3
    18ae:	dd07      	ble	18c0 <_malloc_trim_r+0x38>
    18b0:	1c30      	mov	r0, r6		(add r0, r6, #0)
    18b2:	2100      	mov	r1, #0
    18b4:	fcf8f7fe 	bl	2a8 <_sbrk_r>
    18b8:	68bb      	ldr	r3, [r7, #8]
    18ba:	195b      	add	r3, r3, r5
    18bc:	4298      	cmp	r0, r3
    18be:	d006      	beq	18ce <_malloc_trim_r+0x46>
    18c0:	1c30      	mov	r0, r6		(add r0, r6, #0)
    18c2:	feeff000 	bl	26a4 <__malloc_unlock>
    18c6:	2000      	mov	r0, #0
    18c8:	bcf0      	pop	{r4, r5, r6, r7}
    18ca:	bc02      	pop	{r1}
    18cc:	4708      	bx	r1
    18ce:	4261      	neg	r1, r4
    18d0:	1c30      	mov	r0, r6		(add r0, r6, #0)
    18d2:	fce9f7fe 	bl	2a8 <_sbrk_r>
    18d6:	3001      	add	r0, #1
    18d8:	d00d      	beq	18f6 <_malloc_trim_r+0x6e>
    18da:	2201      	mov	r2, #1
    18dc:	1b2b      	sub	r3, r5, r4
    18de:	4313      	orr	r3, r2
    18e0:	68b9      	ldr	r1, [r7, #8]
    18e2:	4a0f      	ldr	r2, [pc, #60]	(1920 <.text+0x1920>)
    18e4:	604b      	str	r3, [r1, #4]
    18e6:	6813      	ldr	r3, [r2, #0]
    18e8:	1b1b      	sub	r3, r3, r4
    18ea:	1c30      	mov	r0, r6		(add r0, r6, #0)
    18ec:	6013      	str	r3, [r2, #0]
    18ee:	fed9f000 	bl	26a4 <__malloc_unlock>
    18f2:	2001      	mov	r0, #1
    18f4:	e7e8      	b	18c8 <_malloc_trim_r+0x40>
    18f6:	2100      	mov	r1, #0
    18f8:	1c30      	mov	r0, r6		(add r0, r6, #0)
    18fa:	fcd5f7fe 	bl	2a8 <_sbrk_r>
    18fe:	68bc      	ldr	r4, [r7, #8]
    1900:	1b01      	sub	r1, r0, r4
    1902:	290f      	cmp	r1, #15
    1904:	dddc      	ble	18c0 <_malloc_trim_r+0x38>
    1906:	4b07      	ldr	r3, [pc, #28]	(1924 <.text+0x1924>)
    1908:	681b      	ldr	r3, [r3, #0]
    190a:	4a05      	ldr	r2, [pc, #20]	(1920 <.text+0x1920>)
    190c:	1ac3      	sub	r3, r0, r3
    190e:	6013      	str	r3, [r2, #0]
    1910:	2301      	mov	r3, #1
    1912:	430b      	orr	r3, r1
    1914:	6063      	str	r3, [r4, #4]
    1916:	e7d3      	b	18c0 <_malloc_trim_r+0x38>
    1918:	0420      	lsl	r0, r4, #16
    191a:	4000      	and	r0, r0
    191c:	0fef      	lsr	r7, r5, #31
    191e:	0000      	lsl	r0, r0, #0
    1920:	0838      	lsr	r0, r7, #0
    1922:	4000      	and	r0, r0
    1924:	0418      	lsl	r0, r3, #16
    1926:	4000      	and	r0, r0

00001928 <_free_r>:
    1928:	b5f0      	push	{r4, r5, r6, r7, lr}
    192a:	4657      	mov	r7, sl
    192c:	4646      	mov	r6, r8
    192e:	b4c0      	push	{r6, r7}
    1930:	4680      	mov	r8, r0
    1932:	1c0c      	mov	r4, r1		(add r4, r1, #0)
    1934:	2900      	cmp	r1, #0
    1936:	d030      	beq	199a <_free_r+0x72>
    1938:	1c25      	mov	r5, r4		(add r5, r4, #0)
    193a:	3d08      	sub	r5, #8
    193c:	feb0f000 	bl	26a0 <__malloc_lock>
    1940:	686c      	ldr	r4, [r5, #4]
    1942:	2701      	mov	r7, #1
    1944:	1c21      	mov	r1, r4		(add r1, r4, #0)
    1946:	43b9      	bic	r1, r7
    1948:	1868      	add	r0, r5, r1
    194a:	6843      	ldr	r3, [r0, #4]
    194c:	2203      	mov	r2, #3
    194e:	1c1e      	mov	r6, r3		(add r6, r3, #0)
    1950:	4396      	bic	r6, r2
    1952:	4a60      	ldr	r2, [pc, #384]	(1ad4 <.text+0x1ad4>)
    1954:	6893      	ldr	r3, [r2, #8]
    1956:	4694      	mov	ip, r2
    1958:	4692      	mov	sl, r2
    195a:	4298      	cmp	r0, r3
    195c:	d066      	beq	1a2c <_free_r+0x104>
    195e:	6046      	str	r6, [r0, #4]
    1960:	423c      	tst	r4, r7
    1962:	d10b      	bne	197c <_free_r+0x54>
    1964:	682b      	ldr	r3, [r5, #0]
    1966:	1aed      	sub	r5, r5, r3
    1968:	18c9      	add	r1, r1, r3
    196a:	68aa      	ldr	r2, [r5, #8]
    196c:	4663      	mov	r3, ip
    196e:	3308      	add	r3, #8
    1970:	429a      	cmp	r2, r3
    1972:	d100      	bne	1976 <_free_r+0x4e>
    1974:	e07b      	b	1a6e <_free_r+0x146>
    1976:	68eb      	ldr	r3, [r5, #12]
    1978:	60d3      	str	r3, [r2, #12]
    197a:	609a      	str	r2, [r3, #8]
    197c:	2400      	mov	r4, #0
    197e:	1983      	add	r3, r0, r6
    1980:	685b      	ldr	r3, [r3, #4]
    1982:	07da      	lsl	r2, r3, #31
    1984:	d52a      	bpl	19dc <_free_r+0xb4>
    1986:	2001      	mov	r0, #1
    1988:	1c0b      	mov	r3, r1		(add r3, r1, #0)
    198a:	4303      	orr	r3, r0
    198c:	606b      	str	r3, [r5, #4]
    198e:	5069      	str	r1, [r5, r1]
    1990:	2c00      	cmp	r4, #0
    1992:	d008      	beq	19a6 <_free_r+0x7e>
    1994:	4640      	mov	r0, r8
    1996:	fe85f000 	bl	26a4 <__malloc_unlock>
    199a:	bc0c      	pop	{r2, r3}
    199c:	4690      	mov	r8, r2
    199e:	469a      	mov	sl, r3
    19a0:	bcf0      	pop	{r4, r5, r6, r7}
    19a2:	bc01      	pop	{r0}
    19a4:	4700      	bx	r0
    19a6:	4b4c      	ldr	r3, [pc, #304]	(1ad8 <.text+0x1ad8>)
    19a8:	4299      	cmp	r1, r3
    19aa:	d92c      	bls	1a06 <_free_r+0xde>
    19ac:	0a4a      	lsr	r2, r1, #9
    19ae:	2a00      	cmp	r2, #0
    19b0:	d155      	bne	1a5e <_free_r+0x136>
    19b2:	08cb      	lsr	r3, r1, #3
    19b4:	00da      	lsl	r2, r3, #3
    19b6:	4650      	mov	r0, sl
    19b8:	1814      	add	r4, r2, r0
    19ba:	68a0      	ldr	r0, [r4, #8]
    19bc:	4284      	cmp	r4, r0
    19be:	d05e      	beq	1a7e <_free_r+0x156>
    19c0:	6843      	ldr	r3, [r0, #4]
    19c2:	2203      	mov	r2, #3
    19c4:	4393      	bic	r3, r2
    19c6:	4299      	cmp	r1, r3
    19c8:	d202      	bcs	19d0 <_free_r+0xa8>
    19ca:	6880      	ldr	r0, [r0, #8]
    19cc:	4284      	cmp	r4, r0
    19ce:	d1f7      	bne	19c0 <_free_r+0x98>
    19d0:	68c4      	ldr	r4, [r0, #12]
    19d2:	60ec      	str	r4, [r5, #12]
    19d4:	60a8      	str	r0, [r5, #8]
    19d6:	60c5      	str	r5, [r0, #12]
    19d8:	60a5      	str	r5, [r4, #8]
    19da:	e7db      	b	1994 <_free_r+0x6c>
    19dc:	1989      	add	r1, r1, r6
    19de:	2c00      	cmp	r4, #0
    19e0:	d10f      	bne	1a02 <_free_r+0xda>
    19e2:	4653      	mov	r3, sl
    19e4:	6882      	ldr	r2, [r0, #8]
    19e6:	3308      	add	r3, #8
    19e8:	429a      	cmp	r2, r3
    19ea:	d052      	beq	1a92 <_free_r+0x16a>
    19ec:	68c3      	ldr	r3, [r0, #12]
    19ee:	2001      	mov	r0, #1
    19f0:	60d3      	str	r3, [r2, #12]
    19f2:	609a      	str	r2, [r3, #8]
    19f4:	1c0b      	mov	r3, r1		(add r3, r1, #0)
    19f6:	4303      	orr	r3, r0
    19f8:	606b      	str	r3, [r5, #4]
    19fa:	5069      	str	r1, [r5, r1]
    19fc:	2c00      	cmp	r4, #0
    19fe:	d1c9      	bne	1994 <_free_r+0x6c>
    1a00:	e7d1      	b	19a6 <_free_r+0x7e>
    1a02:	6882      	ldr	r2, [r0, #8]
    1a04:	e7f2      	b	19ec <_free_r+0xc4>
    1a06:	08c9      	lsr	r1, r1, #3
    1a08:	1c0a      	mov	r2, r1		(add r2, r1, #0)
    1a0a:	2900      	cmp	r1, #0
    1a0c:	db35      	blt	1a7a <_free_r+0x152>
    1a0e:	1092      	asr	r2, r2, #2
    1a10:	4090      	lsl	r0, r2
    1a12:	1c02      	mov	r2, r0		(add r2, r0, #0)
    1a14:	4660      	mov	r0, ip
    1a16:	6843      	ldr	r3, [r0, #4]
    1a18:	4313      	orr	r3, r2
    1a1a:	6043      	str	r3, [r0, #4]
    1a1c:	00cb      	lsl	r3, r1, #3
    1a1e:	4453      	add	r3, sl
    1a20:	689a      	ldr	r2, [r3, #8]
    1a22:	60eb      	str	r3, [r5, #12]
    1a24:	60aa      	str	r2, [r5, #8]
    1a26:	60d5      	str	r5, [r2, #12]
    1a28:	609d      	str	r5, [r3, #8]
    1a2a:	e7b3      	b	1994 <_free_r+0x6c>
    1a2c:	1989      	add	r1, r1, r6
    1a2e:	423c      	tst	r4, r7
    1a30:	d106      	bne	1a40 <_free_r+0x118>
    1a32:	682b      	ldr	r3, [r5, #0]
    1a34:	1aed      	sub	r5, r5, r3
    1a36:	68ea      	ldr	r2, [r5, #12]
    1a38:	18c9      	add	r1, r1, r3
    1a3a:	68ab      	ldr	r3, [r5, #8]
    1a3c:	60da      	str	r2, [r3, #12]
    1a3e:	6093      	str	r3, [r2, #8]
    1a40:	1c0b      	mov	r3, r1		(add r3, r1, #0)
    1a42:	433b      	orr	r3, r7
    1a44:	606b      	str	r3, [r5, #4]
    1a46:	4663      	mov	r3, ip
    1a48:	609d      	str	r5, [r3, #8]
    1a4a:	4b24      	ldr	r3, [pc, #144]	(1adc <.text+0x1adc>)
    1a4c:	681b      	ldr	r3, [r3, #0]
    1a4e:	4299      	cmp	r1, r3
    1a50:	d3a0      	bcc	1994 <_free_r+0x6c>
    1a52:	4b23      	ldr	r3, [pc, #140]	(1ae0 <.text+0x1ae0>)
    1a54:	4640      	mov	r0, r8
    1a56:	6819      	ldr	r1, [r3, #0]
    1a58:	ff16f7ff 	bl	1888 <_malloc_trim_r>
    1a5c:	e79a      	b	1994 <_free_r+0x6c>
    1a5e:	2a04      	cmp	r2, #4
    1a60:	d907      	bls	1a72 <_free_r+0x14a>
    1a62:	2a14      	cmp	r2, #20
    1a64:	d81b      	bhi	1a9e <_free_r+0x176>
    1a66:	1c13      	mov	r3, r2		(add r3, r2, #0)
    1a68:	335b      	add	r3, #91
    1a6a:	00da      	lsl	r2, r3, #3
    1a6c:	e7a3      	b	19b6 <_free_r+0x8e>
    1a6e:	2401      	mov	r4, #1
    1a70:	e785      	b	197e <_free_r+0x56>
    1a72:	098b      	lsr	r3, r1, #6
    1a74:	3338      	add	r3, #56
    1a76:	00da      	lsl	r2, r3, #3
    1a78:	e79d      	b	19b6 <_free_r+0x8e>
    1a7a:	1cca      	add	r2, r1, #3
    1a7c:	e7c7      	b	1a0e <_free_r+0xe6>
    1a7e:	2b00      	cmp	r3, #0
    1a80:	db1b      	blt	1aba <_free_r+0x192>
    1a82:	109b      	asr	r3, r3, #2
    1a84:	4661      	mov	r1, ip
    1a86:	2201      	mov	r2, #1
    1a88:	409a      	lsl	r2, r3
    1a8a:	684b      	ldr	r3, [r1, #4]
    1a8c:	4313      	orr	r3, r2
    1a8e:	604b      	str	r3, [r1, #4]
    1a90:	e79f      	b	19d2 <_free_r+0xaa>
    1a92:	2401      	mov	r4, #1
    1a94:	60d5      	str	r5, [r2, #12]
    1a96:	6095      	str	r5, [r2, #8]
    1a98:	60ea      	str	r2, [r5, #12]
    1a9a:	60aa      	str	r2, [r5, #8]
    1a9c:	e773      	b	1986 <_free_r+0x5e>
    1a9e:	2a54      	cmp	r2, #84
    1aa0:	d803      	bhi	1aaa <_free_r+0x182>
    1aa2:	0b0b      	lsr	r3, r1, #12
    1aa4:	336e      	add	r3, #110
    1aa6:	00da      	lsl	r2, r3, #3
    1aa8:	e785      	b	19b6 <_free_r+0x8e>
    1aaa:	23aa      	mov	r3, #170
    1aac:	005b      	lsl	r3, r3, #1
    1aae:	429a      	cmp	r2, r3
    1ab0:	d805      	bhi	1abe <_free_r+0x196>
    1ab2:	0bcb      	lsr	r3, r1, #15
    1ab4:	3377      	add	r3, #119
    1ab6:	00da      	lsl	r2, r3, #3
    1ab8:	e77d      	b	19b6 <_free_r+0x8e>
    1aba:	3303      	add	r3, #3
    1abc:	e7e1      	b	1a82 <_free_r+0x15a>
    1abe:	4b09      	ldr	r3, [pc, #36]	(1ae4 <.text+0x1ae4>)
    1ac0:	429a      	cmp	r2, r3
    1ac2:	d903      	bls	1acc <_free_r+0x1a4>
    1ac4:	22fc      	mov	r2, #252
    1ac6:	237e      	mov	r3, #126
    1ac8:	0092      	lsl	r2, r2, #2
    1aca:	e774      	b	19b6 <_free_r+0x8e>
    1acc:	0c8b      	lsr	r3, r1, #18
    1ace:	337c      	add	r3, #124
    1ad0:	00da      	lsl	r2, r3, #3
    1ad2:	e770      	b	19b6 <_free_r+0x8e>
    1ad4:	0420      	lsl	r0, r4, #16
    1ad6:	4000      	and	r0, r0
    1ad8:	01ff      	lsl	r7, r7, #7
    1ada:	0000      	lsl	r0, r0, #0
    1adc:	041c      	lsl	r4, r3, #16
    1ade:	4000      	and	r0, r0
    1ae0:	0868      	lsr	r0, r5, #1
    1ae2:	4000      	and	r0, r0
    1ae4:	0554      	lsl	r4, r2, #21
	...

00001ae8 <__sfvwrite>:
    1ae8:	b5f0      	push	{r4, r5, r6, r7, lr}
    1aea:	465f      	mov	r7, fp
    1aec:	4656      	mov	r6, sl
    1aee:	464d      	mov	r5, r9
    1af0:	4644      	mov	r4, r8
    1af2:	b4f0      	push	{r4, r5, r6, r7}
    1af4:	688b      	ldr	r3, [r1, #8]
    1af6:	b082      	sub	sp, #8
    1af8:	1c06      	mov	r6, r0		(add r6, r0, #0)
    1afa:	4689      	mov	r9, r1
    1afc:	2b00      	cmp	r3, #0
    1afe:	d036      	beq	1b6e <__sfvwrite+0x86>
    1b00:	8982      	ldrh	r2, [r0, #12]
    1b02:	2308      	mov	r3, #8
    1b04:	4213      	tst	r3, r2
    1b06:	d100      	bne	1b0a <__sfvwrite+0x22>
    1b08:	e130      	b	1d6c <__sfvwrite+0x284>
    1b0a:	6903      	ldr	r3, [r0, #16]
    1b0c:	2b00      	cmp	r3, #0
    1b0e:	d100      	bne	1b12 <__sfvwrite+0x2a>
    1b10:	e12c      	b	1d6c <__sfvwrite+0x284>
    1b12:	4649      	mov	r1, r9
    1b14:	6809      	ldr	r1, [r1, #0]
    1b16:	0413      	lsl	r3, r2, #16
    1b18:	0c1b      	lsr	r3, r3, #16
    1b1a:	468b      	mov	fp, r1
    1b1c:	0799      	lsl	r1, r3, #30
    1b1e:	d530      	bpl	1b82 <__sfvwrite+0x9a>
    1b20:	465a      	mov	r2, fp
    1b22:	6854      	ldr	r4, [r2, #4]
    1b24:	2308      	mov	r3, #8
    1b26:	6815      	ldr	r5, [r2, #0]
    1b28:	449b      	add	fp, r3
    1b2a:	2c00      	cmp	r4, #0
    1b2c:	d0f8      	beq	1b20 <__sfvwrite+0x38>
    1b2e:	2780      	mov	r7, #128
    1b30:	00ff      	lsl	r7, r7, #3
    1b32:	e009      	b	1b48 <__sfvwrite+0x60>
    1b34:	4649      	mov	r1, r9
    1b36:	688b      	ldr	r3, [r1, #8]
    1b38:	1a1b      	sub	r3, r3, r0
    1b3a:	182d      	add	r5, r5, r0
    1b3c:	1a24      	sub	r4, r4, r0
    1b3e:	608b      	str	r3, [r1, #8]
    1b40:	2b00      	cmp	r3, #0
    1b42:	d014      	beq	1b6e <__sfvwrite+0x86>
    1b44:	2c00      	cmp	r4, #0
    1b46:	d0eb      	beq	1b20 <__sfvwrite+0x38>
    1b48:	69f0      	ldr	r0, [r6, #28]
    1b4a:	1c22      	mov	r2, r4		(add r2, r4, #0)
    1b4c:	42bc      	cmp	r4, r7
    1b4e:	d901      	bls	1b54 <__sfvwrite+0x6c>
    1b50:	2280      	mov	r2, #128
    1b52:	00d2      	lsl	r2, r2, #3
    1b54:	6a73      	ldr	r3, [r6, #36]
    1b56:	1c29      	mov	r1, r5		(add r1, r5, #0)
    1b58:	f918f000 	bl	1d8c <.text+0x1d8c>
    1b5c:	2800      	cmp	r0, #0
    1b5e:	dce9      	bgt	1b34 <__sfvwrite+0x4c>
    1b60:	89b3      	ldrh	r3, [r6, #12]
    1b62:	2240      	mov	r2, #64
    1b64:	4313      	orr	r3, r2
    1b66:	81b3      	strh	r3, [r6, #12]
    1b68:	2001      	mov	r0, #1
    1b6a:	4240      	neg	r0, r0
    1b6c:	e000      	b	1b70 <__sfvwrite+0x88>
    1b6e:	2000      	mov	r0, #0
    1b70:	b002      	add	sp, #8
    1b72:	bc3c      	pop	{r2, r3, r4, r5}
    1b74:	4690      	mov	r8, r2
    1b76:	4699      	mov	r9, r3
    1b78:	46a2      	mov	sl, r4
    1b7a:	46ab      	mov	fp, r5
    1b7c:	bcf0      	pop	{r4, r5, r6, r7}
    1b7e:	bc02      	pop	{r1}
    1b80:	4708      	bx	r1
    1b82:	07d9      	lsl	r1, r3, #31
    1b84:	d44e      	bmi	1c24 <__sfvwrite+0x13c>
    1b86:	4b80      	ldr	r3, [pc, #512]	(1d88 <.text+0x1d88>)
    1b88:	9300      	str	r3, [sp, #0]
    1b8a:	4659      	mov	r1, fp
    1b8c:	6809      	ldr	r1, [r1, #0]
    1b8e:	465b      	mov	r3, fp
    1b90:	685d      	ldr	r5, [r3, #4]
    1b92:	468a      	mov	sl, r1
    1b94:	2108      	mov	r1, #8
    1b96:	448b      	add	fp, r1
    1b98:	2d00      	cmp	r5, #0
    1b9a:	d0f6      	beq	1b8a <__sfvwrite+0xa2>
    1b9c:	0413      	lsl	r3, r2, #16
    1b9e:	0c1b      	lsr	r3, r3, #16
    1ba0:	68b4      	ldr	r4, [r6, #8]
    1ba2:	059a      	lsl	r2, r3, #22
    1ba4:	d528      	bpl	1bf8 <__sfvwrite+0x110>
    1ba6:	1c22      	mov	r2, r4		(add r2, r4, #0)
    1ba8:	42ac      	cmp	r4, r5
    1baa:	d202      	bcs	1bb2 <__sfvwrite+0xca>
    1bac:	0619      	lsl	r1, r3, #24
    1bae:	d500      	bpl	1bb2 <__sfvwrite+0xca>
    1bb0:	e0c8      	b	1d44 <__sfvwrite+0x25c>
    1bb2:	42aa      	cmp	r2, r5
    1bb4:	d901      	bls	1bba <__sfvwrite+0xd2>
    1bb6:	1c2a      	mov	r2, r5		(add r2, r5, #0)
    1bb8:	1c2c      	mov	r4, r5		(add r4, r5, #0)
    1bba:	6830      	ldr	r0, [r6, #0]
    1bbc:	4651      	mov	r1, sl
    1bbe:	fcf3f000 	bl	25a8 <memmove>
    1bc2:	68b3      	ldr	r3, [r6, #8]
    1bc4:	1b1b      	sub	r3, r3, r4
    1bc6:	60b3      	str	r3, [r6, #8]
    1bc8:	6833      	ldr	r3, [r6, #0]
    1bca:	191b      	add	r3, r3, r4
    1bcc:	6033      	str	r3, [r6, #0]
    1bce:	46a8      	mov	r8, r5
    1bd0:	1c2f      	mov	r7, r5		(add r7, r5, #0)
    1bd2:	1c2c      	mov	r4, r5		(add r4, r5, #0)
    1bd4:	4643      	mov	r3, r8
    1bd6:	4649      	mov	r1, r9
    1bd8:	1aed      	sub	r5, r5, r3
    1bda:	688b      	ldr	r3, [r1, #8]
    1bdc:	1b1b      	sub	r3, r3, r4
    1bde:	44ba      	add	sl, r7
    1be0:	608b      	str	r3, [r1, #8]
    1be2:	2b00      	cmp	r3, #0
    1be4:	d0c3      	beq	1b6e <__sfvwrite+0x86>
    1be6:	2d00      	cmp	r5, #0
    1be8:	d100      	bne	1bec <__sfvwrite+0x104>
    1bea:	e09a      	b	1d22 <__sfvwrite+0x23a>
    1bec:	89b2      	ldrh	r2, [r6, #12]
    1bee:	0413      	lsl	r3, r2, #16
    1bf0:	0c1b      	lsr	r3, r3, #16
    1bf2:	68b4      	ldr	r4, [r6, #8]
    1bf4:	059a      	lsl	r2, r3, #22
    1bf6:	d4d6      	bmi	1ba6 <__sfvwrite+0xbe>
    1bf8:	6830      	ldr	r0, [r6, #0]
    1bfa:	6933      	ldr	r3, [r6, #16]
    1bfc:	4298      	cmp	r0, r3
    1bfe:	d903      	bls	1c08 <__sfvwrite+0x120>
    1c00:	46a0      	mov	r8, r4
    1c02:	42ac      	cmp	r4, r5
    1c04:	d200      	bcs	1c08 <__sfvwrite+0x120>
    1c06:	e08e      	b	1d26 <__sfvwrite+0x23e>
    1c08:	6972      	ldr	r2, [r6, #20]
    1c0a:	42aa      	cmp	r2, r5
    1c0c:	d87b      	bhi	1d06 <__sfvwrite+0x21e>
    1c0e:	69f0      	ldr	r0, [r6, #28]
    1c10:	6a73      	ldr	r3, [r6, #36]
    1c12:	4651      	mov	r1, sl
    1c14:	f8baf000 	bl	1d8c <.text+0x1d8c>
    1c18:	1c04      	mov	r4, r0		(add r4, r0, #0)
    1c1a:	2800      	cmp	r0, #0
    1c1c:	dda0      	ble	1b60 <__sfvwrite+0x78>
    1c1e:	1c07      	mov	r7, r0		(add r7, r0, #0)
    1c20:	4680      	mov	r8, r0
    1c22:	e7d7      	b	1bd4 <__sfvwrite+0xec>
    1c24:	465a      	mov	r2, fp
    1c26:	465b      	mov	r3, fp
    1c28:	6812      	ldr	r2, [r2, #0]
    1c2a:	685f      	ldr	r7, [r3, #4]
    1c2c:	2108      	mov	r1, #8
    1c2e:	4692      	mov	sl, r2
    1c30:	448b      	add	fp, r1
    1c32:	2f00      	cmp	r7, #0
    1c34:	d0f6      	beq	1c24 <__sfvwrite+0x13c>
    1c36:	4650      	mov	r0, sl
    1c38:	210a      	mov	r1, #10
    1c3a:	1c3a      	mov	r2, r7		(add r2, r7, #0)
    1c3c:	fc6cf000 	bl	2518 <memchr>
    1c40:	2800      	cmp	r0, #0
    1c42:	d037      	beq	1cb4 <__sfvwrite+0x1cc>
    1c44:	4651      	mov	r1, sl
    1c46:	1a43      	sub	r3, r0, r1
    1c48:	3301      	add	r3, #1
    1c4a:	4698      	mov	r8, r3
    1c4c:	2201      	mov	r2, #1
    1c4e:	9201      	str	r2, [sp, #4]
    1c50:	4645      	mov	r5, r8
    1c52:	45b8      	cmp	r8, r7
    1c54:	d900      	bls	1c58 <__sfvwrite+0x170>
    1c56:	1c3d      	mov	r5, r7		(add r5, r7, #0)
    1c58:	68b3      	ldr	r3, [r6, #8]
    1c5a:	6972      	ldr	r2, [r6, #20]
    1c5c:	6830      	ldr	r0, [r6, #0]
    1c5e:	189c      	add	r4, r3, r2
    1c60:	6933      	ldr	r3, [r6, #16]
    1c62:	4298      	cmp	r0, r3
    1c64:	d901      	bls	1c6a <__sfvwrite+0x182>
    1c66:	42a5      	cmp	r5, r4
    1c68:	dc40      	bgt	1cec <__sfvwrite+0x204>
    1c6a:	4295      	cmp	r5, r2
    1c6c:	db25      	blt	1cba <__sfvwrite+0x1d2>
    1c6e:	69f0      	ldr	r0, [r6, #28]
    1c70:	6a73      	ldr	r3, [r6, #36]
    1c72:	4651      	mov	r1, sl
    1c74:	f88af000 	bl	1d8c <.text+0x1d8c>
    1c78:	1c04      	mov	r4, r0		(add r4, r0, #0)
    1c7a:	2800      	cmp	r0, #0
    1c7c:	dc00      	bgt	1c80 <__sfvwrite+0x198>
    1c7e:	e76f      	b	1b60 <__sfvwrite+0x78>
    1c80:	4641      	mov	r1, r8
    1c82:	1b09      	sub	r1, r1, r4
    1c84:	4688      	mov	r8, r1
    1c86:	2900      	cmp	r1, #0
    1c88:	d027      	beq	1cda <__sfvwrite+0x1f2>
    1c8a:	4649      	mov	r1, r9
    1c8c:	688b      	ldr	r3, [r1, #8]
    1c8e:	1b1b      	sub	r3, r3, r4
    1c90:	44a2      	add	sl, r4
    1c92:	1b3f      	sub	r7, r7, r4
    1c94:	608b      	str	r3, [r1, #8]
    1c96:	2b00      	cmp	r3, #0
    1c98:	d100      	bne	1c9c <__sfvwrite+0x1b4>
    1c9a:	e768      	b	1b6e <__sfvwrite+0x86>
    1c9c:	2f00      	cmp	r7, #0
    1c9e:	d0c1      	beq	1c24 <__sfvwrite+0x13c>
    1ca0:	9a01      	ldr	r2, [sp, #4]
    1ca2:	2a00      	cmp	r2, #0
    1ca4:	d1d4      	bne	1c50 <__sfvwrite+0x168>
    1ca6:	4650      	mov	r0, sl
    1ca8:	210a      	mov	r1, #10
    1caa:	1c3a      	mov	r2, r7		(add r2, r7, #0)
    1cac:	fc34f000 	bl	2518 <memchr>
    1cb0:	2800      	cmp	r0, #0
    1cb2:	d1c7      	bne	1c44 <__sfvwrite+0x15c>
    1cb4:	1c7b      	add	r3, r7, #1
    1cb6:	4698      	mov	r8, r3
    1cb8:	e7c8      	b	1c4c <__sfvwrite+0x164>
    1cba:	4651      	mov	r1, sl
    1cbc:	1c2a      	mov	r2, r5		(add r2, r5, #0)
    1cbe:	fc73f000 	bl	25a8 <memmove>
    1cc2:	68b3      	ldr	r3, [r6, #8]
    1cc4:	1b5b      	sub	r3, r3, r5
    1cc6:	60b3      	str	r3, [r6, #8]
    1cc8:	6833      	ldr	r3, [r6, #0]
    1cca:	4641      	mov	r1, r8
    1ccc:	1c2c      	mov	r4, r5		(add r4, r5, #0)
    1cce:	195b      	add	r3, r3, r5
    1cd0:	1b09      	sub	r1, r1, r4
    1cd2:	6033      	str	r3, [r6, #0]
    1cd4:	4688      	mov	r8, r1
    1cd6:	2900      	cmp	r1, #0
    1cd8:	d1d7      	bne	1c8a <__sfvwrite+0x1a2>
    1cda:	1c30      	mov	r0, r6		(add r0, r6, #0)
    1cdc:	fcacf7ff 	bl	1638 <fflush>
    1ce0:	2800      	cmp	r0, #0
    1ce2:	d000      	beq	1ce6 <__sfvwrite+0x1fe>
    1ce4:	e73c      	b	1b60 <__sfvwrite+0x78>
    1ce6:	2200      	mov	r2, #0
    1ce8:	9201      	str	r2, [sp, #4]
    1cea:	e7ce      	b	1c8a <__sfvwrite+0x1a2>
    1cec:	4651      	mov	r1, sl
    1cee:	1c22      	mov	r2, r4		(add r2, r4, #0)
    1cf0:	fc5af000 	bl	25a8 <memmove>
    1cf4:	6833      	ldr	r3, [r6, #0]
    1cf6:	191b      	add	r3, r3, r4
    1cf8:	6033      	str	r3, [r6, #0]
    1cfa:	1c30      	mov	r0, r6		(add r0, r6, #0)
    1cfc:	fc9cf7ff 	bl	1638 <fflush>
    1d00:	2800      	cmp	r0, #0
    1d02:	d0bd      	beq	1c80 <__sfvwrite+0x198>
    1d04:	e72c      	b	1b60 <__sfvwrite+0x78>
    1d06:	4651      	mov	r1, sl
    1d08:	1c2a      	mov	r2, r5		(add r2, r5, #0)
    1d0a:	fc4df000 	bl	25a8 <memmove>
    1d0e:	68b3      	ldr	r3, [r6, #8]
    1d10:	1b5b      	sub	r3, r3, r5
    1d12:	60b3      	str	r3, [r6, #8]
    1d14:	6833      	ldr	r3, [r6, #0]
    1d16:	1c2c      	mov	r4, r5		(add r4, r5, #0)
    1d18:	195b      	add	r3, r3, r5
    1d1a:	46a8      	mov	r8, r5
    1d1c:	1c2f      	mov	r7, r5		(add r7, r5, #0)
    1d1e:	6033      	str	r3, [r6, #0]
    1d20:	e758      	b	1bd4 <__sfvwrite+0xec>
    1d22:	89b2      	ldrh	r2, [r6, #12]
    1d24:	e731      	b	1b8a <__sfvwrite+0xa2>
    1d26:	4651      	mov	r1, sl
    1d28:	1c22      	mov	r2, r4		(add r2, r4, #0)
    1d2a:	fc3df000 	bl	25a8 <memmove>
    1d2e:	6833      	ldr	r3, [r6, #0]
    1d30:	191b      	add	r3, r3, r4
    1d32:	6033      	str	r3, [r6, #0]
    1d34:	1c30      	mov	r0, r6		(add r0, r6, #0)
    1d36:	1c27      	mov	r7, r4		(add r7, r4, #0)
    1d38:	fc7ef7ff 	bl	1638 <fflush>
    1d3c:	2800      	cmp	r0, #0
    1d3e:	d100      	bne	1d42 <__sfvwrite+0x25a>
    1d40:	e748      	b	1bd4 <__sfvwrite+0xec>
    1d42:	e70d      	b	1b60 <__sfvwrite+0x78>
    1d44:	6931      	ldr	r1, [r6, #16]
    1d46:	6833      	ldr	r3, [r6, #0]
    1d48:	4a0f      	ldr	r2, [pc, #60]	(1d88 <.text+0x1d88>)
    1d4a:	1a5c      	sub	r4, r3, r1
    1d4c:	1967      	add	r7, r4, r5
    1d4e:	4690      	mov	r8, r2
    1d50:	6810      	ldr	r0, [r2, #0]
    1d52:	1c3a      	mov	r2, r7		(add r2, r7, #0)
    1d54:	fca8f000 	bl	26a8 <_realloc_r>
    1d58:	2800      	cmp	r0, #0
    1d5a:	d00f      	beq	1d7c <__sfvwrite+0x294>
    1d5c:	1903      	add	r3, r0, r4
    1d5e:	1c2a      	mov	r2, r5		(add r2, r5, #0)
    1d60:	1c2c      	mov	r4, r5		(add r4, r5, #0)
    1d62:	6130      	str	r0, [r6, #16]
    1d64:	6033      	str	r3, [r6, #0]
    1d66:	6177      	str	r7, [r6, #20]
    1d68:	60b5      	str	r5, [r6, #8]
    1d6a:	e722      	b	1bb2 <__sfvwrite+0xca>
    1d6c:	1c30      	mov	r0, r6		(add r0, r6, #0)
    1d6e:	fc0ff7ff 	bl	1590 <__swsetup>
    1d72:	2800      	cmp	r0, #0
    1d74:	d000      	beq	1d78 <__sfvwrite+0x290>
    1d76:	e6f7      	b	1b68 <__sfvwrite+0x80>
    1d78:	89b2      	ldrh	r2, [r6, #12]
    1d7a:	e6ca      	b	1b12 <__sfvwrite+0x2a>
    1d7c:	4642      	mov	r2, r8
    1d7e:	6810      	ldr	r0, [r2, #0]
    1d80:	6931      	ldr	r1, [r6, #16]
    1d82:	fdd1f7ff 	bl	1928 <_free_r>
    1d86:	e6eb      	b	1b60 <__sfvwrite+0x78>
    1d88:	0400      	lsl	r0, r0, #16
    1d8a:	4000      	and	r0, r0
    1d8c:	4718      	bx	r3
    1d8e:	46c0      	nop			(mov r8, r8)

00001d90 <_fwalk>:
    1d90:	b5f0      	push	{r4, r5, r6, r7, lr}
    1d92:	4657      	mov	r7, sl
    1d94:	4646      	mov	r6, r8
    1d96:	b4c0      	push	{r6, r7}
    1d98:	1c04      	mov	r4, r0		(add r4, r0, #0)
    1d9a:	4688      	mov	r8, r1
    1d9c:	fccaf7ff 	bl	1734 <__sfp_lock_acquire>
    1da0:	23b8      	mov	r3, #184
    1da2:	009b      	lsl	r3, r3, #2
    1da4:	18e7      	add	r7, r4, r3
    1da6:	2f00      	cmp	r7, #0
    1da8:	d024      	beq	1df4 <_fwalk+0x64>
    1daa:	2300      	mov	r3, #0
    1dac:	469a      	mov	sl, r3
    1dae:	687e      	ldr	r6, [r7, #4]
    1db0:	68bc      	ldr	r4, [r7, #8]
    1db2:	2e01      	cmp	r6, #1
    1db4:	d412      	bmi	1ddc <_fwalk+0x4c>
    1db6:	2500      	mov	r5, #0
    1db8:	89a3      	ldrh	r3, [r4, #12]
    1dba:	2b00      	cmp	r3, #0
    1dbc:	d00a      	beq	1dd4 <_fwalk+0x44>
    1dbe:	89e3      	ldrh	r3, [r4, #14]
    1dc0:	041b      	lsl	r3, r3, #16
    1dc2:	141b      	asr	r3, r3, #16
    1dc4:	3301      	add	r3, #1
    1dc6:	d005      	beq	1dd4 <_fwalk+0x44>
    1dc8:	1c20      	mov	r0, r4		(add r0, r4, #0)
    1dca:	f84ff000 	bl	1e6c <_fwalk_reent+0x70>
    1dce:	4653      	mov	r3, sl
    1dd0:	4303      	orr	r3, r0
    1dd2:	469a      	mov	sl, r3
    1dd4:	3501      	add	r5, #1
    1dd6:	345c      	add	r4, #92
    1dd8:	42ae      	cmp	r6, r5
    1dda:	d1ed      	bne	1db8 <_fwalk+0x28>
    1ddc:	683f      	ldr	r7, [r7, #0]
    1dde:	2f00      	cmp	r7, #0
    1de0:	d1e5      	bne	1dae <_fwalk+0x1e>
    1de2:	fca9f7ff 	bl	1738 <__sfp_lock_release>
    1de6:	4650      	mov	r0, sl
    1de8:	bc0c      	pop	{r2, r3}
    1dea:	4690      	mov	r8, r2
    1dec:	469a      	mov	sl, r3
    1dee:	bcf0      	pop	{r4, r5, r6, r7}
    1df0:	bc02      	pop	{r1}
    1df2:	4708      	bx	r1
    1df4:	2300      	mov	r3, #0
    1df6:	469a      	mov	sl, r3
    1df8:	e7f3      	b	1de2 <_fwalk+0x52>
	...

00001dfc <_fwalk_reent>:
    1dfc:	b5f0      	push	{r4, r5, r6, r7, lr}
    1dfe:	4657      	mov	r7, sl
    1e00:	464e      	mov	r6, r9
    1e02:	4645      	mov	r5, r8
    1e04:	b4e0      	push	{r5, r6, r7}
    1e06:	27b8      	mov	r7, #184
    1e08:	4680      	mov	r8, r0
    1e0a:	00bf      	lsl	r7, r7, #2
    1e0c:	4447      	add	r7, r8
    1e0e:	468a      	mov	sl, r1
    1e10:	fc90f7ff 	bl	1734 <__sfp_lock_acquire>
    1e14:	2f00      	cmp	r7, #0
    1e16:	d026      	beq	1e66 <_fwalk_reent+0x6a>
    1e18:	2300      	mov	r3, #0
    1e1a:	4699      	mov	r9, r3
    1e1c:	687e      	ldr	r6, [r7, #4]
    1e1e:	68bc      	ldr	r4, [r7, #8]
    1e20:	2e01      	cmp	r6, #1
    1e22:	d413      	bmi	1e4c <_fwalk_reent+0x50>
    1e24:	2500      	mov	r5, #0
    1e26:	89a3      	ldrh	r3, [r4, #12]
    1e28:	2b00      	cmp	r3, #0
    1e2a:	d00b      	beq	1e44 <_fwalk_reent+0x48>
    1e2c:	89e3      	ldrh	r3, [r4, #14]
    1e2e:	041b      	lsl	r3, r3, #16
    1e30:	141b      	asr	r3, r3, #16
    1e32:	3301      	add	r3, #1
    1e34:	d006      	beq	1e44 <_fwalk_reent+0x48>
    1e36:	4640      	mov	r0, r8
    1e38:	1c21      	mov	r1, r4		(add r1, r4, #0)
    1e3a:	f818f000 	bl	1e6e <_fwalk_reent+0x72>
    1e3e:	464b      	mov	r3, r9
    1e40:	4303      	orr	r3, r0
    1e42:	4699      	mov	r9, r3
    1e44:	3501      	add	r5, #1
    1e46:	345c      	add	r4, #92
    1e48:	42ae      	cmp	r6, r5
    1e4a:	d1ec      	bne	1e26 <_fwalk_reent+0x2a>
    1e4c:	683f      	ldr	r7, [r7, #0]
    1e4e:	2f00      	cmp	r7, #0
    1e50:	d1e4      	bne	1e1c <_fwalk_reent+0x20>
    1e52:	fc71f7ff 	bl	1738 <__sfp_lock_release>
    1e56:	4648      	mov	r0, r9
    1e58:	bc1c      	pop	{r2, r3, r4}
    1e5a:	4690      	mov	r8, r2
    1e5c:	4699      	mov	r9, r3
    1e5e:	46a2      	mov	sl, r4
    1e60:	bcf0      	pop	{r4, r5, r6, r7}
    1e62:	bc02      	pop	{r1}
    1e64:	4708      	bx	r1
    1e66:	2300      	mov	r3, #0
    1e68:	4699      	mov	r9, r3
    1e6a:	e7f2      	b	1e52 <_fwalk_reent+0x56>
    1e6c:	4740      	bx	r8
    1e6e:	4750      	bx	sl

00001e70 <_setlocale_r>:
    1e70:	b570      	push	{r4, r5, r6, lr}
    1e72:	1c05      	mov	r5, r0		(add r5, r0, #0)
    1e74:	1c0e      	mov	r6, r1		(add r6, r1, #0)
    1e76:	1c14      	mov	r4, r2		(add r4, r2, #0)
    1e78:	2a00      	cmp	r2, #0
    1e7a:	d007      	beq	1e8c <_setlocale_r+0x1c>
    1e7c:	4909      	ldr	r1, [pc, #36]	(1ea4 <.text+0x1ea4>)
    1e7e:	1c10      	mov	r0, r2		(add r0, r2, #0)
    1e80:	fe5af000 	bl	2b38 <strcmp>
    1e84:	2800      	cmp	r0, #0
    1e86:	d105      	bne	1e94 <_setlocale_r+0x24>
    1e88:	632e      	str	r6, [r5, #48]
    1e8a:	636c      	str	r4, [r5, #52]
    1e8c:	4805      	ldr	r0, [pc, #20]	(1ea4 <.text+0x1ea4>)
    1e8e:	bc70      	pop	{r4, r5, r6}
    1e90:	bc02      	pop	{r1}
    1e92:	4708      	bx	r1
    1e94:	4904      	ldr	r1, [pc, #16]	(1ea8 <.text+0x1ea8>)
    1e96:	1c20      	mov	r0, r4		(add r0, r4, #0)
    1e98:	fe4ef000 	bl	2b38 <strcmp>
    1e9c:	2800      	cmp	r0, #0
    1e9e:	d0f3      	beq	1e88 <_setlocale_r+0x18>
    1ea0:	2000      	mov	r0, #0
    1ea2:	e7f4      	b	1e8e <_setlocale_r+0x1e>
    1ea4:	3060      	add	r0, #96
    1ea6:	0000      	lsl	r0, r0, #0
    1ea8:	3020      	add	r0, #32
	...

00001eac <__locale_charset>:
    1eac:	4b01      	ldr	r3, [pc, #4]	(1eb4 <.text+0x1eb4>)
    1eae:	6818      	ldr	r0, [r3, #0]
    1eb0:	4770      	bx	lr
    1eb2:	0000      	lsl	r0, r0, #0
    1eb4:	0414      	lsl	r4, r2, #16
    1eb6:	4000      	and	r0, r0

00001eb8 <_localeconv_r>:
    1eb8:	4800      	ldr	r0, [pc, #0]	(1ebc <.text+0x1ebc>)
    1eba:	4770      	bx	lr
    1ebc:	2fb0      	cmp	r7, #176
	...

00001ec0 <setlocale>:
    1ec0:	b510      	push	{r4, lr}
    1ec2:	4b05      	ldr	r3, [pc, #20]	(1ed8 <.text+0x1ed8>)
    1ec4:	1c04      	mov	r4, r0		(add r4, r0, #0)
    1ec6:	1c0a      	mov	r2, r1		(add r2, r1, #0)
    1ec8:	6818      	ldr	r0, [r3, #0]
    1eca:	1c21      	mov	r1, r4		(add r1, r4, #0)
    1ecc:	ffd0f7ff 	bl	1e70 <_setlocale_r>
    1ed0:	bc10      	pop	{r4}
    1ed2:	bc02      	pop	{r1}
    1ed4:	4708      	bx	r1
    1ed6:	0000      	lsl	r0, r0, #0
    1ed8:	0400      	lsl	r0, r0, #16
    1eda:	4000      	and	r0, r0

00001edc <localeconv>:
    1edc:	b500      	push	{lr}
    1ede:	4b03      	ldr	r3, [pc, #12]	(1eec <.text+0x1eec>)
    1ee0:	6818      	ldr	r0, [r3, #0]
    1ee2:	ffe9f7ff 	bl	1eb8 <_localeconv_r>
    1ee6:	bc02      	pop	{r1}
    1ee8:	4708      	bx	r1
    1eea:	0000      	lsl	r0, r0, #0
    1eec:	0400      	lsl	r0, r0, #16
    1eee:	4000      	and	r0, r0

00001ef0 <__smakebuf>:
    1ef0:	b5f0      	push	{r4, r5, r6, r7, lr}
    1ef2:	8982      	ldrh	r2, [r0, #12]
    1ef4:	2302      	mov	r3, #2
    1ef6:	b08f      	sub	sp, #60
    1ef8:	1c04      	mov	r4, r0		(add r4, r0, #0)
    1efa:	4213      	tst	r3, r2
    1efc:	d122      	bne	1f44 <__smakebuf+0x54>
    1efe:	89c3      	ldrh	r3, [r0, #14]
    1f00:	041b      	lsl	r3, r3, #16
    1f02:	1419      	asr	r1, r3, #16
    1f04:	2900      	cmp	r1, #0
    1f06:	db28      	blt	1f5a <__smakebuf+0x6a>
    1f08:	4b2e      	ldr	r3, [pc, #184]	(1fc4 <.text+0x1fc4>)
    1f0a:	466a      	mov	r2, sp
    1f0c:	6818      	ldr	r0, [r3, #0]
    1f0e:	f9c3f7fe 	bl	298 <_fstat_r>
    1f12:	2800      	cmp	r0, #0
    1f14:	db20      	blt	1f58 <__smakebuf+0x68>
    1f16:	9b01      	ldr	r3, [sp, #4]
    1f18:	22f0      	mov	r2, #240
    1f1a:	0212      	lsl	r2, r2, #8
    1f1c:	401a      	and	r2, r3
    1f1e:	2380      	mov	r3, #128
    1f20:	019b      	lsl	r3, r3, #6
    1f22:	2700      	mov	r7, #0
    1f24:	429a      	cmp	r2, r3
    1f26:	d03e      	beq	1fa6 <__smakebuf+0xb6>
    1f28:	2380      	mov	r3, #128
    1f2a:	021b      	lsl	r3, r3, #8
    1f2c:	429a      	cmp	r2, r3
    1f2e:	d03c      	beq	1faa <__smakebuf+0xba>
    1f30:	89a3      	ldrh	r3, [r4, #12]
    1f32:	2280      	mov	r2, #128
    1f34:	0112      	lsl	r2, r2, #4
    1f36:	4313      	orr	r3, r2
    1f38:	81a3      	strh	r3, [r4, #12]
    1f3a:	e013      	b	1f64 <__smakebuf+0x74>
    1f3c:	89a3      	ldrh	r3, [r4, #12]
    1f3e:	2202      	mov	r2, #2
    1f40:	4313      	orr	r3, r2
    1f42:	81a3      	strh	r3, [r4, #12]
    1f44:	1c23      	mov	r3, r4		(add r3, r4, #0)
    1f46:	3343      	add	r3, #67
    1f48:	6023      	str	r3, [r4, #0]
    1f4a:	6123      	str	r3, [r4, #16]
    1f4c:	2301      	mov	r3, #1
    1f4e:	6163      	str	r3, [r4, #20]
    1f50:	b00f      	add	sp, #60
    1f52:	bcf0      	pop	{r4, r5, r6, r7}
    1f54:	bc01      	pop	{r0}
    1f56:	4700      	bx	r0
    1f58:	89a2      	ldrh	r2, [r4, #12]
    1f5a:	2380      	mov	r3, #128
    1f5c:	011b      	lsl	r3, r3, #4
    1f5e:	4313      	orr	r3, r2
    1f60:	81a3      	strh	r3, [r4, #12]
    1f62:	2700      	mov	r7, #0
    1f64:	4d17      	ldr	r5, [pc, #92]	(1fc4 <.text+0x1fc4>)
    1f66:	2680      	mov	r6, #128
    1f68:	00f6      	lsl	r6, r6, #3
    1f6a:	6828      	ldr	r0, [r5, #0]
    1f6c:	1c31      	mov	r1, r6		(add r1, r6, #0)
    1f6e:	f82ff000 	bl	1fd0 <_malloc_r>
    1f72:	2800      	cmp	r0, #0
    1f74:	d0e2      	beq	1f3c <__smakebuf+0x4c>
    1f76:	682a      	ldr	r2, [r5, #0]
    1f78:	4b13      	ldr	r3, [pc, #76]	(1fc8 <.text+0x1fc8>)
    1f7a:	63d3      	str	r3, [r2, #60]
    1f7c:	89a3      	ldrh	r3, [r4, #12]
    1f7e:	2280      	mov	r2, #128
    1f80:	4313      	orr	r3, r2
    1f82:	81a3      	strh	r3, [r4, #12]
    1f84:	6020      	str	r0, [r4, #0]
    1f86:	6120      	str	r0, [r4, #16]
    1f88:	6166      	str	r6, [r4, #20]
    1f8a:	2f00      	cmp	r7, #0
    1f8c:	d0e0      	beq	1f50 <__smakebuf+0x60>
    1f8e:	89e0      	ldrh	r0, [r4, #14]
    1f90:	0400      	lsl	r0, r0, #16
    1f92:	1400      	asr	r0, r0, #16
    1f94:	f986f7fe 	bl	2a4 <isatty>
    1f98:	2800      	cmp	r0, #0
    1f9a:	d0d9      	beq	1f50 <__smakebuf+0x60>
    1f9c:	89a3      	ldrh	r3, [r4, #12]
    1f9e:	2201      	mov	r2, #1
    1fa0:	4313      	orr	r3, r2
    1fa2:	81a3      	strh	r3, [r4, #12]
    1fa4:	e7d4      	b	1f50 <__smakebuf+0x60>
    1fa6:	2701      	mov	r7, #1
    1fa8:	e7be      	b	1f28 <__smakebuf+0x38>
    1faa:	6aa2      	ldr	r2, [r4, #40]
    1fac:	4b07      	ldr	r3, [pc, #28]	(1fcc <.text+0x1fcc>)
    1fae:	429a      	cmp	r2, r3
    1fb0:	d1be      	bne	1f30 <__smakebuf+0x40>
    1fb2:	89a3      	ldrh	r3, [r4, #12]
    1fb4:	2280      	mov	r2, #128
    1fb6:	00d2      	lsl	r2, r2, #3
    1fb8:	4313      	orr	r3, r2
    1fba:	81a3      	strh	r3, [r4, #12]
    1fbc:	2380      	mov	r3, #128
    1fbe:	00db      	lsl	r3, r3, #3
    1fc0:	64e3      	str	r3, [r4, #76]
    1fc2:	e7cf      	b	1f64 <__smakebuf+0x74>
    1fc4:	0400      	lsl	r0, r0, #16
    1fc6:	4000      	and	r0, r0
    1fc8:	173d      	asr	r5, r7, #28
    1fca:	0000      	lsl	r0, r0, #0
    1fcc:	2add      	cmp	r2, #221
	...

00001fd0 <_malloc_r>:
    1fd0:	b5f0      	push	{r4, r5, r6, r7, lr}
    1fd2:	465f      	mov	r7, fp
    1fd4:	4656      	mov	r6, sl
    1fd6:	464d      	mov	r5, r9
    1fd8:	4644      	mov	r4, r8
    1fda:	b4f0      	push	{r4, r5, r6, r7}
    1fdc:	1c0a      	mov	r2, r1		(add r2, r1, #0)
    1fde:	320b      	add	r2, #11
    1fe0:	b082      	sub	sp, #8
    1fe2:	4680      	mov	r8, r0
    1fe4:	2a16      	cmp	r2, #22
    1fe6:	d80f      	bhi	2008 <_malloc_r+0x38>
    1fe8:	2610      	mov	r6, #16
    1fea:	428e      	cmp	r6, r1
    1fec:	d213      	bcs	2016 <_malloc_r+0x46>
    1fee:	230c      	mov	r3, #12
    1ff0:	4641      	mov	r1, r8
    1ff2:	600b      	str	r3, [r1, #0]
    1ff4:	2000      	mov	r0, #0
    1ff6:	b002      	add	sp, #8
    1ff8:	bc3c      	pop	{r2, r3, r4, r5}
    1ffa:	4690      	mov	r8, r2
    1ffc:	4699      	mov	r9, r3
    1ffe:	46a2      	mov	sl, r4
    2000:	46ab      	mov	fp, r5
    2002:	bcf0      	pop	{r4, r5, r6, r7}
    2004:	bc02      	pop	{r1}
    2006:	4708      	bx	r1
    2008:	2307      	mov	r3, #7
    200a:	1c16      	mov	r6, r2		(add r6, r2, #0)
    200c:	439e      	bic	r6, r3
    200e:	2e00      	cmp	r6, #0
    2010:	dbed      	blt	1fee <_malloc_r+0x1e>
    2012:	428e      	cmp	r6, r1
    2014:	d3eb      	bcc	1fee <_malloc_r+0x1e>
    2016:	4640      	mov	r0, r8
    2018:	fb42f000 	bl	26a0 <__malloc_lock>
    201c:	4bc6      	ldr	r3, [pc, #792]	(2338 <.text+0x2338>)
    201e:	429e      	cmp	r6, r3
    2020:	d914      	bls	204c <_malloc_r+0x7c>
    2022:	0a72      	lsr	r2, r6, #9
    2024:	2a00      	cmp	r2, #0
    2026:	d158      	bne	20da <_malloc_r+0x10a>
    2028:	08f5      	lsr	r5, r6, #3
    202a:	00eb      	lsl	r3, r5, #3
    202c:	4fc3      	ldr	r7, [pc, #780]	(233c <.text+0x233c>)
    202e:	19d8      	add	r0, r3, r7
    2030:	68c4      	ldr	r4, [r0, #12]
    2032:	46bc      	mov	ip, r7
    2034:	42a0      	cmp	r0, r4
    2036:	d02f      	beq	2098 <_malloc_r+0xc8>
    2038:	6862      	ldr	r2, [r4, #4]
    203a:	2303      	mov	r3, #3
    203c:	1c11      	mov	r1, r2		(add r1, r2, #0)
    203e:	4399      	bic	r1, r3
    2040:	1b8b      	sub	r3, r1, r6
    2042:	2b0f      	cmp	r3, #15
    2044:	dc52      	bgt	20ec <_malloc_r+0x11c>
    2046:	2b00      	cmp	r3, #0
    2048:	da0b      	bge	2062 <_malloc_r+0x92>
    204a:	e022      	b	2092 <_malloc_r+0xc2>
    204c:	4fbb      	ldr	r7, [pc, #748]	(233c <.text+0x233c>)
    204e:	08f2      	lsr	r2, r6, #3
    2050:	00d3      	lsl	r3, r2, #3
    2052:	19db      	add	r3, r3, r7
    2054:	68dc      	ldr	r4, [r3, #12]
    2056:	46bc      	mov	ip, r7
    2058:	42a3      	cmp	r3, r4
    205a:	d049      	beq	20f0 <_malloc_r+0x120>
    205c:	6861      	ldr	r1, [r4, #4]
    205e:	2303      	mov	r3, #3
    2060:	4399      	bic	r1, r3
    2062:	68e2      	ldr	r2, [r4, #12]
    2064:	68a3      	ldr	r3, [r4, #8]
    2066:	1861      	add	r1, r4, r1
    2068:	60da      	str	r2, [r3, #12]
    206a:	6093      	str	r3, [r2, #8]
    206c:	684b      	ldr	r3, [r1, #4]
    206e:	2201      	mov	r2, #1
    2070:	4313      	orr	r3, r2
    2072:	4640      	mov	r0, r8
    2074:	604b      	str	r3, [r1, #4]
    2076:	fb15f000 	bl	26a4 <__malloc_unlock>
    207a:	1c20      	mov	r0, r4		(add r0, r4, #0)
    207c:	3008      	add	r0, #8
    207e:	e7ba      	b	1ff6 <_malloc_r+0x26>
    2080:	6862      	ldr	r2, [r4, #4]
    2082:	2303      	mov	r3, #3
    2084:	1c11      	mov	r1, r2		(add r1, r2, #0)
    2086:	4399      	bic	r1, r3
    2088:	1b8b      	sub	r3, r1, r6
    208a:	2b0f      	cmp	r3, #15
    208c:	dc2e      	bgt	20ec <_malloc_r+0x11c>
    208e:	2b00      	cmp	r3, #0
    2090:	dae7      	bge	2062 <_malloc_r+0x92>
    2092:	68e4      	ldr	r4, [r4, #12]
    2094:	42a0      	cmp	r0, r4
    2096:	d1f3      	bne	2080 <_malloc_r+0xb0>
    2098:	3501      	add	r5, #1
    209a:	46aa      	mov	sl, r5
    209c:	2208      	mov	r2, #8
    209e:	19d2      	add	r2, r2, r7
    20a0:	6894      	ldr	r4, [r2, #8]
    20a2:	4691      	mov	r9, r2
    20a4:	454c      	cmp	r4, r9
    20a6:	d100      	bne	20aa <_malloc_r+0xda>
    20a8:	e0db      	b	2262 <_malloc_r+0x292>
    20aa:	6862      	ldr	r2, [r4, #4]
    20ac:	2303      	mov	r3, #3
    20ae:	1c15      	mov	r5, r2		(add r5, r2, #0)
    20b0:	439d      	bic	r5, r3
    20b2:	1ba8      	sub	r0, r5, r6
    20b4:	280f      	cmp	r0, #15
    20b6:	dd00      	ble	20ba <_malloc_r+0xea>
    20b8:	e084      	b	21c4 <_malloc_r+0x1f4>
    20ba:	4649      	mov	r1, r9
    20bc:	60c9      	str	r1, [r1, #12]
    20be:	6089      	str	r1, [r1, #8]
    20c0:	2800      	cmp	r0, #0
    20c2:	db22      	blt	210a <_malloc_r+0x13a>
    20c4:	1963      	add	r3, r4, r5
    20c6:	685a      	ldr	r2, [r3, #4]
    20c8:	2101      	mov	r1, #1
    20ca:	430a      	orr	r2, r1
    20cc:	4640      	mov	r0, r8
    20ce:	605a      	str	r2, [r3, #4]
    20d0:	fae8f000 	bl	26a4 <__malloc_unlock>
    20d4:	1c20      	mov	r0, r4		(add r0, r4, #0)
    20d6:	3008      	add	r0, #8
    20d8:	e78d      	b	1ff6 <_malloc_r+0x26>
    20da:	2a04      	cmp	r2, #4
    20dc:	d910      	bls	2100 <_malloc_r+0x130>
    20de:	2a14      	cmp	r2, #20
    20e0:	d900      	bls	20e4 <_malloc_r+0x114>
    20e2:	e0c2      	b	226a <_malloc_r+0x29a>
    20e4:	1c15      	mov	r5, r2		(add r5, r2, #0)
    20e6:	355b      	add	r5, #91
    20e8:	00eb      	lsl	r3, r5, #3
    20ea:	e79f      	b	202c <_malloc_r+0x5c>
    20ec:	3d01      	sub	r5, #1
    20ee:	e7d3      	b	2098 <_malloc_r+0xc8>
    20f0:	1c23      	mov	r3, r4		(add r3, r4, #0)
    20f2:	3308      	add	r3, #8
    20f4:	68dc      	ldr	r4, [r3, #12]
    20f6:	42a3      	cmp	r3, r4
    20f8:	d1b0      	bne	205c <_malloc_r+0x8c>
    20fa:	3202      	add	r2, #2
    20fc:	4692      	mov	sl, r2
    20fe:	e7cd      	b	209c <_malloc_r+0xcc>
    2100:	09b3      	lsr	r3, r6, #6
    2102:	1c1d      	mov	r5, r3		(add r5, r3, #0)
    2104:	3538      	add	r5, #56
    2106:	00eb      	lsl	r3, r5, #3
    2108:	e790      	b	202c <_malloc_r+0x5c>
    210a:	4b8d      	ldr	r3, [pc, #564]	(2340 <.text+0x2340>)
    210c:	429d      	cmp	r5, r3
    210e:	d900      	bls	2112 <_malloc_r+0x142>
    2110:	e0c2      	b	2298 <_malloc_r+0x2c8>
    2112:	08e9      	lsr	r1, r5, #3
    2114:	1c0a      	mov	r2, r1		(add r2, r1, #0)
    2116:	2900      	cmp	r1, #0
    2118:	da00      	bge	211c <_malloc_r+0x14c>
    211a:	e1b7      	b	248c <.text+0x248c>
    211c:	1092      	asr	r2, r2, #2
    211e:	2301      	mov	r3, #1
    2120:	4093      	lsl	r3, r2
    2122:	4a86      	ldr	r2, [pc, #536]	(233c <.text+0x233c>)
    2124:	6852      	ldr	r2, [r2, #4]
    2126:	1c15      	mov	r5, r2		(add r5, r2, #0)
    2128:	431d      	orr	r5, r3
    212a:	4a84      	ldr	r2, [pc, #528]	(233c <.text+0x233c>)
    212c:	00cb      	lsl	r3, r1, #3
    212e:	18fb      	add	r3, r7, r3
    2130:	6055      	str	r5, [r2, #4]
    2132:	689a      	ldr	r2, [r3, #8]
    2134:	60e3      	str	r3, [r4, #12]
    2136:	60a2      	str	r2, [r4, #8]
    2138:	60d4      	str	r4, [r2, #12]
    213a:	609c      	str	r4, [r3, #8]
    213c:	46ac      	mov	ip, r5
    213e:	4652      	mov	r2, sl
    2140:	2a00      	cmp	r2, #0
    2142:	da00      	bge	2146 <_malloc_r+0x176>
    2144:	e0f6      	b	2334 <_malloc_r+0x364>
    2146:	2301      	mov	r3, #1
    2148:	1092      	asr	r2, r2, #2
    214a:	1c18      	mov	r0, r3		(add r0, r3, #0)
    214c:	4090      	lsl	r0, r2
    214e:	4560      	cmp	r0, ip
    2150:	d84c      	bhi	21ec <_malloc_r+0x21c>
    2152:	4662      	mov	r2, ip
    2154:	4210      	tst	r0, r2
    2156:	d10e      	bne	2176 <_malloc_r+0x1a6>
    2158:	2303      	mov	r3, #3
    215a:	4655      	mov	r5, sl
    215c:	439d      	bic	r5, r3
    215e:	1c2b      	mov	r3, r5		(add r3, r5, #0)
    2160:	3304      	add	r3, #4
    2162:	0040      	lsl	r0, r0, #1
    2164:	469a      	mov	sl, r3
    2166:	4202      	tst	r2, r0
    2168:	d105      	bne	2176 <_malloc_r+0x1a6>
    216a:	2104      	mov	r1, #4
    216c:	0040      	lsl	r0, r0, #1
    216e:	4662      	mov	r2, ip
    2170:	448a      	add	sl, r1
    2172:	4202      	tst	r2, r0
    2174:	d0f9      	beq	216a <_malloc_r+0x19a>
    2176:	4655      	mov	r5, sl
    2178:	00eb      	lsl	r3, r5, #3
    217a:	18fb      	add	r3, r7, r3
    217c:	9301      	str	r3, [sp, #4]
    217e:	46d3      	mov	fp, sl
    2180:	1c19      	mov	r1, r3		(add r1, r3, #0)
    2182:	68cd      	ldr	r5, [r1, #12]
    2184:	42a9      	cmp	r1, r5
    2186:	d104      	bne	2192 <_malloc_r+0x1c2>
    2188:	e0a2      	b	22d0 <_malloc_r+0x300>
    218a:	68ed      	ldr	r5, [r5, #12]
    218c:	42a9      	cmp	r1, r5
    218e:	d100      	bne	2192 <_malloc_r+0x1c2>
    2190:	e09e      	b	22d0 <_malloc_r+0x300>
    2192:	686a      	ldr	r2, [r5, #4]
    2194:	2303      	mov	r3, #3
    2196:	439a      	bic	r2, r3
    2198:	1b94      	sub	r4, r2, r6
    219a:	1c13      	mov	r3, r2		(add r3, r2, #0)
    219c:	2c0f      	cmp	r4, #15
    219e:	dd00      	ble	21a2 <_malloc_r+0x1d2>
    21a0:	e119      	b	23d6 <.text+0x23d6>
    21a2:	2c00      	cmp	r4, #0
    21a4:	dbf1      	blt	218a <_malloc_r+0x1ba>
    21a6:	18e9      	add	r1, r5, r3
    21a8:	684b      	ldr	r3, [r1, #4]
    21aa:	2201      	mov	r2, #1
    21ac:	4313      	orr	r3, r2
    21ae:	604b      	str	r3, [r1, #4]
    21b0:	68ea      	ldr	r2, [r5, #12]
    21b2:	68ab      	ldr	r3, [r5, #8]
    21b4:	4640      	mov	r0, r8
    21b6:	60da      	str	r2, [r3, #12]
    21b8:	6093      	str	r3, [r2, #8]
    21ba:	fa73f000 	bl	26a4 <__malloc_unlock>
    21be:	1c28      	mov	r0, r5		(add r0, r5, #0)
    21c0:	3008      	add	r0, #8
    21c2:	e718      	b	1ff6 <_malloc_r+0x26>
    21c4:	2101      	mov	r1, #1
    21c6:	1c33      	mov	r3, r6		(add r3, r6, #0)
    21c8:	430b      	orr	r3, r1
    21ca:	6063      	str	r3, [r4, #4]
    21cc:	1c03      	mov	r3, r0		(add r3, r0, #0)
    21ce:	19a2      	add	r2, r4, r6
    21d0:	464d      	mov	r5, r9
    21d2:	430b      	orr	r3, r1
    21d4:	60ea      	str	r2, [r5, #12]
    21d6:	60aa      	str	r2, [r5, #8]
    21d8:	5010      	str	r0, [r2, r0]
    21da:	60d5      	str	r5, [r2, #12]
    21dc:	4640      	mov	r0, r8
    21de:	6095      	str	r5, [r2, #8]
    21e0:	6053      	str	r3, [r2, #4]
    21e2:	fa5ff000 	bl	26a4 <__malloc_unlock>
    21e6:	1c20      	mov	r0, r4		(add r0, r4, #0)
    21e8:	3008      	add	r0, #8
    21ea:	e704      	b	1ff6 <_malloc_r+0x26>
    21ec:	4953      	ldr	r1, [pc, #332]	(233c <.text+0x233c>)
    21ee:	688c      	ldr	r4, [r1, #8]
    21f0:	6862      	ldr	r2, [r4, #4]
    21f2:	2303      	mov	r3, #3
    21f4:	439a      	bic	r2, r3
    21f6:	4693      	mov	fp, r2
    21f8:	9400      	str	r4, [sp, #0]
    21fa:	1b90      	sub	r0, r2, r6
    21fc:	455e      	cmp	r6, fp
    21fe:	d801      	bhi	2204 <_malloc_r+0x234>
    2200:	280f      	cmp	r0, #15
    2202:	dc39      	bgt	2278 <_malloc_r+0x2a8>
    2204:	4b4f      	ldr	r3, [pc, #316]	(2344 <.text+0x2344>)
    2206:	1c22      	mov	r2, r4		(add r2, r4, #0)
    2208:	681b      	ldr	r3, [r3, #0]
    220a:	445a      	add	r2, fp
    220c:	4691      	mov	r9, r2
    220e:	18f2      	add	r2, r6, r3
    2210:	4b4d      	ldr	r3, [pc, #308]	(2348 <.text+0x2348>)
    2212:	681b      	ldr	r3, [r3, #0]
    2214:	1c17      	mov	r7, r2		(add r7, r2, #0)
    2216:	3710      	add	r7, #16
    2218:	3301      	add	r3, #1
    221a:	d004      	beq	2226 <_malloc_r+0x256>
    221c:	4b4b      	ldr	r3, [pc, #300]	(234c <.text+0x234c>)
    221e:	18d2      	add	r2, r2, r3
    2220:	4b4b      	ldr	r3, [pc, #300]	(2350 <.text+0x2350>)
    2222:	1c17      	mov	r7, r2		(add r7, r2, #0)
    2224:	401f      	and	r7, r3
    2226:	4640      	mov	r0, r8
    2228:	1c39      	mov	r1, r7		(add r1, r7, #0)
    222a:	f83df7fe 	bl	2a8 <_sbrk_r>
    222e:	1c05      	mov	r5, r0		(add r5, r0, #0)
    2230:	1c41      	add	r1, r0, #1
    2232:	d100      	bne	2236 <_malloc_r+0x266>
    2234:	e10a      	b	244c <.text+0x244c>
    2236:	4581      	cmp	r9, r0
    2238:	d800      	bhi	223c <_malloc_r+0x26c>
    223a:	e08b      	b	2354 <.text+0x2354>
    223c:	4a3f      	ldr	r2, [pc, #252]	(233c <.text+0x233c>)
    223e:	4294      	cmp	r4, r2
    2240:	d100      	bne	2244 <_malloc_r+0x274>
    2242:	e087      	b	2354 <.text+0x2354>
    2244:	4b3d      	ldr	r3, [pc, #244]	(233c <.text+0x233c>)
    2246:	689c      	ldr	r4, [r3, #8]
    2248:	6863      	ldr	r3, [r4, #4]
    224a:	2203      	mov	r2, #3
    224c:	4393      	bic	r3, r2
    224e:	1b98      	sub	r0, r3, r6
    2250:	429e      	cmp	r6, r3
    2252:	d801      	bhi	2258 <_malloc_r+0x288>
    2254:	280f      	cmp	r0, #15
    2256:	dc0f      	bgt	2278 <_malloc_r+0x2a8>
    2258:	4640      	mov	r0, r8
    225a:	fa23f000 	bl	26a4 <__malloc_unlock>
    225e:	2000      	mov	r0, #0
    2260:	e6c9      	b	1ff6 <_malloc_r+0x26>
    2262:	4b36      	ldr	r3, [pc, #216]	(233c <.text+0x233c>)
    2264:	685b      	ldr	r3, [r3, #4]
    2266:	469c      	mov	ip, r3
    2268:	e769      	b	213e <_malloc_r+0x16e>
    226a:	2a54      	cmp	r2, #84
    226c:	d858      	bhi	2320 <_malloc_r+0x350>
    226e:	0b33      	lsr	r3, r6, #12
    2270:	1c1d      	mov	r5, r3		(add r5, r3, #0)
    2272:	356e      	add	r5, #110
    2274:	00eb      	lsl	r3, r5, #3
    2276:	e6d9      	b	202c <_malloc_r+0x5c>
    2278:	2101      	mov	r1, #1
    227a:	1c33      	mov	r3, r6		(add r3, r6, #0)
    227c:	430b      	orr	r3, r1
    227e:	6063      	str	r3, [r4, #4]
    2280:	4d2e      	ldr	r5, [pc, #184]	(233c <.text+0x233c>)
    2282:	1c03      	mov	r3, r0		(add r3, r0, #0)
    2284:	19a2      	add	r2, r4, r6
    2286:	430b      	orr	r3, r1
    2288:	4640      	mov	r0, r8
    228a:	60aa      	str	r2, [r5, #8]
    228c:	6053      	str	r3, [r2, #4]
    228e:	fa09f000 	bl	26a4 <__malloc_unlock>
    2292:	1c20      	mov	r0, r4		(add r0, r4, #0)
    2294:	3008      	add	r0, #8
    2296:	e6ae      	b	1ff6 <_malloc_r+0x26>
    2298:	0a6a      	lsr	r2, r5, #9
    229a:	2a00      	cmp	r2, #0
    229c:	d000      	beq	22a0 <_malloc_r+0x2d0>
    229e:	e094      	b	23ca <.text+0x23ca>
    22a0:	08eb      	lsr	r3, r5, #3
    22a2:	00da      	lsl	r2, r3, #3
    22a4:	18b8      	add	r0, r7, r2
    22a6:	6881      	ldr	r1, [r0, #8]
    22a8:	4288      	cmp	r0, r1
    22aa:	d100      	bne	22ae <_malloc_r+0x2de>
    22ac:	e0f5      	b	249a <.text+0x249a>
    22ae:	684b      	ldr	r3, [r1, #4]
    22b0:	2203      	mov	r2, #3
    22b2:	4393      	bic	r3, r2
    22b4:	429d      	cmp	r5, r3
    22b6:	d202      	bcs	22be <_malloc_r+0x2ee>
    22b8:	6889      	ldr	r1, [r1, #8]
    22ba:	4288      	cmp	r0, r1
    22bc:	d1f7      	bne	22ae <_malloc_r+0x2de>
    22be:	68c8      	ldr	r0, [r1, #12]
    22c0:	60a1      	str	r1, [r4, #8]
    22c2:	60e0      	str	r0, [r4, #12]
    22c4:	60cc      	str	r4, [r1, #12]
    22c6:	491d      	ldr	r1, [pc, #116]	(233c <.text+0x233c>)
    22c8:	6849      	ldr	r1, [r1, #4]
    22ca:	468c      	mov	ip, r1
    22cc:	6084      	str	r4, [r0, #8]
    22ce:	e736      	b	213e <_malloc_r+0x16e>
    22d0:	1c29      	mov	r1, r5		(add r1, r5, #0)
    22d2:	2501      	mov	r5, #1
    22d4:	44ab      	add	fp, r5
    22d6:	2303      	mov	r3, #3
    22d8:	465a      	mov	r2, fp
    22da:	3108      	add	r1, #8
    22dc:	421a      	tst	r2, r3
    22de:	d000      	beq	22e2 <_malloc_r+0x312>
    22e0:	e74f      	b	2182 <_malloc_r+0x1b2>
    22e2:	9c01      	ldr	r4, [sp, #4]
    22e4:	4652      	mov	r2, sl
    22e6:	1c21      	mov	r1, r4		(add r1, r4, #0)
    22e8:	2503      	mov	r5, #3
    22ea:	422a      	tst	r2, r5
    22ec:	d100      	bne	22f0 <_malloc_r+0x320>
    22ee:	e0f3      	b	24d8 <.text+0x24d8>
    22f0:	680b      	ldr	r3, [r1, #0]
    22f2:	3c08      	sub	r4, #8
    22f4:	3a01      	sub	r2, #1
    22f6:	3908      	sub	r1, #8
    22f8:	429c      	cmp	r4, r3
    22fa:	d0f6      	beq	22ea <_malloc_r+0x31a>
    22fc:	0040      	lsl	r0, r0, #1
    22fe:	4560      	cmp	r0, ip
    2300:	d900      	bls	2304 <_malloc_r+0x334>
    2302:	e773      	b	21ec <_malloc_r+0x21c>
    2304:	2800      	cmp	r0, #0
    2306:	d100      	bne	230a <_malloc_r+0x33a>
    2308:	e770      	b	21ec <_malloc_r+0x21c>
    230a:	4661      	mov	r1, ip
    230c:	4208      	tst	r0, r1
    230e:	d105      	bne	231c <_malloc_r+0x34c>
    2310:	2304      	mov	r3, #4
    2312:	0040      	lsl	r0, r0, #1
    2314:	4665      	mov	r5, ip
    2316:	449b      	add	fp, r3
    2318:	4205      	tst	r5, r0
    231a:	d0f9      	beq	2310 <_malloc_r+0x340>
    231c:	46da      	mov	sl, fp
    231e:	e72a      	b	2176 <_malloc_r+0x1a6>
    2320:	23aa      	mov	r3, #170
    2322:	005b      	lsl	r3, r3, #1
    2324:	429a      	cmp	r2, r3
    2326:	d900      	bls	232a <_malloc_r+0x35a>
    2328:	e085      	b	2436 <.text+0x2436>
    232a:	0bf3      	lsr	r3, r6, #15
    232c:	1c1d      	mov	r5, r3		(add r5, r3, #0)
    232e:	3577      	add	r5, #119
    2330:	00eb      	lsl	r3, r5, #3
    2332:	e67b      	b	202c <_malloc_r+0x5c>
    2334:	3203      	add	r2, #3
    2336:	e706      	b	2146 <_malloc_r+0x176>
    2338:	01f7      	lsl	r7, r6, #7
    233a:	0000      	lsl	r0, r0, #0
    233c:	0420      	lsl	r0, r4, #16
    233e:	4000      	and	r0, r0
    2340:	01ff      	lsl	r7, r7, #7
    2342:	0000      	lsl	r0, r0, #0
    2344:	0868      	lsr	r0, r5, #1
    2346:	4000      	and	r0, r0
    2348:	0418      	lsl	r0, r3, #16
    234a:	4000      	and	r0, r0
    234c:	100f      	asr	r7, r1, #0
    234e:	0000      	lsl	r0, r0, #0
    2350:	fffff000 	bl	3352 <_etext+0x2de>
    2354:	4b69      	ldr	r3, [pc, #420]	(24fc <.text+0x24fc>)
    2356:	469a      	mov	sl, r3
    2358:	681b      	ldr	r3, [r3, #0]
    235a:	4652      	mov	r2, sl
    235c:	18f9      	add	r1, r7, r3
    235e:	6011      	str	r1, [r2, #0]
    2360:	45a9      	cmp	r9, r5
    2362:	d050      	beq	2406 <.text+0x2406>
    2364:	4a66      	ldr	r2, [pc, #408]	(2500 <.text+0x2500>)
    2366:	6813      	ldr	r3, [r2, #0]
    2368:	3301      	add	r3, #1
    236a:	d100      	bne	236e <.text+0x236e>
    236c:	e0a8      	b	24c0 <.text+0x24c0>
    236e:	464a      	mov	r2, r9
    2370:	1aab      	sub	r3, r5, r2
    2372:	18cb      	add	r3, r1, r3
    2374:	4651      	mov	r1, sl
    2376:	600b      	str	r3, [r1, #0]
    2378:	2307      	mov	r3, #7
    237a:	1c2a      	mov	r2, r5		(add r2, r5, #0)
    237c:	401a      	and	r2, r3
    237e:	d161      	bne	2444 <.text+0x2444>
    2380:	2100      	mov	r1, #0
    2382:	4b60      	ldr	r3, [pc, #384]	(2504 <.text+0x2504>)
    2384:	19ea      	add	r2, r5, r7
    2386:	401a      	and	r2, r3
    2388:	2380      	mov	r3, #128
    238a:	015b      	lsl	r3, r3, #5
    238c:	1a9b      	sub	r3, r3, r2
    238e:	18cf      	add	r7, r1, r3
    2390:	4640      	mov	r0, r8
    2392:	1c39      	mov	r1, r7		(add r1, r7, #0)
    2394:	ff88f7fd 	bl	2a8 <_sbrk_r>
    2398:	1c42      	add	r2, r0, #1
    239a:	d100      	bne	239e <.text+0x239e>
    239c:	e087      	b	24ae <.text+0x24ae>
    239e:	1b40      	sub	r0, r0, r5
    23a0:	4b56      	ldr	r3, [pc, #344]	(24fc <.text+0x24fc>)
    23a2:	469a      	mov	sl, r3
    23a4:	681b      	ldr	r3, [r3, #0]
    23a6:	4651      	mov	r1, sl
    23a8:	18fb      	add	r3, r7, r3
    23aa:	600b      	str	r3, [r1, #0]
    23ac:	183b      	add	r3, r7, r0
    23ae:	2001      	mov	r0, #1
    23b0:	4303      	orr	r3, r0
    23b2:	4a55      	ldr	r2, [pc, #340]	(2508 <.text+0x2508>)
    23b4:	606b      	str	r3, [r5, #4]
    23b6:	9b00      	ldr	r3, [sp, #0]
    23b8:	1c2c      	mov	r4, r5		(add r4, r5, #0)
    23ba:	6095      	str	r5, [r2, #8]
    23bc:	4293      	cmp	r3, r2
    23be:	d02c      	beq	241a <.text+0x241a>
    23c0:	465d      	mov	r5, fp
    23c2:	2d0f      	cmp	r5, #15
    23c4:	d845      	bhi	2452 <.text+0x2452>
    23c6:	6060      	str	r0, [r4, #4]
    23c8:	e73e      	b	2248 <_malloc_r+0x278>
    23ca:	2a04      	cmp	r2, #4
    23cc:	d858      	bhi	2480 <.text+0x2480>
    23ce:	09ab      	lsr	r3, r5, #6
    23d0:	3338      	add	r3, #56
    23d2:	00da      	lsl	r2, r3, #3
    23d4:	e766      	b	22a4 <_malloc_r+0x2d4>
    23d6:	2001      	mov	r0, #1
    23d8:	1c33      	mov	r3, r6		(add r3, r6, #0)
    23da:	4303      	orr	r3, r0
    23dc:	68e9      	ldr	r1, [r5, #12]
    23de:	606b      	str	r3, [r5, #4]
    23e0:	68ab      	ldr	r3, [r5, #8]
    23e2:	19aa      	add	r2, r5, r6
    23e4:	60d9      	str	r1, [r3, #12]
    23e6:	608b      	str	r3, [r1, #8]
    23e8:	464b      	mov	r3, r9
    23ea:	60da      	str	r2, [r3, #12]
    23ec:	609a      	str	r2, [r3, #8]
    23ee:	60d3      	str	r3, [r2, #12]
    23f0:	6093      	str	r3, [r2, #8]
    23f2:	1c23      	mov	r3, r4		(add r3, r4, #0)
    23f4:	4303      	orr	r3, r0
    23f6:	6053      	str	r3, [r2, #4]
    23f8:	4640      	mov	r0, r8
    23fa:	5114      	str	r4, [r2, r4]
    23fc:	f952f000 	bl	26a4 <__malloc_unlock>
    2400:	1c28      	mov	r0, r5		(add r0, r5, #0)
    2402:	3008      	add	r0, #8
    2404:	e5f7      	b	1ff6 <_malloc_r+0x26>
    2406:	4b3f      	ldr	r3, [pc, #252]	(2504 <.text+0x2504>)
    2408:	421d      	tst	r5, r3
    240a:	d1ab      	bne	2364 <.text+0x2364>
    240c:	4b3e      	ldr	r3, [pc, #248]	(2508 <.text+0x2508>)
    240e:	465d      	mov	r5, fp
    2410:	689c      	ldr	r4, [r3, #8]
    2412:	2201      	mov	r2, #1
    2414:	197b      	add	r3, r7, r5
    2416:	4313      	orr	r3, r2
    2418:	6063      	str	r3, [r4, #4]
    241a:	4651      	mov	r1, sl
    241c:	680a      	ldr	r2, [r1, #0]
    241e:	493b      	ldr	r1, [pc, #236]	(250c <.text+0x250c>)
    2420:	680b      	ldr	r3, [r1, #0]
    2422:	429a      	cmp	r2, r3
    2424:	d900      	bls	2428 <.text+0x2428>
    2426:	600a      	str	r2, [r1, #0]
    2428:	4939      	ldr	r1, [pc, #228]	(2510 <.text+0x2510>)
    242a:	680b      	ldr	r3, [r1, #0]
    242c:	429a      	cmp	r2, r3
    242e:	d800      	bhi	2432 <.text+0x2432>
    2430:	e70a      	b	2248 <_malloc_r+0x278>
    2432:	600a      	str	r2, [r1, #0]
    2434:	e708      	b	2248 <_malloc_r+0x278>
    2436:	4b37      	ldr	r3, [pc, #220]	(2514 <.text+0x2514>)
    2438:	429a      	cmp	r2, r3
    243a:	d929      	bls	2490 <.text+0x2490>
    243c:	23fc      	mov	r3, #252
    243e:	257e      	mov	r5, #126
    2440:	009b      	lsl	r3, r3, #2
    2442:	e5f3      	b	202c <_malloc_r+0x5c>
    2444:	2308      	mov	r3, #8
    2446:	1a99      	sub	r1, r3, r2
    2448:	186d      	add	r5, r5, r1
    244a:	e79a      	b	2382 <.text+0x2382>
    244c:	4a2e      	ldr	r2, [pc, #184]	(2508 <.text+0x2508>)
    244e:	6894      	ldr	r4, [r2, #8]
    2450:	e6fa      	b	2248 <_malloc_r+0x278>
    2452:	9900      	ldr	r1, [sp, #0]
    2454:	465a      	mov	r2, fp
    2456:	2307      	mov	r3, #7
    2458:	3a0c      	sub	r2, #12
    245a:	439a      	bic	r2, r3
    245c:	684b      	ldr	r3, [r1, #4]
    245e:	4003      	and	r3, r0
    2460:	4313      	orr	r3, r2
    2462:	604b      	str	r3, [r1, #4]
    2464:	1889      	add	r1, r1, r2
    2466:	2305      	mov	r3, #5
    2468:	604b      	str	r3, [r1, #4]
    246a:	608b      	str	r3, [r1, #8]
    246c:	2a0f      	cmp	r2, #15
    246e:	d9d4      	bls	241a <.text+0x241a>
    2470:	9900      	ldr	r1, [sp, #0]
    2472:	4640      	mov	r0, r8
    2474:	3108      	add	r1, #8
    2476:	fa57f7ff 	bl	1928 <_free_r>
    247a:	4d23      	ldr	r5, [pc, #140]	(2508 <.text+0x2508>)
    247c:	68ac      	ldr	r4, [r5, #8]
    247e:	e7cc      	b	241a <.text+0x241a>
    2480:	2a14      	cmp	r2, #20
    2482:	d817      	bhi	24b4 <.text+0x24b4>
    2484:	1c13      	mov	r3, r2		(add r3, r2, #0)
    2486:	335b      	add	r3, #91
    2488:	00da      	lsl	r2, r3, #3
    248a:	e70b      	b	22a4 <_malloc_r+0x2d4>
    248c:	1cca      	add	r2, r1, #3
    248e:	e645      	b	211c <_malloc_r+0x14c>
    2490:	0cb3      	lsr	r3, r6, #18
    2492:	1c1d      	mov	r5, r3		(add r5, r3, #0)
    2494:	357c      	add	r5, #124
    2496:	00eb      	lsl	r3, r5, #3
    2498:	e5c8      	b	202c <_malloc_r+0x5c>
    249a:	2b00      	cmp	r3, #0
    249c:	db1a      	blt	24d4 <.text+0x24d4>
    249e:	109b      	asr	r3, r3, #2
    24a0:	4665      	mov	r5, ip
    24a2:	2201      	mov	r2, #1
    24a4:	409a      	lsl	r2, r3
    24a6:	686b      	ldr	r3, [r5, #4]
    24a8:	4313      	orr	r3, r2
    24aa:	606b      	str	r3, [r5, #4]
    24ac:	e708      	b	22c0 <_malloc_r+0x2f0>
    24ae:	2700      	mov	r7, #0
    24b0:	2000      	mov	r0, #0
    24b2:	e775      	b	23a0 <.text+0x23a0>
    24b4:	2a54      	cmp	r2, #84
    24b6:	d805      	bhi	24c4 <.text+0x24c4>
    24b8:	0b2b      	lsr	r3, r5, #12
    24ba:	336e      	add	r3, #110
    24bc:	00da      	lsl	r2, r3, #3
    24be:	e6f1      	b	22a4 <_malloc_r+0x2d4>
    24c0:	6015      	str	r5, [r2, #0]
    24c2:	e759      	b	2378 <.text+0x2378>
    24c4:	23aa      	mov	r3, #170
    24c6:	005b      	lsl	r3, r3, #1
    24c8:	429a      	cmp	r2, r3
    24ca:	d80b      	bhi	24e4 <.text+0x24e4>
    24cc:	0beb      	lsr	r3, r5, #15
    24ce:	3377      	add	r3, #119
    24d0:	00da      	lsl	r2, r3, #3
    24d2:	e6e7      	b	22a4 <_malloc_r+0x2d4>
    24d4:	3303      	add	r3, #3
    24d6:	e7e2      	b	249e <.text+0x249e>
    24d8:	4661      	mov	r1, ip
    24da:	4381      	bic	r1, r0
    24dc:	4a0a      	ldr	r2, [pc, #40]	(2508 <.text+0x2508>)
    24de:	468c      	mov	ip, r1
    24e0:	6051      	str	r1, [r2, #4]
    24e2:	e70b      	b	22fc <_malloc_r+0x32c>
    24e4:	4b0b      	ldr	r3, [pc, #44]	(2514 <.text+0x2514>)
    24e6:	429a      	cmp	r2, r3
    24e8:	d903      	bls	24f2 <.text+0x24f2>
    24ea:	22fc      	mov	r2, #252
    24ec:	237e      	mov	r3, #126
    24ee:	0092      	lsl	r2, r2, #2
    24f0:	e6d8      	b	22a4 <_malloc_r+0x2d4>
    24f2:	0cab      	lsr	r3, r5, #18
    24f4:	337c      	add	r3, #124
    24f6:	00da      	lsl	r2, r3, #3
    24f8:	e6d4      	b	22a4 <_malloc_r+0x2d4>
    24fa:	0000      	lsl	r0, r0, #0
    24fc:	0838      	lsr	r0, r7, #0
    24fe:	4000      	and	r0, r0
    2500:	0418      	lsl	r0, r3, #16
    2502:	4000      	and	r0, r0
    2504:	0fff      	lsr	r7, r7, #31
    2506:	0000      	lsl	r0, r0, #0
    2508:	0420      	lsl	r0, r4, #16
    250a:	4000      	and	r0, r0
    250c:	0864      	lsr	r4, r4, #1
    250e:	4000      	and	r0, r0
    2510:	0860      	lsr	r0, r4, #1
    2512:	4000      	and	r0, r0
    2514:	0554      	lsl	r4, r2, #21
	...

00002518 <memchr>:
    2518:	b5f0      	push	{r4, r5, r6, r7, lr}
    251a:	23ff      	mov	r3, #255
    251c:	1c0d      	mov	r5, r1		(add r5, r1, #0)
    251e:	1c14      	mov	r4, r2		(add r4, r2, #0)
    2520:	401d      	and	r5, r3
    2522:	2a03      	cmp	r2, #3
    2524:	d902      	bls	252c <memchr+0x14>
    2526:	2303      	mov	r3, #3
    2528:	4218      	tst	r0, r3
    252a:	d007      	beq	253c <memchr+0x24>
    252c:	1e61      	sub	r1, r4, #1
    252e:	d32c      	bcc	258a <memchr+0x72>
    2530:	7803      	ldrb	r3, [r0, #0]
    2532:	429d      	cmp	r5, r3
    2534:	d12b      	bne	258e <memchr+0x76>
    2536:	bcf0      	pop	{r4, r5, r6, r7}
    2538:	bc02      	pop	{r1}
    253a:	4708      	bx	r1
    253c:	1c01      	mov	r1, r0		(add r1, r0, #0)
    253e:	2200      	mov	r2, #0
    2540:	2600      	mov	r6, #0
    2542:	0233      	lsl	r3, r6, #8
    2544:	3201      	add	r2, #1
    2546:	18ee      	add	r6, r5, r3
    2548:	2a04      	cmp	r2, #4
    254a:	d1fa      	bne	2542 <memchr+0x2a>
    254c:	4f14      	ldr	r7, [pc, #80]	(25a0 <.text+0x25a0>)
    254e:	680a      	ldr	r2, [r1, #0]
    2550:	4814      	ldr	r0, [pc, #80]	(25a4 <.text+0x25a4>)
    2552:	4072      	eor	r2, r6
    2554:	1813      	add	r3, r2, r0
    2556:	4393      	bic	r3, r2
    2558:	423b      	tst	r3, r7
    255a:	d00f      	beq	257c <memchr+0x64>
    255c:	780b      	ldrb	r3, [r1, #0]
    255e:	1c08      	mov	r0, r1		(add r0, r1, #0)
    2560:	429d      	cmp	r5, r3
    2562:	d0e8      	beq	2536 <memchr+0x1e>
    2564:	2200      	mov	r2, #0
    2566:	3201      	add	r2, #1
    2568:	3001      	add	r0, #1
    256a:	2a04      	cmp	r2, #4
    256c:	d006      	beq	257c <memchr+0x64>
    256e:	7803      	ldrb	r3, [r0, #0]
    2570:	429d      	cmp	r5, r3
    2572:	d0e0      	beq	2536 <memchr+0x1e>
    2574:	3201      	add	r2, #1
    2576:	3001      	add	r0, #1
    2578:	2a04      	cmp	r2, #4
    257a:	d1f8      	bne	256e <memchr+0x56>
    257c:	3c04      	sub	r4, #4
    257e:	3104      	add	r1, #4
    2580:	2c03      	cmp	r4, #3
    2582:	d8e4      	bhi	254e <memchr+0x36>
    2584:	1c08      	mov	r0, r1		(add r0, r1, #0)
    2586:	1e61      	sub	r1, r4, #1
    2588:	d2d2      	bcs	2530 <memchr+0x18>
    258a:	2000      	mov	r0, #0
    258c:	e7d3      	b	2536 <memchr+0x1e>
    258e:	2200      	mov	r2, #0
    2590:	3001      	add	r0, #1
    2592:	428a      	cmp	r2, r1
    2594:	d0f9      	beq	258a <memchr+0x72>
    2596:	7803      	ldrb	r3, [r0, #0]
    2598:	3201      	add	r2, #1
    259a:	429d      	cmp	r5, r3
    259c:	d1f8      	bne	2590 <memchr+0x78>
    259e:	e7ca      	b	2536 <memchr+0x1e>
    25a0:	8080      	strh	r0, [r0, #4]
    25a2:	8080      	strh	r0, [r0, #4]
    25a4:	feff      	second half of BL instruction 0xfeff
    25a6:	fefe      	second half of BL instruction 0xfefe

000025a8 <memmove>:
    25a8:	b5f0      	push	{r4, r5, r6, r7, lr}
    25aa:	1c07      	mov	r7, r0		(add r7, r0, #0)
    25ac:	1c0e      	mov	r6, r1		(add r6, r1, #0)
    25ae:	1c15      	mov	r5, r2		(add r5, r2, #0)
    25b0:	4684      	mov	ip, r0
    25b2:	1c14      	mov	r4, r2		(add r4, r2, #0)
    25b4:	4288      	cmp	r0, r1
    25b6:	d911      	bls	25dc <memmove+0x34>
    25b8:	188a      	add	r2, r1, r2
    25ba:	4290      	cmp	r0, r2
    25bc:	d20e      	bcs	25dc <memmove+0x34>
    25be:	1941      	add	r1, r0, r5
    25c0:	2d00      	cmp	r5, #0
    25c2:	d007      	beq	25d4 <memmove+0x2c>
    25c4:	2000      	mov	r0, #0
    25c6:	3a01      	sub	r2, #1
    25c8:	7813      	ldrb	r3, [r2, #0]
    25ca:	3901      	sub	r1, #1
    25cc:	3001      	add	r0, #1
    25ce:	700b      	strb	r3, [r1, #0]
    25d0:	42a8      	cmp	r0, r5
    25d2:	d1f8      	bne	25c6 <memmove+0x1e>
    25d4:	1c38      	mov	r0, r7		(add r0, r7, #0)
    25d6:	bcf0      	pop	{r4, r5, r6, r7}
    25d8:	bc02      	pop	{r1}
    25da:	4708      	bx	r1
    25dc:	1c28      	mov	r0, r5		(add r0, r5, #0)
    25de:	2d0f      	cmp	r5, #15
    25e0:	d80b      	bhi	25fa <memmove+0x52>
    25e2:	1e63      	sub	r3, r4, #1
    25e4:	d3f6      	bcc	25d4 <memmove+0x2c>
    25e6:	4662      	mov	r2, ip
    25e8:	189b      	add	r3, r3, r2
    25ea:	1c58      	add	r0, r3, #1
    25ec:	780b      	ldrb	r3, [r1, #0]
    25ee:	7013      	strb	r3, [r2, #0]
    25f0:	3201      	add	r2, #1
    25f2:	3101      	add	r1, #1
    25f4:	4282      	cmp	r2, r0
    25f6:	d1f9      	bne	25ec <memmove+0x44>
    25f8:	e7ec      	b	25d4 <memmove+0x2c>
    25fa:	1c32      	mov	r2, r6		(add r2, r6, #0)
    25fc:	433a      	orr	r2, r7
    25fe:	2303      	mov	r3, #3
    2600:	421a      	tst	r2, r3
    2602:	d1ee      	bne	25e2 <memmove+0x3a>
    2604:	1c3a      	mov	r2, r7		(add r2, r7, #0)
    2606:	1c31      	mov	r1, r6		(add r1, r6, #0)
    2608:	680b      	ldr	r3, [r1, #0]
    260a:	6013      	str	r3, [r2, #0]
    260c:	684b      	ldr	r3, [r1, #4]
    260e:	6053      	str	r3, [r2, #4]
    2610:	688b      	ldr	r3, [r1, #8]
    2612:	6093      	str	r3, [r2, #8]
    2614:	68cb      	ldr	r3, [r1, #12]
    2616:	3810      	sub	r0, #16
    2618:	60d3      	str	r3, [r2, #12]
    261a:	3110      	add	r1, #16
    261c:	3210      	add	r2, #16
    261e:	280f      	cmp	r0, #15
    2620:	d8f2      	bhi	2608 <memmove+0x60>
    2622:	1c04      	mov	r4, r0		(add r4, r0, #0)
    2624:	2803      	cmp	r0, #3
    2626:	d905      	bls	2634 <memmove+0x8c>
    2628:	c908      	ldmia	r1!,{r3}
    262a:	3804      	sub	r0, #4
    262c:	c208      	stmia	r2!,{r3}
    262e:	2803      	cmp	r0, #3
    2630:	d8fa      	bhi	2628 <memmove+0x80>
    2632:	1c04      	mov	r4, r0		(add r4, r0, #0)
    2634:	4694      	mov	ip, r2
    2636:	e7d4      	b	25e2 <memmove+0x3a>

00002638 <memset>:
    2638:	b530      	push	{r4, r5, lr}
    263a:	1c04      	mov	r4, r0		(add r4, r0, #0)
    263c:	23ff      	mov	r3, #255
    263e:	1c0d      	mov	r5, r1		(add r5, r1, #0)
    2640:	1c10      	mov	r0, r2		(add r0, r2, #0)
    2642:	46a4      	mov	ip, r4
    2644:	401d      	and	r5, r3
    2646:	2a03      	cmp	r2, #3
    2648:	d902      	bls	2650 <memset+0x18>
    264a:	2303      	mov	r3, #3
    264c:	421c      	tst	r4, r3
    264e:	d00d      	beq	266c <memset+0x34>
    2650:	1e43      	sub	r3, r0, #1
    2652:	d307      	bcc	2664 <memset+0x2c>
    2654:	4662      	mov	r2, ip
    2656:	189b      	add	r3, r3, r2
    2658:	1c29      	mov	r1, r5		(add r1, r5, #0)
    265a:	3301      	add	r3, #1
    265c:	7011      	strb	r1, [r2, #0]
    265e:	3201      	add	r2, #1
    2660:	429a      	cmp	r2, r3
    2662:	d1fb      	bne	265c <memset+0x24>
    2664:	1c20      	mov	r0, r4		(add r0, r4, #0)
    2666:	bc30      	pop	{r4, r5}
    2668:	bc02      	pop	{r1}
    266a:	4708      	bx	r1
    266c:	022b      	lsl	r3, r5, #8
    266e:	1c2a      	mov	r2, r5		(add r2, r5, #0)
    2670:	431a      	orr	r2, r3
    2672:	0413      	lsl	r3, r2, #16
    2674:	1c21      	mov	r1, r4		(add r1, r4, #0)
    2676:	431a      	orr	r2, r3
    2678:	280f      	cmp	r0, #15
    267a:	d805      	bhi	2688 <memset+0x50>
    267c:	3804      	sub	r0, #4
    267e:	c104      	stmia	r1!,{r2}
    2680:	2803      	cmp	r0, #3
    2682:	d8fb      	bhi	267c <memset+0x44>
    2684:	468c      	mov	ip, r1
    2686:	e7e3      	b	2650 <memset+0x18>
    2688:	3810      	sub	r0, #16
    268a:	600a      	str	r2, [r1, #0]
    268c:	604a      	str	r2, [r1, #4]
    268e:	608a      	str	r2, [r1, #8]
    2690:	60ca      	str	r2, [r1, #12]
    2692:	3110      	add	r1, #16
    2694:	280f      	cmp	r0, #15
    2696:	d8f7      	bhi	2688 <memset+0x50>
    2698:	2803      	cmp	r0, #3
    269a:	d8ef      	bhi	267c <memset+0x44>
    269c:	468c      	mov	ip, r1
    269e:	e7d7      	b	2650 <memset+0x18>

000026a0 <__malloc_lock>:
    26a0:	4770      	bx	lr
	...

000026a4 <__malloc_unlock>:
    26a4:	4770      	bx	lr
    26a6:	46c0      	nop			(mov r8, r8)

000026a8 <_realloc_r>:
    26a8:	b5f0      	push	{r4, r5, r6, r7, lr}
    26aa:	465f      	mov	r7, fp
    26ac:	4656      	mov	r6, sl
    26ae:	464d      	mov	r5, r9
    26b0:	4644      	mov	r4, r8
    26b2:	b4f0      	push	{r4, r5, r6, r7}
    26b4:	b084      	sub	sp, #16
    26b6:	9000      	str	r0, [sp, #0]
    26b8:	1c0e      	mov	r6, r1		(add r6, r1, #0)
    26ba:	1c15      	mov	r5, r2		(add r5, r2, #0)
    26bc:	2900      	cmp	r1, #0
    26be:	d100      	bne	26c2 <_realloc_r+0x1a>
    26c0:	e104      	b	28cc <_realloc_r+0x224>
    26c2:	1c34      	mov	r4, r6		(add r4, r6, #0)
    26c4:	9800      	ldr	r0, [sp, #0]
    26c6:	3c08      	sub	r4, #8
    26c8:	ffeaf7ff 	bl	26a0 <__malloc_lock>
    26cc:	6860      	ldr	r0, [r4, #4]
    26ce:	1c29      	mov	r1, r5		(add r1, r5, #0)
    26d0:	2303      	mov	r3, #3
    26d2:	1c07      	mov	r7, r0		(add r7, r0, #0)
    26d4:	310b      	add	r1, #11
    26d6:	4684      	mov	ip, r0
    26d8:	439f      	bic	r7, r3
    26da:	2916      	cmp	r1, #22
    26dc:	d813      	bhi	2706 <_realloc_r+0x5e>
    26de:	2110      	mov	r1, #16
    26e0:	9102      	str	r1, [sp, #8]
    26e2:	9a02      	ldr	r2, [sp, #8]
    26e4:	468b      	mov	fp, r1
    26e6:	42aa      	cmp	r2, r5
    26e8:	d216      	bcs	2718 <_realloc_r+0x70>
    26ea:	9e00      	ldr	r6, [sp, #0]
    26ec:	230c      	mov	r3, #12
